:020000040000FA
:0608000014EF1EF01200CF
:020806001200DE
:06080800B9EF1BF0120025
:01080E0000E9
:01080F00FFE9
:07081000FF000000004000A2
:0608180004EF1CF01200C9
:02081E000200D6
:100820000F080000CB000000080000000E080000C8
:08083000D600000001000000E9
:08083800E7EC09F0050EE126D2
:10084000DE6ADD6A020EDB6A030EDB6A020EDBCFB4
:1008500010F0030EDBCF11F0FD0EDBCF12F0FE0E19
:10086000DBCF13F011501318E8AE02D0133404D0CC
:100870001250105C1350115841E2F90EDBCFE9FF22
:10088000DB2AFA0EDBCFEAFF01E3DB2AEFCF10F021
:10089000FB0EDBCFE9FFDB2AFC0EDBCFEAFF01E337
:1008A000DB2AEF501018E76E040EE7CFDBFFD950BC
:1008B000F70F17EC0AF011E0F70EDBCFE9FFDB2AA8
:1008C000F80EDBCFEAFF01E3DB2A040EDBCFE7FF04
:1008D000EF50E716040EE7CFDBFF040EDB5004E019
:1008E000010EDE6EDD6A0AD0D950020FE96EDACF52
:1008F000EAFF080EEE26000EED22A8D7D3EC09F091
:10090000050EE15C02E2E16AE552C7EF09F0E7ECAF
:1009100009F0050EE126040EDB6A52EC0AF007AE80
:1009200002D00868096823EC0AF006C0DEFF07C0A1
:10093000DDFFDFCF10F0DF06010EDBCF11F001E2AB
:10094000DB061050111046E0040EDB50176E186ADB
:10095000FB0EDBCF13F0FC0EDBCF14F0DE501324C4
:10096000E96EDD501420EA6EEFCF12F0F90EDBCF06
:1009700015F0FA0EDBCF16F0DE501524E96EDD50CF
:100980001620EA6EEF501224116A11361724106EE9
:100990001850112284EC0AF0FF0ED8801054000E7B
:1009A000115406E2010EF36E040EF3CFDBFF02D00A
:1009B000040EDB6AFB0EDBCF10F0FC0EDBCF11F078
:1009C000DE501024E96EDD501120EA6E020EDBCFFE
:1009D000EFFFAFD7050EE15C02E2E16AE552C7EF37
:1009E00009F0E7EC09F0050EE126DE6ADD6A52EC5B
:1009F0000AF007AE02D00868096823EC0AF0030E7B
:100A000006C0DBFF040E07C0DBFF030EDBCF10F0D8
:100A1000DB06040EDBCF11F001E2DB0610501110F3
:100A200015E0030EDBCF10F0040EDCEC09F0020E33
:100A3000EFCFDBFFDB50E9E0020EDB50010BDE26DF
:100A4000000EDD22020E8BEC0AF0F4D7D3EC09F095
:100A5000050EE15C02E2E16AE552C7EF09F0E7EC5E
:100A600009F0060EE126040EDB6A050EDB6A92EC45
:100A70000AF01006000E115A84EC0AF0020EDBCFC9
:100A800010F0030EDBCF11F0800E111462E1020EA4
:100A9000DBCF10F0030EDBCF11F0F50EDB5010248E
:100AA000E96EF60EDB501120EA6E010EEFCFDBFF90
:100AB000DB5049E0010EDF6EDB5045E0010EDBA0AC
:100AC0003CD0050EDB5019E1F90EDB06DBCF10F050
:100AD000FA0E01E2DB06DBCF11F0F70EDB5010243B
:100AE000E96EF80EDB501120EA6E040EEFCFDBFF4B
:100AF000010EF36E050EF3CFDBFF050EDBCFE6FF35
:100B0000040EDB50E552E71409E0020EDBCF10F0D3
:100B1000030EDCEC09F0DF50EF120AD0DF1C126E7E
:100B2000020EDBCF10F0030EDCEC09F01250EF16D2
:100B3000050E6AEC0AF0F3CFDBFFDF9EDF46010E05
:100B40008BEC0AF0B9D7020EDB06030E97E2DB0648
:100B500095D7060EE15C02E2E16AE552C7EF09F0C3
:100B6000E7EC09F06F0EE126DE6ADD6AD950FD0F71
:100B700017EC0AF00EE1ABEC09F0C3EC0AF001E16E
:100B80000DD1010E1EEC0AF030EC0AF0B8EC09F0C1
:100B900005D192EC0AF0126A136A11AE02D0126803
:100BA0001368070E1026000E112212221322030EC4
:100BB00099EC0AF0FDE11006000E115A125A135A70
:100BC000660E10C0DBFF670E11C0DBFF660EDBCFC9
:100BD00012F0670EDBCF13F0FB0EDB501224106E09
:100BE000FC0EDB501320116E680E10C0DBFF690E87
:100BF00011C0DBFFD950020F126EDACF13F0660E70
:100C0000DB501224106E670EDB50DA20116E6A0E74
:100C100010C0DBFF6B0E11C0DBFFF60EDBCFE6FF73
:100C2000BFEC1AF0E552FD0EDBCF08F0FE0EDBCF75
:100C300009F06C0E08C0DBFF6D0E09C0DBFF64EC31
:100C40000AF0EE50ED1050E0A0EC0AF0EF6A010E51
:100C5000F36E6E0EF3CFDBFFDB503BE064EC0AF08B
:100C6000EE50ED1036E0A7EC0AF00BE064EC0AF071
:100C7000010EEE1806E1ED5004E1B8EC16F09DEC23
:100C80001BF06E0EDBCFE6FF680EDBCFE9FF690ECF
:100C9000DBCFEAFFEF50E552E71403E0BCEC16F0BF
:100CA00002D0BEEC16F0C2EC16F06C0EDB066D0E38
:100CB00001E2DB06C4EC16F0000905E0A0EC0AF046
:100CC0006E0EDB50EF12C0EC16F06E0E6AEC0AF0FE
:100CD000C1D7680EDB06690E01E2DB066A0EDB0691
:100CE0006B0EADE2DB06ABD7D950F90FA0DB20E0ED
:100CF000AEEC0AF0D950020FE66E000EDA20E66E76
:100D0000B6DBFD0EDBCFE6FFFE0EDBCFE6FF94DDAC
:100D1000126E080EE15E1250F3CF10F0F4CF11F016
:100D2000F350F41003E0020EDE6E01D0DE6ADD6ADD
:100D3000A7EC0AF029E030DB0CE00DDBC3EC0AF095
:100D400008E0F00EDB5005E0060E78DB040EE66EE0
:100D500003D0F50EDBCFE6FFBFEC1AF0E552FBDA6D
:100D6000C3EC0AF011E0010E69DB7ADB01DBF3DA98
:100D7000020EDFDBFEE174DB1050EE261150EE2296
:100D80001250EE221350EE2207DB08E0F00EDBCF0C
:100D9000F3FFDB06F350000901E018D704DB6F0E08
:100DA000E15C02E2E16AE552F2D211DBFD0EDBCF3B
:100DB000E6FFFE0EDBCFE6FFD8DBC6DAD950F90F2F
:100DC00036DB08E0FD0EDBCFE6FFFE0EDBCFE6FFF5
:100DD0004EDBBADAE66AE66AE66AE66AE66ABEDB2D
:100DE000000EE66EE66A43DBC0DBFD0EDBCFE6FFFE
:100DF000FE0E14DBE552E7CFD9FF1200C2EC16F06D
:100E0000020EE66E22EC1EF0E552C0EC16F0020E69
:100E1000E66E22EC1EF0E552C2EF16F0D8DA060EAE
:100E2000E12638EC15F0DF6E38EC15F0E76E010EB8
:100E3000E7CFDBFF6DEC15F0020E06C0DBFF030E03
:100E400007C0DBFF040E08C0DBFF050E09C0DBFF97
:100E5000D5DA09E6D880A00E0754860E0854010E94
:100E60000954000E0A5409E2A00EF36E020EF3CFED
:100E7000DBFF860E03DB050EDB6ADFCFE6FFBFEC90
:100E80001AF0E552BBDA09E6D880000E0754000ECE
:100E90000854000E0954000E0A5406E2D950020FFD
:100EA000E96EDACFEAFF64DA010EDBCFE6FFBFECD2
:100EB0001AF0E552060EE15C02E2E16AE55267D201
:100EC00086DA040EE126BEEC16F094EC1AF00B0E56
:100ED000B5DAE80E09DBDCDA0BE27EDA03E0BCEC23
:100EE00016F002D0BEEC16F089DF030EF3DAF3D76A
:100EF00073DA03E0BCEC16F002D0BEEC16F0010E83
:100F00009DDA010EE66EC7EC1DF0E5520B0E96DA87
:100F1000ED0EEADABDDA0BE25FDA03E0BCEC16F0C4
:100F200002D0BEEC16F06ADF030ED4DAF3D754DA3F
:100F300003E0BCEC16F002D0BEEC16F0B8EC16F0F4
:100F40005DDF5CDFBAEC16F059DF780EE66EC7ECB9
:100F50001DF0E552040EE15C02E2E16AE55217D2AF
:100F600036DA120EE126DE6ADD6A010E87DA200E1D
:100F7000F36E050EF3CFDBFF060EDB6A070EDB6AAE
:100F8000080EDB6A090EDB6A0A0EDB6A0B0EDB6AEF
:100F90000C0EDB6A0D0EDB6A94EC1AF0FDD901E051
:100FA000A7D13CEC15F0E76E020EE7CFDBFFDB507C
:100FB00001E19ED1020EDB50170A01E18DD1010A39
:100FC00001E187D11D0A01E134D1010A01E10AD111
:100FD0001E0A01E101D1070A01E1FAD0010A01E18B
:100FE000EDD0030A01E1D2D01E0A01E1CCD01F0AE4
:100FF00001E1C9D01E0A01E1BED0020A01E1B8D068
:10100000010A01E1B5D00E0A01E1A8D00A0A01E106
:1010100098D00B0A57E0170A55E01D0A27E00F0A7F
:1010200020E0030A0FE0050A01E058D10A0EDBCFE9
:10103000E6FF0B0EDBCFE6FF2C0EE66E060EE66E2D
:1010400083D94FD16DEC15F0060E06C0DBFF070EFD
:1010500007C0DBFF080E08C0DBFF090E09C0DBFF7D
:1010600040D138EC15F0E76E050EB9D06DEC15F0F7
:101070000A0E06C0DBFF0B0E07C0DBFF070EE76E94
:101080000A0EDBCF10F00B0EDBCF11F0E75010266D
:10109000000E1122080E0D6E0E6A10C008F011C06D
:1010A00009F041EC1CF008C010F009C011F009343F
:1010B00001E317D110506408000E115401E311D15F
:1010C000060E0DD1020EDB50020807E138EC15F0D8
:1010D000E66ED9500E0F10DA08D057EC15F00E0E50
:1010E000F3CFDBFF0F0EF4CFDBFF0E0EDBCFE6FFFF
:1010F0000F0EDBCFE6FF000EE66E050EE66E24D97E
:10110000E66AD950060FE96EDACFEAFFEECFE6FFC6
:10111000EECFE6FFEECFE6FFEFCFE6FF030EDBCF2D
:10112000E6FF0B0EE66E000EE66EE66AE66EE66A17
:10113000000EE66E050EE66E0E0EDBCFE6FF0F0E1E
:1011400011D052D9E66E00D90A0EDBCFE6FF0B0EA6
:10115000DBCFE6FFC80EE66E050E01D045D9E66E80
:10116000F3D8CDD8DBCFE6FFFBDC106E0F0E23D01B
:10117000040EE66E03D0040EDBCFE6FFE66E000E33
:10118000E66EE66A0BD0040EE66E03D0040EDBCFEB
:10119000E6FFE66EC80EE66E050EE66E000EE66E23
:1011A000050EE66E0A0EDBCFE6FF0B0EDBCFE6FF89
:1011B000FCDD106E080EE15E105008D0010EE66EE8
:1011C000E66A45EC15F0E552E55238D988D989D060
:1011D0000D0E71D9030E03D0060E6DD9040EE7CFA4
:1011E000DBFF7FD00A0EDBCFE6FF0B0EDBCFE6FF87
:1011F000F40EE66E060EE66EA7D80A0EDBCFE6FF0B
:101200000B0EDBCFE6FFC4D99FD8C2D90A0EDBCFC5
:10121000E6FF0B0EDBCFE6FFF1EC04F0E552E55202
:10122000E552E5520C0EF3CFDBFF0D0EF4CFDBFFE2
:1012300058D0DAD8E66E88D862D8F0D850D9ACD871
:1012400050E138EC15F0E66ED950100F55D9100E5C
:10125000DBCF10F0DB06110EDBCF11F001E2DB0675
:10126000105011103EE098D83CE186D9640EE66E2D
:10127000050EE66E69D8F40EE66E060EE66E000EFA
:10128000E66E050EE66E0A0EDBCFE6FF0B0EDBCF39
:10129000E6FF87EC04F0106E060EE15E105078D980
:1012A000640EE66E050EE66E67D9000EE66E050E5C
:1012B000E66E0A0EDBCFE6FF0B0EDBCFE6FF2FEC70
:1012C00005F0106E0A0EE15E105019D8A7D807D9A4
:1012D000BED702EC16F005D0A1DD03D0040EDE6E01
:1012E000DD6A5AD801E05AD633EC15F0F8D856D654
:1012F0005AD8120EE15C02E2E16AE55248D0050ECE
:10130000DBCFE6FFD950060FE96EDACFEAFFEECF6A
:10131000E6FFEECFE6FFEECFE6FFEFCFE6FF040EEF
:10132000DBCFE6FFE66E2C0EE66E060EE66EC80E0E
:10133000E66E050EE66E000EE66E050EE66E0A0E11
:10134000DBCFE6FF0B0E1200A0EC15F0E552E552E4
:10135000E552E5521200F10EDBCF10F0F20EDBCFBA
:1013600011F0F30EDBCF12F0F40EDBCF13F012000E
:10137000EECFE6FFEECFE6FFEECFE6FFEFCFE6FFE4
:1013800015EC16F0E552E552E552E5521200E16E19
:10139000E552E7CFD9FF1200D9CFE9FFDACFEAFF54
:1013A000EE50ED101200DECF10F0DDCF11F010C0C6
:1013B000F3FF11C0F4FF1200DBCF11F0FB0EDB5086
:1013C0001024E96EFC0EDB501120EA6E1200D9CF1A
:1013D000E6FFE1CFD9FF1200030EDBCFE6FF020EDE
:1013E000DB50E552E71412000A0EDBCFE6FF0B0ECE
:1013F000DBCFE6FF000EE66E050E1200020EDBCF1D
:1014000007F0030EDBCF08F0040EDBCF09F0050E6A
:10141000DBCF0AF00A34000E0A181200DBCFE6FF19
:10142000B0EC05F0106E0F0EE15E10501200E96E88
:10143000FF0EDA20EA6EEE50ED101200E66EBFEC01
:101440001AF0E5521200070E0626000E07220822A7
:101450000922080E0B6E0C6A0D6A0E6AA3EF1DF0CE
:10146000D950F10FE96EFF0EDA20EA6E1200F90E84
:10147000DBCFE6FFFA0EDBCFE6FF1200F36E030EC2
:10148000F3CFDBFF010EF36E040EF3CFDBFF120090
:10149000F3CFDBFF800EF36E030EDBCFF4FFF350D0
:1014A000F45C1200FD0EDBCF06F0FE0EDBCF07F082
:1014B000086A096A1200E66E010EE66E45EC15F048
:1014C000E552E552E76E1200D9506C0FE96EDACFA3
:1014D000EAFF1200DBCFF3FFF39EF3461200F3CFD7
:1014E000DEFFF4CFDDFF1200F36E020EF3CFDBFF61
:1014F000010EF36E030E1200E96EDACFEAFFE55239
:10150000E750EE6EED6A1200020E10C0DBFF030E14
:1015100011C0DBFF1200DBCFF3FFF390F342F3CFF8
:10152000DBFF1200FD0EDBCF10F0FE0EDBCF11F063
:101530001200D8901332123211321032E806120023
:101540006A0EDBCFE9FF6B0EDBCFEAFF1200F50E70
:10155000DB50F36EF60EDB50F35C1200F70EDBCFC0
:10156000E6FFF80EDBCFE6FF1200FB0EDBCFE6FF57
:10157000FC0EDBCFE6FF12000C0EDBCFE6FF0D0EFC
:10158000DBCFE6FF120010501110121013101200E2
:0A159000900EE66E060EE66E1200E5
:06159A0093EC10F06A6AF8
:1015A000686AC1EC10F06D8C6D9C6E6A70EC10F086
:1015B000DF6ADF50106E116A180E105C000E1158B1
:1015C00010E2DF50040DF3CFE9FFF4CFEAFF000E85
:1015D000E926040EEA22EE6AEE6AEE6AEE6ADF2A75
:1015E000E8D7160E706E68A604D0030E21EC10F03A
:1015F000FAD70001836B886B896B8A6B6D98080E34
:10160000736F040E746F616B606BE55245EF10F001
:1016100093EC10F00001600507E16DBA05D0686A2F
:1016200069806988020E606F6850040B07E069509A
:10163000040B04E0020E21EC10F097D86DB252D0EA
:101640006850010B1BE06950010B18E0A6DF000198
:10165000040E606F0401600E026F040E036F080E2B
:10166000016F006B8C0E0013E66A680EE66E0F0EBB
:10167000E66EE2EC0FF0E552E552E5526850100BD1
:1016800007E06950100B04E066D8040E21EC10F05E
:101690006850400B0BE06950400B08E0C8EC10F0BC
:1016A000020E30EC10F0060E21EC10F06850200B0A
:1016B00004E06950200B01E03AD86850020B0EE0BC
:1016C0006950020B0BE0C8EC10F0E668E66823EC0A
:1016D0001CF0106E060EE15E10506A6A040E0001E6
:1016E000605D02E2A19A20D069A61DD0DF6A040ED7
:1016F000DF5C19E268A617D06CCF90F0030E21ECE6
:1017000010F0780E0001901502E13DD80AD0000ECD
:10171000E66EE66A900EE66E000EE66E010E30ECA6
:1017200010F0DF2AE4D7A19AE55245EF10F070A03F
:101730000FD059EC10F0EF50800809E12BEC10F0BD
:10174000EF50840804E159EC10F08C0EEF6E7090AD
:10175000050E21EF10F06984040E21EC10F06D826B
:101760007FEC10F0040E30EF10F07FEC10F0030E61
:1017700030EC10F06D92699468A404D0020E21EC54
:1017800010F0FAD7120093EC10F0FD0E0001901546
:101790004FE17E0E9015E8407F0B040DF3CF63F010
:1017A000F4CF64F0000E6327040E642363C065F079
:1017B00064C066F0657559EC10F0EF503C0BE842E0
:1017C000E8420D0833E159EC10F0020EE926000E54
:1017D000EA22EECF10F0EFCF11F0680E101824E1DE
:1017E000040E111821E159EC10F0020EE926000E4A
:1017F000EA22600EEE6E040EED6EDF6ADF50106EB0
:10180000116A080E105C000E11580EE2DF50AAECAF
:1018100010F0DF50EA6A600FE96E040EEA22E5522A
:10182000E750EF6EDF2AEAD70BD807D01FD805D0D4
:10183000FD0E9015040801E12BD8E55245EF10F09C
:101840002BEC10F0EF50800B03E02BEC10F0EF6A64
:1018500000017F6B806B846B856B836B70D87FEC32
:1018600010F0170E30EC10F0D4EF0DF0020E000166
:10187000805D02E18CEF0EF03ED80001915106E14F
:10188000D0DB49EC10F08C0EEF6E1200916B120061
:1018900093EC10F0E0DBEF50400B01E0010EDF6E47
:1018A00000017375080E605D09E162C46EFF6E5041
:1018B000000802E2100E01D0040E606F800518E1EE
:1018C000CADB020EE926000EEA2299EC10F0D1D90B
:1018D000020E00017F5D03E1BEDB840E07D0DF5006
:1018E00003E1B9DBC80E02D0B6DB880EEF6E01D083
:1018F00002D8E552CAD3C2DB0001806BACDBEF6AD1
:10190000040E7319106E74C011F0DE6E74C0DDFF2A
:10191000B0DBEF6A88AF0CD08B518C1107E005D09B
:101920008CC0FAFF00018B51F96EFADF0001889F2D
:10193000020EE15C02E2E16AE552E16EA6D3040127
:101940006051600BE842E842E842E842E8420009A0
:1019500001E0120061510C0A45E00B0A3FE00C0A5D
:1019600031E0010A22E00B0A1EE0020A1CE0030A31
:1019700018E0080A10E0010A0CE00F0A08E0030A68
:1019800001E012000001838F080E606F120057EF14
:101990000DF0EFEF0EF00001610E816F000E826F0F
:1019A0000CD098EF0DF0F3EF0CF064510001816F53
:1019B000826B620E8127000E82238381010E846F69
:1019C000838F12000001838F04016451EA6A620F61
:1019D000E96E000EEA2262C4EFFF120090DB160EE1
:1019E00030EF10F01200D9CFE6FFE1CFD9FF040E9F
:1019F000E1260401620510E160511F0B00090CE1B2
:101A00000001838F030E0401615D04E10001010EFA
:101A10008F6F02D000018F6B0401625141E1605170
:101A20001F0B02083DE164510F0B000939E0000172
:101A3000838F040164BF05D041DB670EE926000EE9
:101A400004D03CDB730EE926000E78DB030E615DEB
:101A500003E10FDB840E23D064510F0B116A700F6A
:101A6000106E0F0E1122020E10C0DBFF030E11C00C
:101A7000DBFF020EDBCFE9FF030EDBCFEAFFEE90C8
:101A8000ED5264AF06D0F5DAEF6ADF74F2DA400E99
:101A900006D0EFDA880EEF6EDF74EBDAC80EEF6E69
:101AA000040EE15C02E2E16AE552E16EEED2800EE4
:101AB0000401605D3CE10001C00E836F04016351CD
:101AC000030A1EE0010A09E0030A2FE100015E0E8D
:101AD000816F3A0E826F120E22D061DBCC0EF62699
:101AE0003A0E40DB020E0001F76A8125F66E825144
:101AF000F7220900F5CF84F00A00F5CF85F0120037
:101B0000040E625D0FE24BDBCE0EF6263A0E2ADBA8
:101B100081C0F6FF82C0F7FF0800F5500001846F16
:101B2000856B12000001836B12000001836B1200B1
:101B3000A5DA0401686B696B60511F0B020A0EE0A5
:101B4000030A09E0010A1FE10001838F8F051BE1F1
:101B50000401688318D00001838F15D00001838FA2
:101B6000040164BF05D0AADA670EE926000E04D08E
:101B7000A5DA730EE926000EE1DA7BDAEF50040BEA
:101B800002E0010E686F000183AF07D0680E816F1D
:101B9000040E826F8381020E846F020EE15C02E20A
:101BA000E16AE552E16E71D26D98000183BF18D0F1
:101BB00088AF0FD0020E806F4EDAEE52EF6A4BDA2A
:101BC000C80EEF6E2EDAB5DA65C0E9FF66C0EAFF2F
:101BD0003BD027DA5EDA8C0EEF6E3DDA840E35D01C
:101BE00088BF46D0040160AF32D0000184510401A7
:101BF000665D000185510401675904E266C484F002
:101C000067C485F036D80001010E806F0ADA41DA28
:101C1000800EEF6E916B4DDAEE52080EEF6E49DAE0
:101C2000020EE926000EEA22600EEE6E040EED6E44
:101C300040DA840EEF6E010E916F0DDA020EE92686
:101C4000000EEA2276DA07DAC80EEF6E1200000103
:101C5000020E806F00DAEE52EF6AFDD9C80EEF6E09
:101C6000E0D967DA65C0E9FF66C0EAFFC80EEF6E2B
:101C7000120004DA0001080E845D000E85590DE2A1
:101C800084C0DEFF85C0DDFF7F5102E1010E03D07D
:101C90007F0506E1020E7F6F03D0080EDE6EDD6A5F
:101CA000DAD9EF92D8D9EF90D6D9010EDB50EF12E6
:101CB000D2D9EE52DFCFEFFF000EDB50845F010E72
:101CC000DB50855B680E8D6F040E8E6F83B10FD075
:101CD0006DDA1BE081C0F6FF82C0F7FF812B000E9A
:101CE00082230800F55011DAF3E2DB06F1D75EDA61
:101CF0000CE081C0E9FF82C0EAFF812B000E822345
:101D0000EF5003DAF4E2DB06F2D7020EE15C02E206
:101D1000E16AE552E16EB9D1B1D9CBD9EE52EFCF3C
:101D2000DFFFDFCF10F010500001895D000E8A59EF
:101D300003E289C0DFFF09D0DF50106E116AE8505E
:101D4000895D896F11508A598A6F010EDB6ADF50F5
:101D5000F36E010EDBCFF4FFF350F45C10E2010EE2
:101D6000DB50F8D986C0E9FF87C0EAFF862B000E5A
:101D70008723E552E750EF6E010EDB2AE8D7000E0D
:101D8000D8808955000E8A5513E24BD9D2D991D902
:101D9000EF50400B06E165C0E9FF66C0EAFFC80EE0
:101DA00005D065C0E9FF66C0EAFF880EEF6E10D06F
:101DB00038D96FD9840EEF6E8B518C1107E005D0A6
:101DC0008CC0FAFF00018B51F96EFADF0001889F89
:101DD000020EE15C02E2E16AE552E16E56D10001D9
:101DE000838F7ED9010EE66EE66AE66A620EE66EC3
:101DF000000EE66E15EC1DF0106E050EE15E105043
:101E000062C461F00401625104E10001100E606FD0
:101E100012000001200E606F72D9150E30EF10F025
:101E20002DD9000EDE6E040EDD6E50D9040DF35078
:101E3000106E116A020E0F0B05E0D89011321032AD
:101E4000E806FBE1D89010361136D89010361136DE
:101E5000D9CFE9FFDACFEAFF1050EE261150ED227C
:101E600008D9EF9EFD0EDB5005E11CD9670EE9266F
:101E7000000E04D017D9730EE926000EEA22DECF39
:101E8000EEFFDDCFEDFFF5D8EF9CF3D8040EE92689
:101E9000000EEA22EF8C020EE15C02E2E16AE552FA
:101EA000E16EF3D0EBD8FE0EDB50116A700F106EAE
:101EB0000F0E4AD9DED8FD0EDBCFEFFFDBA402D038
:101EC000E66A58D9FD0EDBA203D0010EE66E52D9A8
:101ED000020EE15C02E2E16AE552E16ED6D0CED8B4
:101EE000FE0EDB5008E19DD8D4D88C0EEF6EB3D82F
:101EF000840EEF6E1DD0EAD8040DF3CF10F0F4CFAE
:101F000011F0000E1026040E1FD9840EB2D8E8502E
:101F1000EF12DCD8010F040DF3CF10F0F4CF11F065
:101F2000000E1026040E10D9840EA3D8E850EF122C
:101F3000020EE15C02E2E16AE552E16EA6D09ED8B3
:101F4000FD0EDB5005E0AED8730EE926000E04D07E
:101F5000A9D8670EE926000EF1D88BD8020EE92623
:101F6000000EEA22FB0EDBCFEEFFFC0EDBCFEDFF17
:101F700080D8EE52FA0EDBCFEFFF400E7AD8E85051
:101F8000EF16880E76D8E850EF12FD0EDB5005E014
:101F900089D8730EE926000E04D084D8670EE9268E
:101FA000000EEA22EF74DECF10F0DDCF11F010C08A
:101FB000F3FF11C0F4FF020EE15C02E2E16AE552B8
:101FC000E16E63D0D9CFE6FFE1CFD9FF010EF36E0A
:101FD000FC0EDB5004E0D890F336E806FCE1F31C7D
:101FE000106EFD0EDBCFE9FFFE0EDBCFEAFF1050D7
:101FF000EF164BD06D6A696A0001606B1200000138
:1020000060510EE16D6A696ABCD8D08EA28AA08A3E
:10201000F28E6DB602D06D86FCD70001010E606FA6
:10202000120065C0E9FF66C0EAFFEE52080EEF6ECF
:1020300065C0E9FF66C0EAFF020EE926000EEA224B
:102040001200E66E680EE66E0F0EE66EBBDFE5521E
:10205000E552E552120073C0E9FF74C0EAFF1200B6
:10206000E66EE66A23EC1CF0106E060EE15E105080
:102070001200DECFE9FFDDCFEAFF1200D9CFE6FF85
:10208000E1CFD9FF020EE1261200E552E7CFD9FFDA
:102090001200600EEE6E040EED6E65C0E9FF66C0C4
:1020A000EAFF1200FE0EEA6ADB34FE0BEA36E96E46
:1020B000120063C0E9FF64C0EAFF120064510F0B15
:1020C000E96EEA6AD890E936EA361200FD0EDB5076
:1020D000E824126EFE0EDB50040DF35012241200A1
:1020E000040EE66EE66AE66A710EE66E0F0EE66EA6
:1020F00015EC1DF0106E050EE15E10501200000E82
:10210000E66EE66AE66EE66A1200E66E8DC0E9FFEC
:102110008EC0EAFF8D2B000E8E23E552E750EF6E46
:10212000DF06010E1200D9CFE6FFE1CFD9FFE6525C
:102130001200680EEE6E040EED6E1200EA22EECF73
:10214000DEFFEDCFDDFF1200112210C0DEFF11C057
:10215000DDFF1200EA6A680FE96E040EEA22EF5012
:10216000E66E1200F7220900F5CF81F00A00F5CFE4
:1021700082F01200FE0EDBCFE6FF52DEE552E552A2
:102180001200160E6F6E9F0E6B6E7B0E696E120044
:10219000010EE66EE66A000EE66EE66A1200625115
:1021A000F66EF76AD890F636F7361200D9CFE9FF07
:0A21B000DACFEAFFEE50ED10120046
:0621BA0073C4B4F072C40E
:1021C000B3F071C4B2F070C4B1F077C4B8F076C4A3
:1021D000B7F075C4B6F074C4B5F00001CD6BCBC0D8
:1021E000CCF0120004016051600BE842E842E84282
:1021F000E842E842020801E0120061512F0A28E09B
:102200002E0A15E0030A13E0010A11E0070A0FE0A5
:10221000010A0DE0030A0BE00E0A09E0180A07E0C4
:10222000010A05E0E10A03E0DE0A01E0120061C4F0
:10223000CBF066C489F067C48AF00001700E866F27
:10224000040E876FBA0E8B6F210E8C6F888F120071
:10225000020E0001846F856B700E816F040E826F19
:10226000810E836F12000001D06B1A0EE66E020E13
:10227000E66E52EC0FF0E552E5521C0EE66E050ECE
:10228000E66E52EC0FF0E552E552400E4DDBB7DB47
:102290000001BF6BC06B1200D9CFE6FFE1CFD9FFC1
:1022A000E652A09A0001BF51C01102E1000E08D011
:1022B000BFC0E9FFC0C0EAFFEF50800B01E0010E94
:1022C00000094BE10001D051010A04E0030A45E195
:1022D000D06B43D00001400ED880B955000EBA55DE
:1022E00004E2400E106E116A04D0B9C010F0BAC0FA
:1022F00011F01050DF6EDFCFE6FFB80EE66E040E71
:10230000E66E05D0BCC0FAFF0001BB51F96EFADFE2
:10231000E552E552E552DF50106E116AE8500001B7
:10232000B95F1150BA5BB951BA1103E10001020E55
:10233000D06FDFCFE6FFB80EE66E040EE66E010E3C
:10234000E66E020EE66E9FEC0FF0106E050EE15E7B
:102350001050F3CFBFF0F4CFC0F0A08AE552FBD20B
:10236000200E0001605D04E36D50020B01E194DF7B
:102370000001CC512E0A29E0DE0A25E0E10A21E025
:10238000010A1DE0180A19E00E0A15E0030A11E01F
:10239000010A0DE0070A09E0010A05E0030A01E06D
:1023A00012000FEF13F027EF13F0BFEF12F0B4EFAE
:1023B00012F0AFEF12F0B9EF12F0FAEF11F0FFEFF9
:1023C00011F006EF12F00DEF12F00001B151240AE6
:1023D00005E0040A01E01200D4EF13F0C6EF13F099
:1023E00081DAFD0EDBCFE9FFFE0EDBCFEAFF010E47
:1023F000EF6EB1D20001E00EBB6F230EA3D252EC00
:1024000017F036EC17F00001CC69120052EC17F00F
:1024100040EC17F00001CC691200D9CFE6FFE1CF04
:10242000D9FF020EE126DE6ADD6AD9CFE9FFDACFF5
:10243000EAFFEE06000EED5AEECF10F0EDCF11F0F0
:102440001050111001E0F1D76D96D9CFE9FFDACF26
:10245000EAFFEE06000EED5AEECF10F0EDCF11F0D0
:102460001050111001E0F1D7D9CFE9FFDACFEAFF20
:10247000EE06000EED5AEECF10F0EDCF11F0105039
:10248000111001E0F1D7D9CFE9FFDACFEAFFEE066C
:10249000000EED5AEECF10F0EDCF11F010501110EC
:1024A00001E0F1D7D9CFE9FFDACFEAFFEE06000E5F
:1024B000ED5AEECF10F0EDCF11F01050111001E0F9
:1024C000F1D7FF00020EE15C02E2E16AE552E16E43
:1024D000E552E7CFD9FF120005DAFD0EDBCFE9FFA9
:1024E000FE0EDBCFEAFFCEC0EFFF010E11DACFC048
:1024F000EFFF31D2F7D92FD2D9CFE6FFE1CFD9FF05
:10250000FC0EDBCFE6FFE66AA60EE66E000EE66E78
:10251000FD0EDBCFE6FFFE0EDBCFE6FFEAEC1CF0A4
:10252000106E060EE15E1050010EF2D9EF508A08CF
:102530000FE0010EEDD9EF50AA080AE0020EE8D92B
:10254000EF508A0805E0020EE3D9EF50AA0804E133
:102550000001070ED66F02D00001D66BFCD100013E
:10256000D80EBB6F240EEED152EC17F00001CC69EF
:102570001200F5D90001F40EBB6F240EE3D149EC33
:1025800017F017DA16DA0001F80EBB6F240EDAD155
:10259000D9CFE6FFE1CFD9FFE652FC0E36DAE7CF1E
:1025A000DBFFDB503AE00001AE5104E11FDA53ECEF
:1025B00019F0E8D9AE51F36EFC0EDBCFF4FFF35007
:1025C000F45C03E2FC0EDB5001D0AE51DF6EDFCFD6
:1025D000E6FFFD0EDBCFE6FFFE0EDBCFE6FF7BEC7A
:1025E00019F0E552E552E552040EDF02F350106E89
:1025F000116AD950FD0FE96EFF0EDA20EA6EF35032
:10260000EE261150ED22DF500001AE5FFC0EDBCF55
:10261000E7FFDF50E75EFC0EC2D7E5529CD1000118
:10262000CE6BCF6B0001AE6BCFD903E00001F4D9C4
:10263000FEE10001900EBB6F250EBC6FB5C0B9F076
:10264000B6C0BAF00001010ED06FCC691200D9CF2C
:10265000E6FFE1CFD9FF040EE126780EDE6E040E10
:10266000DD6E0001CD5110E17AD9AED903E0000151
:10267000D3D9FEE10001840EAE6FAF6BB06BE0EC1E
:1026800019F00001010ECD6F0001BD51BE1102E134
:10269000000E03D0A4D901E0010E000963E1BDC022
:1026A000E9FFBEC0EAFFEE52020EEFCFDBFFADD96D
:1026B000E7CFDBFF020EDB503CE0020EDBCF10F079
:1026C000AE51D880105402E2AE5102D0020EDB505F
:1026D000E76E030EE7CFDBFFDBCFE6FFDECFE6FFE3
:1026E000DDCFE6FFE4EC19F0E552E552E552030ECA
:1026F000DB50040DF350DE26000EDD22020EDBCF90
:10270000E7FF030EDB50E75E020EE7CFDBFF030EB1
:10271000DB500001AE5FAE51CDE168D9F2EC19F0AB
:1027200031D9E0EC19F0100E0001AF27020EB023F2
:10273000C1D7400EF9D863D9AFC010F0B0C011F0C6
:10274000126A136A10500001B5190CE11150B61944
:1027500009E11250B71906E11350B81903E102E17B
:102760000001CC69040EE15C02E2E16AE552E16E2F
:10277000F2D0D9CFE6FFE1CFD9FFA09AFE0EDBCF92
:1027800070F4FD0EDBCF71F4A08AE5D013EC15F0E8
:1027900060EC07F02FEC15F02AEC17F00001CC6983
:1027A000E66A220ED4EF14F0D9CFE6FFE1CFD9FFCD
:1027B000020EE12613EC15F0E66A210EF5D80001B1
:1027C000BD51BE1102E1000E03D009D901E0010E96
:1027D0000009F5E1E66A200EE7D80001D16BD26B63
:1027E000B0EC07F0F3CFDEFFF4CFDDFF2FEC15F0F8
:1027F0002AEC17F0400E0001D16FD26B95D8FFD8AC
:102800000001CC69D9CFE9FFDACFEAFFEE50ED1035
:1028100003E1E66A220E23D0000EDFCF08F0010E9E
:10282000DBCF09F0040E081801E1095013E0050E92
:10283000081801E109500EE0060E081801E10950E0
:1028400007E0020E081808E1095006E1010E05D064
:10285000020E03D0030E01D00F0EE66E230EA4D895
:10286000020EE15C02E2E16AE552E16E74D0D9CF7A
:10287000E6FFE1CFD9FF0001D2351FE2D1513F0879
:10288000000ED2551AE2E66A210E8ED8400E4CD8C0
:10289000F3CFBDF0F4CFBEF00001BD51BE1102E197
:1028A000000E03D09CD801E0010E0009F5E1E66AB4
:1028B000200E7AD80001D16BD26B780ED125E96E4B
:1028C000040ED221EA6EEF50E66EFD0EDBCFE9FF7B
:1028D000FE0EDBCFEAFFE552E750EF6ED12B000E84
:1028E000D22339D0D9CFE6FFE1CFD9FFFC0EDBCF21
:1028F000E6FFE66AE66AFD0EDBCFE6FFFE0EDBCF03
:10290000E6FF15EC1DF0106E050EE15E1050120092
:10291000E76EFD0EDBCFE9FFFE0EDBCFEAFFE750EF
:10292000E926000EEA221200E66E780EE66E040E2C
:10293000E66EE66A050EE66E9FEC0FF0106E050E71
:10294000E15E1200BC6F040EB96FBA6B0001010E9C
:10295000D06FCC691200E552E7CFD9FF1200B1C0A9
:10296000E6FFB2C0E6FFB3C0E6FFB4C0E6FF87EC07
:1029700019F0E552E552E552E552F3CFCEF0F4CF2F
:10298000CFF01200E552E552E552E552F350000156
:10299000CE13F450CF130001AA2B000EAB23AC23AF
:1029A000AD23840EAE6F1200E66EE3DEE552E55213
:1029B0001200A60EE66E000EE66EE66A3BEC18F01C
:1029C000E552E552E5521200050E1F0BB1C0AAF008
:1029D000B2C0ABF0B3C0ACF0B4C0ADF01200BDC03B
:1029E000E9FFBEC0EAFFEF50800B1200AAC0E6FF6D
:1029F000ABC0E6FFACC0E6FFADC0E6FF1200105072
:102A0000F3CFBDF0F4CFBEF01200DBCFE7FFD890DC
:102A1000E732D890E7321200D890AA37AB37AC37FC
:062A2000AD37E8061200CC
:0A2A26000001D36BD46BF18E0F0E8C
:102A3000C112A0D9A3D9A6D98A908A9293909392D1
:102A4000CAD996D98A808A829398939C93969390B8
:102A50009392320EE66EC7EC1DF0E55212008A909A
:102A60008A92EBEF16F0D3C0F3FFD4C0F4FF12004C
:102A70009ED9DF50E552C0D19AD9180EDF5C02E32F
:102A8000180EDF6EDF50E552B7D191D9100EDF5C22
:102A900002E3100E08D0DF0402E1FD0E03D0DF5088
:102AA00003E1FE0EDB50DF6EDF50E552A5D1A8D961
:102AB000D950030F73D9D950020F70D9020EDBCF52
:102AC000DEFFDBCFDDFFDECF10F0DDCF11F09FD9D1
:102AD00002E2E16AE552E16E8FD1D9CFE6FFE1CFA4
:102AE000D9FF080EE126D950070F58D9D950060F43
:102AF00055D9D950050F52D9D950040F4FD9D9CF34
:102B0000E9FFDACFEAFF040EDBCFEEFF050EDBCFE5
:102B1000EEFF060EDBCFEEFF070EDBCFEEFFDECFC4
:102B200006F0DECF07F0DECF08F0DDCF09F0DD5292
:102B3000DD52080EE15C02E2E16AE552E16E5CD131
:102B40005FD9070EE76EFB0EDBCF10F0FC0EDBCF7C
:102B500011F0E7501026000E1122080E0D6E0E6ABD
:102B600010C008F011C009F041EC1CF008C010F0D2
:102B700009C011F053D959D911340EE2105064082C
:102B8000000E115409E2060E086E096A47D908C002
:102B9000D3F009C0D4F02FD0DE6ADD6ADECF10F0AA
:102BA000DDCF11F0020EDBCF12F0030EDBCF13F0FE
:102BB00011501318E8AE02D0133404D01250105C38
:102BC0001350115818E2FD0EDBCF12F0FE0EDBCFD2
:102BD00013F0DE501224106EDD501320116E10C061
:102BE000E6FFE66E37EC14F0E552E552DF2A010EFF
:102BF000D5E3DB2AD3D719D90AD902E2E16AE55233
:102C0000E16EFAD0D9CFE6FFE1CFD9FFE652D9CFB6
:102C1000E6FFDACFE6FF37EC14F0E552E552DF507D
:102C2000F6E1F36AF46AE552E7D0D9CFE6FFE1CFE7
:102C3000D9FF0A0EE126D950FB0FE96EFF0EDA200C
:102C4000EA6ED890030EEB50000A08E6010EEE5C27
:102C5000000EEE58000EEE58000EEE5801E281D044
:102C6000FB0EDBCF06F0FC0EDBCF07F0FD0EDBCF5B
:102C700008F0FE0EDBCF09F00C0E0B6E0C6A0D6A2D
:102C80000E6A6BEC1DF002C006F003C007F004C032
:102C900008F005C009F00A0E0B6E0C6A0D6A0E6A88
:102CA00067EC1CF006C0DEFF07C0DEFF08C0DEFFD9
:102CB00009C0DDFFDD52DD52070EDFCFDBFF010E65
:102CC000DB50E76E060EE7CFDBFF020EDBCF08F02E
:102CD000030EDBCF09F0040E08C0DBFF050E09C0B0
:102CE000DBFF080EDB6A090EDB6AA6D8040EDBCF19
:102CF00012F0050EDBCF13F01250105C1350115878
:102D000010E2410EE66EC7EC1DF0E552050EE66ED0
:102D1000F4EC1DF0E552240EE66E95D8E6E3DB2ACE
:102D2000E4D7080EDB6A090EDB6A86D8060EDB5094
:102D3000000111AE02D0D89003D0105C000E1158E3
:102D400005E2E66A80D8F1E3DB2AEFD7070EDB5015
:102D5000010807E2070EDB06DBCFE6FF22EC1EF0E0
:102D6000E5520A0EE15C02E2E16AE552E16E44D00E
:102D70008A882BD08A9829D08A8C27D08A9C25D003
:102D80008A8623D08A9621D0010EE66E22EC1EF0B0
:102D9000E5528150040B01E0010E1200E66E000EB8
:102DA000DA20E66E37EC14F0E552E5521200D9CF86
:102DB000E6FFE1CFD9FFE652D9CFE6FFDACFE6FF53
:102DC00037EC14F0E552E5521200010EE66E22ECEB
:102DD0001EF0E5521200320EE66EC7EC1DF0E55211
:102DE0009388938C9386938093829384640EE66E8B
:102DF000C7EC1DF0E5521200E552E7CFD9FF1200F3
:102E0000D9CFE6FFE1CFD9FF040EE126120010C0B2
:102E1000F3FF11C0F4FF040EE15C1200020E08C0C3
:102E2000DBFF030E09C0DBFF1200020EDBCF10F048
:102E3000030EDBCF11F01200080EDBCF10F0090EED
:102E4000DBCF11F0120022EC1EF0E552080EDB2A57
:042E5000090E120055
:0C2E54008A828A888A808A868A8E939EF1
:102E60009392939093989396939C1200B7D9B6D966
:102E7000B5D98A9EE66AF4EC1DF0E5528A8E1200FE
:102E80008A888A908A92E66AF4EC1DF0E5528A827A
:102E900012008A90C2D98A988A92BFD98A808A827F
:102EA0000DEF19F08A888A92B8D98A908A82120026
:102EB000AED9DF6AFE0EDBA002D08A8C01D08A9CDC
:102EC0008A868150040B02E0010E01D0000EAAD9BF
:102ED000DBA202D08A8C01D08A9C8A868150040BA6
:102EE00002E0020E01D0000E9DD9DBA402D08A8C34
:102EF00001D08A9C8A868150040B02E0040E01D026
:102F0000000E90D9DBA602D08A8C01D08A9C8A86DA
:102F10008150040B02E0080E01D0000E83D9DBA81B
:102F200002D08A8C01D08A9C8A868150040B02E0F0
:102F3000100E01D0000E76D9DBAA02D08A8C01D007
:102F40008A9C8A868150040B02E0200E01D0000E7C
:102F500069D9DBAC02D08A8C01D08A9C8A868150E8
:102F6000040B02E0400E01D0000E5CD9DBAE02D0B3
:102F70008A8C01D08A9C8A868150040B02E0800EE4
:102F800001D0000EDF128A96DF50E55223D1D9CF4F
:102F9000E6FFE1CFD9FFFE0EDBA002D08A8C01D084
:102FA0008A9C8A868A96DBA202D08A8C01D08A9C6F
:102FB0008A868A96DBA402D08A8C01D08A9C8A8673
:102FC0008A96DBA602D08A8C01D08A9C8A868A9651
:102FD000DBA802D08A8C01D08A9C8A868A96DBAADA
:102FE00002D08A8C01D08A9C8A868A96DBAC02D079
:102FF0008A8C01D08A9C8A868A96DBAE02D08A8C23
:1030000001D08A9C8A868A96E5D08A9CF7D8FEEF02
:1030100018F0FDD8DF6A8A9C8A868150040B02E092
:10302000010E01D0000ED0D802E0020E01D0000E39
:10303000CBD802E0040E01D0000EC6D802E0080E84
:1030400001D0000EC1D802E0100E01D0000EBCD895
:1030500002E0200E01D0000EB7D802E0400E01D0F1
:10306000000EB2D802E0800E01D0000EDF128A9668
:10307000DF50E552AFD0D9CFE6FFE1CFD9FF88D8F6
:10308000E66E7ED801E3DB2AE552E750EF6EC1DF42
:10309000E66E76D801E3DB2AE552E750EF6EB9DF42
:1030A000E66E6ED801E3DB2AE552E750EF6EB1DF42
:1030B000E66E66D801E3DB2AE552E750EF6E8A88B8
:1030C00089D0D9CFE6FFE1CFD9FF020EE12660D843
:1030D000DE6EDD6A9EDF106E116E106AD9CFE9FFD9
:1030E000DACFEAFF1050EE121150ED128A88DECFCF
:1030F00010F0DDCF11F010C0F3FF11C0F4FF020E8D
:10310000E15C02E2E16AE552E16E64D080D840D829
:10311000DF6E8A88DF50E5525DD048D831D801E3B0
:10312000DB2A67D82DD801E3DB2A63D829D801E34D
:10313000DB2A5FD825D801E3DB2A5BD88A884AD00E
:10314000D9CFE6FFE1CFD9FFE150FA0FE66EFF0ECF
:10315000DA20E66EFE0EDBCFE6FFDFDFE552E5525A
:10316000E55238D023D862D850DF8A8833D01ED8B1
:10317000FD0EDBCFE6FF0BDFE55258D88A882AD058
:10318000FC0EDBCFE9FFDB2AFD0EDBCFEAFF1200EE
:103190008A98FE0EDB50040DF3500109E66EF7DE4F
:1031A000E552E668F4DEE55209EF18F0D9CFE6FF04
:1031B000E1CFD9FF8A98FE0EDB50040DF3500209CF
:1031C000E66EE5DEE5521200DF128A968A868150AD
:1031D000040B1200E552E7CFD9FF12008A9EE66A7F
:1031E000F4EC1DF0E5528A8EE66AF4EC1DF0E5522F
:1031F0001200EF50E66ECBDEE55212008A868A9608
:103200008A868A968A868A968A868A961200D9CF74
:10321000E6FFE1CFD9FFE6521200E66AC7EC1DF0E7
:10322000E5521200DF128A96FE0E1200EEDEEDDE8F
:0432300005EF18F09E
:0C32340026D9040EE66E86EC18F0E55278
:10324000010B02E1010E0DD0FD0EDBCF10F0DB060D
:10325000FE0EDBCF11F001E2DB0610501110EBE1A6
:10326000000E14D1040EE66E61EC18F0E552120067
:1032700008D9040EE126D9CFE6FFDACFE6FFE66EE5
:103280003BEC18F0E552E552E552D9CFE6FFDACF34
:10329000E6FF040EE66E2ED9040EE15C02E2E16A5E
:1032A000E552E16EF3D0EDD809D9E2DFDDD8090EA1
:1032B0001F0B02E0FCD8FEE1C6D8030EB5D805E12D
:1032C000110EF36E800EF46E0FD0CCDFF3CFDEFF65
:1032D000F4CFDDFF0C0E23D9DECF10F0DDCF11F0DF
:1032E00010C0F3FF11C0F4FF040EE15C02E2E16ADA
:1032F000E552E16ECBD0C5D80BD908E0080E0FD946
:10330000E7D83BEC18F0E552C5D8F6D7BFD0B9D80E
:10331000060EE1260001D65121E0D6C010F0116A58
:10332000126A136AD950FB0FE96EFF0EDA20EA6EBB
:10333000EE501016EE501116EE501216EE501316F7
:1033400010C0DEFF11C0DDFFD9CFE9FFDACFEAFF01
:10335000EE50ED1003E0F36A020E28D089DFD0D8DA
:103360003BEC18F0E552E552E552020EDB86C8D878
:10337000C1D87AD80E0E1F0B02E099D8FEE163D8AF
:10338000E66A100EE66E56DFE552E552000902E1EC
:10339000010E0AD0A6D8550E47D802E1020E04D07D
:1033A000050E42D805E1030EF36E800EF46E01D0D7
:1033B00059DF060EE15C02E2E16AE552E16E66D099
:1033C00057DF0C0E8FEF1AF05CD8A2D80AE080D835
:1033D00091D8010EE66E080EE66EB7EC18F05AD8DA
:1033E000F4D754D04ED86AD83FD8090E1F0B02E04C
:1033F0005ED8FEE128D8550EE66E080EE66EB7ECF4
:1034000018F0E552E5526DD8040E0ED805E1210EF4
:10341000F36E800EF46E01D025DF040EE15C02E253
:10342000E16AE552E16E32D0E66E080EE66EB7EC68
:1034300018F0E552E552E66A100EE66EFBDEE55244
:10344000E5520009120010C0E6FF11C0E6FF12C0ED
:10345000E6FF13C0E6FF0C0EE66EA0EC18F0146E4B
:10346000050EE15E14501200FB0EDBCF10F0FC0ED7
:10347000DBCF11F0FD0EDBCF12F0FE0EDBCF13F031
:103480001200D9CFE6FFE1CFD9FF1200E552E7CF16
:10349000D9FF1200E552E552D950FD0FE96EFF0E3B
:1034A000DA20EA6E040EEE26000EED221200D8900D
:1034B0001036113612361336E8061200040EE126D5
:1034C000020EDB6A100EF36E030EF3CFDBFF120069
:1034D000FD0EDBCFE6FFFE0EDBCFE6FF100EE66E45
:1034E0001200AA0EE66E080EE66EB7EC18F0E55272
:1034F000E55212008DEC18F0E552E552E55212004B
:10350000D950020FE66E000EDA20E66EE66A12006F
:10351000FC0EDBCFF3FFDB06F35000091200E66E72
:08352000B2EC18F0E5521200B4
:08352800D9CFE6FFE1CFD9FF86
:10353000020EE1260001D56BB8EC16F0DE6ADD6AFA
:103540000DD904E6050E105C000E115806E20DD9E7
:10355000DF2A010EF5E3DB2AF3D7020EE15C02E27B
:10356000E16AE552E16EE552E7CFD9FF1200B8EC0F
:1035700016F0B5EF1BF0BAEC16F0B5EF1BF0D9CF93
:10358000E6FFE1CFD9FF040EE126020EDB6A030E4F
:10359000DB6AFE0EDB500001D55D10E1FE0EDB5054
:1035A000060803E1CDD8070E07D0FE0EDB500D084C
:1035B00001E0AFD0C5D80E0ED56FABD0FE0EDB50FC
:1035C00012E1DE6ADD6ACAD804E6050E105C000E60
:1035D000115806E2CCDFDF2A010EF5E3DB2AF3D730
:1035E0000001D56B96D0FE0EDB50070803E1060EF6
:1035F000D55D07E1FE0EDB500E0805E10D0ED55D31
:1036000002E0A4D886D0D950020FE96EDACFEAFFE3
:10361000EE50ED1001E07DD0FE0EDB50D55D01E1F6
:1036200078D0D5510F0A6BE0010A5FE0030A5AE037
:10363000010A51E0070A4CE0010A46E0030A41E0B2
:10364000010A3BE00F0A2FE0010A2AE0030A21E009
:10365000010A1CE0070A16E0010A06E0030A55E029
:10366000010A50E073D8CFD7090EF36EFE0EDBCF00
:10367000F4FFF350F45C03E363D8090E48D063D839
:10368000030E45D0FE0EDB50040811E059D8050E9C
:103690003ED0FE0EDB5006080DE155D8060E37D0A1
:1036A0004FD8070E34D0FE0EDB50040803E14BD890
:1036B000040E2DD045D8080E2AD0FE0EDB0425E1DD
:1036C00021D041D80A0E23D0FE0EDB500B0811E0AA
:1036D00037D80C0E1CD0FE0EDB500D080DE133D890
:1036E0000D0E15D02DD80E0E12D0FE0EDB500B088D
:1036F00003E129D80B0E0BD023D80F0E08D0FE0EF5
:10370000DB0403E120D8010E02D01AD8020ED56FD7
:103710007AD7020EDBCF10F0030EDBCF11F010C012
:10372000F3FF11C0F4FF040EE15C02E2E16AE5522E
:10373000E16EE552E7CFD9FF12000001D52B120050
:1037400016DF0001120017DF00011200050EF36EF4
:10375000020EF3CFDBFF030EDB6A1200DECF10F0A8
:10376000DDCF11F0D89011501200C2EC16F0C0EF6E
:0237700016F051
:0E377200DACFE4FFE2CFDAFFE9CFE4FFEACFDF
:10378000E4FFF6CFE4FFF7CFE4FFF5CFE4FFF3CF9C
:10379000E4FFF4CFE4FFFACFE4FF00EE00F0100EF8
:1037A000E80403E3EECFE4FFFBD700EE10F0090ED0
:1037B000E80403E3EECFE4FFFBD7E65208EC0BF09E
:1037C000E55200EE18F0090EE80403E3E5CFEDFF43
:1037D000FBD700EE0FF0100EE80403E3E5CFEDFF9A
:1037E000FBD7E5CFFAFFE5CFF4FFE5CFF3FFE5CF59
:1037F000F5FFE5CFF7FFE5CFF6FFE5CFEAFFE5CF31
:10380000E9FFE5CFDAFF1100D8CFE4FFE0CFE4FF16
:10381000E46EDACFE4FFE652E552E5CFDAFFE55099
:10382000E5CFE0FFE5CFD8FF10000F0EC1122AEC64
:1038300017F0CDEC0AF0FFEC0FF003D8B0EC11F06C
:10384000FCD7FFEF0FF0D9CFE6FFE1CFD9FFFD0E98
:10385000DBCF08F0FE0EDBCF09F0170E081801E1F0
:10386000095008E0150E081807E1095005E133EC8E
:1038700011F002D0F2EC10F0010EE552E7CFD9FFC3
:02388000120034
:0E388200006A0EAE4AEF1CF00D6C0E1EE86AD6
:103890000E22001E09AE52EF1CF0086C091EE86AE9
:1038A0000922001EDEEC1DF009BE62EF1CF000AE26
:1038B000000C086C091EE86A0922046C051EE86AFF
:1038C0000522000C00BE59EF1CF00188FF0C006AB5
:1038D000E86A0EAE74EF1CF00B6C0C1E0D1E0E1E73
:1038E0000C220D220E22001E09AE7FEF1CF0066C8A
:1038F000071E081E091E072208220922001EA3EC2B
:103900001DF009BE96EF1CF000AE000C066C071E01
:10391000081E091EE86A072208220922026C031EFB
:10392000041E051E032204220522000C00BE86EFA1
:063930001CF00188FF0CF1
:0A3936001E0EF66E080EF76E000E6E
:10394000F86E00010900F550C66F0900F550C76F09
:1039500003E1C66701D03DD00900F550C16F0900F1
:10396000F550C26F0900F550C36F09000900F5500A
:10397000E96E0900F550EA6E090009000900F550EA
:10398000C46F0900F550C56F09000900F6CFC8F0F3
:10399000F7CFC9F0F8CFCAF0C1C0F6FFC2C0F7FF39
:1039A000C3C0F8FF0001C45302E1C55307E009009A
:1039B000F550EE6EC407F8E2C507F9D7C8C0F6FFA8
:1039C000C9C0F7FFCAC0F8FF0001C607000EC75BF9
:0439D000BFD712004B
:0C39D400D9CFE6FFDACFE6FFFA0EE3CF12
:1039E000D9FFFB0EE3CFDAFFFC0EE3CFE9FFFD0EBC
:1039F000E3CFEAFFE9CFF3FFEACFF4FFF80EE3509D
:103A000003E1F90EE35008E0F80EE30602E2F90ED6
:103A1000E306DECFEEFFF2D7FF0EE3CFDAFFE5528B
:103A2000FF0EE3CFD9FFE5521200FE0EE3CFE9FF10
:103A3000FF0EE3CFEAFFE9CFF3FFEACFF4FFFB0E7F
:103A4000E35003E1FC0EE35009E0FB0EE30602E263
:0E3A5000FC0EE306FD0EE350EE6EF1D7120001
:023A5E00120153
:103A60000002FF000008FFFF040000010102030143
:103A700009022000010100C0320904000002FF0019
:103A80000000070582024000000705050240000013
:103A9000040309040C035000430055005300420086
:103AA0001A034D0065006D006F007200790041003F
:103AB0006300630065007300730012034400450057
:103AC000410044004300300044004500703A903A01
:063AD000943AA03ABA3A54
:0A3AD60006500B02F3CF02F0F4CF0C
:103AE00003F00C02F3500326000EF420046E06507F
:103AF0000D02F3500426000EF420056E06500E024F
:103B0000F350052607500B02F3500326F45004220D
:103B1000000E052207500C02F3500426F450052233
:103B200007500D02F350052608500B02F3500426EF
:103B3000F450052208500C02F350052609500B02E0
:063B4000F35005261200FF
:0A3B4600056A046A036A026A200E91
:103B5000E76ED89006360736083609360236033641
:103B6000043605360B50025C0C5003580D500458B7
:103B70000E50055809E30B50025E0C50035A0D50CD
:0E3B8000045A0E50055A062AE72EE4D712000A
:023B8E00FF0E28
:103B9000E3501A6EEF0E01D0F30EE76EE72ECEEF74
:103BA0001DF00C0E196EE76AE72ED4EF1DF0192EEA
:0C3BB000D3EF1DF01A2ECCEF1DF0120018
:043BBC00056A046A28
:103BC000100EE76ED89008360936043605360D50CB
:103BD000045C0E50055805E30D50045E0E50055A66
:083BE000082AE72EF0D71200BD
:083BE800FF0EE3501A6E480EB7
:103BF00001D04C0EE76EE72EFED7E76AE72EFED720
:083C00001A2EF7D70000120094
:083C0800000EF36E00EE00F067
:103C1000040E01D81200EA6002D0EE6AFCD7F3501D
:083C2000E9601200EE6AFCD716
:083C280011EE00F021EE00F0A6
:103C3000F86A019C9BEC1CF003EC04F015EC1CF002
:043C4000FBD712009C
:0C3C4400FF0EE350E84E1200000000D01C
:0A3C500000D000D0E82EFAD71200D1
:00000001FF
