:020000040000FA
:1000000097EF03F01200120004EF04F01200000852
:1000100000000800FFFFFFFF0CEF04F012000100DA
:100020000E000000750000000600000000017D6B5E
:100030001E0E716E0401400E096F200E0A6F040E31
:100040000B6F880E086F0401200E0E6F040E0F6FE9
:10005000400E0C6F1200550EA76EAA0EA76EA68258
:1000600012000401140E226F010E236F1200000112
:100070007B6B02D90AE205D90800F5CF7CF00001BC
:10008000F4D87CC0EFFF7B2BF4D7F86A1200000194
:100090007B6BDCD800017551005C765101587751BB
:1000A000025803E200017B2BF4D7F00E0401221763
:1000B000840EA66EE1D810E2D8D8EFCF03F0E1D8D5
:1000C00003C0F5FF0C000F0E00017B150F0801E1C6
:1000D000C2DF00017B2BEED7120000017B6BB6D88C
:1000E00000017851005C795101587A51025803E2BD
:1000F00000017B2BF4D7940EA66EBED811E27B5183
:10010000006E016A060ED89000360136E804FBE165
:10011000026A01BE02688BD89EDF00017B2BEDD7FF
:10012000F86A1200A66A00017B6BA6D80BE20401F4
:10013000225100017B25A96EA68097D8A8CFEFFF9A
:100140007B2BF3D7120000017B6B96D810E20401E1
:10015000225100017B25A96E88D8EF50A86E040EAD
:10016000A66E79DFA6B2FED700017B2BEED7120078
:10017000FFDFB8EF00F0060E0001805D57E36D5021
:10018000020B01E0120000017D050DE104010CBF2E
:100190004DD00401400E096F0817087D880E081322
:1001A00000017D6B1200040108BF40D000017B6B91
:1001B00004012051FF0A22E0FA0A1BE0010A14E0C0
:1001C000070A10E0010A0CE0030A08E0070A06E04B
:1001D000060A1FE146DF0001040E0ED048DF05D0FD
:1001E00056DF08D07ADF06D09DDF050E00017B27A1
:1001F00010D0A9DF0001010E7B6F0BD06D960001BE
:100200007E6B7F6B7E07000E7F5B7E517F11FAE174
:10021000AFDF0001010E7D6F7B5108E07BC00DF464
:10022000400E04010C170C7D880E0C131200040103
:1002300022510024F36E23510120F46E2451022038
:10024000F86EF4CFF7FFF3CFF6FF12007BC003F098
:10025000046A056A040122510324006E235104201C
:10026000016E24510520026E12007B51EA6A250FAF
:10027000E96E040EEA2212000401215100017B5DA7
:1002800012007BC000F0016A026A17EF01F06C50A7
:1002900035E1040100513C0BE842E8420D082CE135
:1002A0000401049F180E0401021924E1040E03192D
:1002B00021E1100E026F040E036F0001686B68519C
:1002C000006E016A080E005C000E015813E26851CE
:1002D000EA6A180FE96E040EEA22EF50E66E6851E2
:1002E000EA6A100FE96E040EEA22E552E750EF6E5B
:1002F000682BE5D783EF01F08CEF01F0040E6C5C06
:1003000001E120D812000001606B616B666B676BC6
:100310003AEC02F0F4EF01F0020E0001605D0DE135
:100320000401180E026F040E036F080E016F00BD6A
:1003300002D0C80E05D0880E03D08FD893D88C0E6B
:10034000006F1200040E0001805D09E112C46EFF0F
:100350006E50000802E2050E01D0030E806F00010E
:10036000600509E10AD8040104BD02D0C80E01D01D
:10037000880E046F12002DEF02F00001080E665D7A
:10038000000E675903E266C06AF002D0080E6A6F79
:100390006AC005F46A51006E016A0050665F015040
:1003A000675B180E646F040E656F6A511CE00001F4
:1003B00081A307D062C0F6FF63C0F7FF0800F550C5
:1003C00005D062C0E9FF63C0EAFFEF5064C0E9FFF7
:1003D00065C0EAFFEF6E0001622B000E6323642B01
:1003E00065236A07E2D712006D980001615105E1AB
:1003F00039D8840E006F04011DD0040110AF1CD049
:10040000000166510401165D00016751040117598E
:1004100004E216C466F017C467F0AFDF0001010EF6
:10042000606F20D8800E006F0401180E066F040E56
:10043000076FC80E046F12000001020E606F040106
:10044000056BC80E046F0401080E016F180E026FD1
:10045000040E036FC80E006F12000001606B0401F0
:10046000046B12000401080E016F100E026F040EDF
:10047000036F120004011051600BE842E842E842A9
:10048000E842E842000901E012001151080A39E08F
:10049000010A35E00F0A0AE0030A01E01200000138
:1004A000010E616F0001040E806F12000001010E49
:1004B000616F0401130507E10001F80E626F060E7B
:1004C000636F120E13D0020E135D07E100010A0ED6
:1004D000626F070E636F200E09D0030E135D0AE1F1
:1004E00000012A0E626F070E636F040E0001666F33
:1004F000676B02D00001616B0001818312008FEFF6
:1005000002F00001010E616F0001820E626F000EA9
:10051000636F000181930001010E666F12000001FC
:10052000010E616F12C482F00401125104E1000156
:10053000050E806F12000001060E806F16EF00F0AE
:10054000080E6D6E6DBAFED7686A110E696E0001F5
:10055000020E806F12006850040B09E06950040B12
:1005600006E06D92699468A402D06894FCD7685044
:10057000010B04E06950010B01E025D86850100B15
:100580000AE06950100B07E0698468986D82A19AAF
:10059000A08A0300A19A6850200B06E06950200B46
:1005A00003E070B07090689A030E0001805D01E274
:1005B00009D06850080B06E06950080B03E047ECCF
:1005C00001F068961200686A7B0E696E6E6A160EFC
:1005D000706E68A605D0689600D000D00000F9D7EC
:1005E0006D982DEC02F00401080E016F0401100E4D
:1005F000026F040E036F04018C0E006F0001826B0A
:100600000001030E806F12001E0EF66E000EF76ED4
:10061000000EF86E00010900F550706F0900F550EA
:10062000716F03E1706701D03DD00900F5506B6F29
:100630000900F5506C6F0900F5506D6F0900090055
:10064000F550E96E0900F550EA6E0900090009004D
:10065000F5506E6F0900F5506F6F09000900F6CF75
:1006600072F0F7CF73F0F8CF74F06BC0F6FF6CC088
:10067000F7FF6DC0F8FF00016E5302E16F5307E012
:100680000900F550EE6E6E07F8E26F07F9D772C0F9
:10069000F6FF73C0F7FF74C0F8FF00017007000E8B
:1006A000715BBFD712000F0EC112FCAE03D0FC9ECF
:1006B00000EF04F0D0A816D0949C8B8CF66A080E3C
:1006C000F76EF86A0900F5CF00F00800F5CF01F0E9
:1006D0000001001C01E1011C05E08250400B02E01A
:1006E00000EF04F0140E6F6EA0EC02F0ABEC02F021
:1006F000BBEC00F0FBD71200120100020000000862
:10070000D8040B00010000000001090220000101D3
:100710000080320904000002FFFFFF00070501020C
:10072000400000070581024000000403090413EEA5
:1007300000F023EE00F0F86A079C04EC03F003ECF1
:1007400000F053EC03F0FBD7120000EE00F00F0EA8
:10075000EE6AEA62FDD71200FFFFFFFFFFFFFFFF17
:10076000FFFFFFFFFFFFFFFFFFFFFFFFFFFFFFFF99
:10077000FFFFFFFFFFFFFFFFFFFFFFFFFFFFFFFF89
:10078000FFFFFFFFFFFFFFFFFFFFFFFFFFFFFFFF79
:10079000FFFFFFFFFFFFFFFFFFFFFFFFFFFFFFFF69
:1007A000FFFFFFFFFFFFFFFFFFFFFFFFFFFFFFFF59
:1007B000FFFFFFFFFFFFFFFFFFFFFFFFFFFFFFFF49
:1007C000FFFFFFFFFFFFFFFFFFFFFFFFFFFFFFFF39
:1007D000FFFFFFFFFFFFFFFFFFFFFFFFFFFFFFFF29
:1007E000FFFFFFFFFFFFFFFFFFFFFFFFFFFFFFFF19
:1007F000FFFFFFFFFFFFFFFFFFFFFFFFFFFFFFFF09
:100800007EEF12F012001200EBEF10F0120000FF6A
:10081000FF00000000FFFFFF36EF11F012000200A2
:100820000F080000CB000000060000000E080000CA
:10083000D100000001000000E2EC09F06A6A686A79
:1008400010EC0AF06D8C6D9C6E6ABFEC09F0DF6AEB
:10085000DF500B6E0C6A180E0B5C000E0C5810E289
:10086000DF50040DF3CFE9FFF4CFEAFF000EE926D5
:10087000040EEA22EE6AEE6AEE6AEE6ADF2AE8D732
:10088000160E706E68A604D0030E70EC09F0FAD74D
:100890000001836B886B896B8A6B6D98080E736F90
:1008A000040E746F616B606BE55294EF09F0E2EC3B
:1008B00009F00001600507E16DBA05D0686A69803A
:1008C0006988020E606F6850040B07E06950040BE2
:1008D00004E0020E70EC09F097D86DB252D0685067
:1008E000010B1BE06950010B18E0A6DF0001040EAC
:1008F000606F0401600E026F040E036F080E016F3B
:10090000006B8C0E0013E66A680EE66E0F0EE66E44
:1009100031EC09F0E552E552E5526850100B07E062
:100920006950100B04E066D8040E70EC09F06850B2
:10093000400B0BE06950400B08E017EC0AF0020E88
:100940007FEC09F0060E70EC09F06850200B04E013
:100950006950200B01E03AD86850020B0EE0695054
:10096000020B0BE017EC0AF0E668E66859EC11F0B0
:100970000B6E060EE15E0B506A6A040E0001605DAC
:1009800002E2A19A20D069A61DD0DF6A040EDF5CC6
:1009900019E268A617D06CCF90F0030E70EC09F046
:1009A000780E0001901502E13DD80AD0000EE66EE7
:1009B000E66A900EE66E000EE66E010E7FEC09F020
:1009C000DF2AE4D7A19AE55294EF09F070A00FD086
:1009D000A8EC09F0EF50800809E17AEC09F0EF503B
:1009E000840804E1A8EC09F08C0EEF6E7090050EFF
:1009F00070EF09F06984040E70EC09F06D82CEECA2
:100A000009F0040E7FEF09F0CEEC09F0030E7FEC45
:100A100009F06D92699468A404D0020E70EC09F09C
:100A2000FAD71200E2EC09F0FD0E000190154FE13B
:100A30007E0E9015E8407F0B040DF3CF63F0F4CFEA
:100A400064F0000E6327040E642363C065F064C085
:100A500066F06575A8EC09F0EF503C0BE842E842FF
:100A60000D0833E1A8EC09F0020EE926000EEA2297
:100A7000EECF0BF0EFCF0CF0680E0B1824E1040E54
:100A80000C1821E1A8EC09F0020EE926000EEA227A
:100A9000600EEE6E040EED6EDF6ADF500B6E0C6AB8
:100AA000080E0B5C000E0C580EE2DF50F9EC09F05A
:100AB000DF50EA6A600FE96E040EEA22E552E75061
:100AC000EF6EDF2AEAD70BD807D01FD805D0FD0E6E
:100AD0009015040801E12BD8E55294EF09F07AEC67
:100AE00009F0EF50800B03E07AEC09F0EF6A0001A7
:100AF0007F6B806B846B856B836B70D8CEEC09F059
:100B0000170E7FEC09F023EF07F0020E0001805D65
:100B100002E1DBEF07F03ED80001915106E1D0DBA6
:100B200098EC09F08C0EEF6E1200916B1200E2EC63
:100B300009F0E0DBEF50400B01E0010EDF6E000139
:100B40007375080E605D09E162C46EFF6E500008A7
:100B500002E2100E01D0040E606F800518E1CADBBE
:100B6000020EE926000EEA22E8EC09F0D1D9020EC5
:100B700000017F5D03E1BEDB840E07D0DF5003E19F
:100B8000B9DBC80E02D0B6DB880EEF6E01D002D8FA
:100B9000E552CAD3C2DB0001806BACDBEF6A040E06
:100BA00073190B6E74C00CF0DE6E74C0DDFFB0DB29
:100BB000EF6A88AF0CD08B518C1107E005D08CC048
:100BC000FAFF00018B51F96EFADF0001889F020ED7
:100BD000E15C02E2E16AE552E16EA6D304016051F4
:100BE000600BE842E842E842E842E842000901E0DE
:100BF000120061510C0A45E00B0A3FE00C0A31E09B
:100C0000010A22E00B0A1EE0020A1CE0030A18E0B7
:100C1000080A10E0010A0CE00F0A08E0030A01E0EC
:100C200012000001838F080E606F1200A6EF06F01D
:100C30003EEF08F00001610E816F000E826F0CD054
:100C4000E7EF06F042EF06F064510001816F826B1E
:100C5000620E8127000E82238381010E846F838FB1
:100C600012000001838F04016451EA6A620FE96E89
:100C7000000EEA2262C4EFFF120090DB160E7FEF37
:100C800009F01200D9CFE6FFE1CFD9FF040EE1262B
:100C90000401620510E160511F0B00090CE1000125
:100CA000838F030E0401615D04E10001010E8F6F6B
:100CB00002D000018F6B0401625141E160511F0BB2
:100CC00002083DE164510F0B000939E00001838FF8
:100CD000040164BF05D041DB670EE926000E04D095
:100CE0003CDB730EE926000E78DB030E615D03E149
:100CF0000FDB840E23D064510F0B0C6A700F0B6E48
:100D00000F0E0C22020E0BC0DBFF030E0CC0DBFF2C
:100D1000020EDBCFE9FF030EDBCFEAFFEE90ED52D0
:100D200064AF06D0F5DAEF6ADF74F2DA400E06D06F
:100D3000EFDA880EEF6EDF74EBDAC80EEF6E040E9A
:100D4000E15C02E2E16AE552E16EEED2800E04015E
:100D5000605D3CE10001C00E836F04016351030A32
:100D60001EE0010A09E0030A2FE10001160E816F5F
:100D7000240E826F120E22D061DB840EF626240E22
:100D800040DB020E0001F76A8125F66E8251F722E0
:100D90000900F5CF84F00A00F5CF85F01200040EAB
:100DA000625D0FE24BDB860EF626240E2ADB81C045
:100DB000F6FF82C0F7FF0800F5500001846F856BD5
:100DC00012000001836B12000001836B1200A5DA90
:100DD0000401686B696B60511F0B020A0EE0030A85
:100DE00009E0010A1FE10001838F8F051BE1040167
:100DF000688318D00001838F15D00001838F040110
:100E000064BF05D0AADA670EE926000E04D0A5DA81
:100E1000730EE926000EE1DA7BDAEF50040B02E0F4
:100E2000010E686F000183AF07D0680E816F040E5A
:100E3000826F8381020E846F020EE15C02E2E16A3E
:100E4000E552E16E71D26D98000183BF18D088AF72
:100E50000FD0020E806F4EDAEE52EF6A4BDAC80EF8
:100E6000EF6E2EDAB5DA65C0E9FF66C0EAFF3BD067
:100E700027DA5EDA8C0EEF6E3DDA840E35D088BF4D
:100E800046D0040160AF32D0000184510401665D98
:100E9000000185510401675904E266C484F067C407
:100EA00085F036D80001010E806F0ADA41DA800E33
:100EB000EF6E916B4DDAEE52080EEF6E49DA020ECC
:100EC000E926000EEA22600EEE6E040EED6E40DAA8
:100ED000840EEF6E010E916F0DDA020EE926000E00
:100EE000EA2276DA07DAC80EEF6E12000001020E6F
:100EF000806F00DAEE52EF6AFDD9C80EEF6EE0D9CE
:100F000067DA65C0E9FF66C0EAFFC80EEF6E12003F
:100F100004DA0001080E845D000E85590DE284C0DC
:100F2000DEFF85C0DDFF7F5102E1010E03D07F05AA
:100F300006E1020E7F6F03D0080EDE6EDD6ADAD99D
:100F4000EF92D8D9EF90D6D9010EDB50EF12D2D95B
:100F5000EE52DFCFEFFF000EDB50845F010EDB505F
:100F6000855B680E8D6F040E8E6F83B10FD06DDAC6
:100F70001BE081C0F6FF82C0F7FF812B000E8223A9
:100F80000800F55011DAF3E2DB06F1D75EDA0CE087
:100F900081C0E9FF82C0EAFF812B000E8223EF505F
:100FA00003DAF4E2DB06F2D7020EE15C02E2E16A68
:100FB000E552E16EB9D1B1D9CBD9EE52EFCFDFFF17
:100FC000DFCF0BF00B500001895D000E8A5903E260
:100FD00089C0DFFF09D0DF500B6E0C6AE850895DD5
:100FE000896F0C508A598A6F010EDB6ADF50F36EED
:100FF000010EDBCFF4FFF350F45C10E2010EDB5086
:10100000F8D986C0E9FF87C0EAFF862B000E872348
:10101000E552E750EF6E010EDB2AE8D7000ED880CC
:101020008955000E8A5513E24BD9D2D991D9EF5088
:10103000400B06E165C0E9FF66C0EAFFC80E05D0B7
:1010400065C0E9FF66C0EAFF880EEF6E10D038D9A0
:101050006FD9840EEF6E8B518C1107E005D08CC0D8
:10106000FAFF00018B51F96EFADF0001889F020E32
:10107000E15C02E2E16AE552E16E56D10001838F44
:101080007ED9010EE66EE66AE66A620EE66E000E34
:10109000E66EF1EC11F00B6E050EE15E0B5062C4D2
:1010A00061F00401625104E10001100E606F120052
:1010B0000001200E606F72D9150E7FEF09F02DD957
:1010C000000EDE6E040EDD6E50D9040DF3500B6E73
:1010D0000C6A020E0F0B05E0D8900C320B32E806BA
:1010E000FBE1D8900B360C36D8900B360C36D9CFA6
:1010F000E9FFDACFEAFF0B50EE260C50ED2208D9BB
:10110000EF9EFD0EDB5005E11CD9670EE926000EAF
:1011100004D017D9730EE926000EEA22DECFEEFFC7
:10112000DDCFEDFFF5D8EF9CF3D8040EE926000ED5
:10113000EA22EF8C020EE15C02E2E16AE552E16E26
:10114000F3D0EBD8FE0EDB500C6A700F0B6E0F0E57
:101150004AD9DED8FD0EDBCFEFFFDBA402D0E66A72
:1011600058D9FD0EDBA203D0010EE66E52D9020E55
:10117000E15C02E2E16AE552E16ED6D0CED8FE0E25
:10118000DB5008E19DD8D4D88C0EEF6EB3D8840E16
:10119000EF6E1DD0EAD8040DF3CF0BF0F4CF0CF0B6
:1011A000000E0B26040E1FD9840EB2D8E850EF12A1
:1011B000DCD8010F040DF3CF0BF0F4CF0CF0000ED0
:1011C0000B26040E10D9840EA3D8E850EF12020E9D
:1011D000E15C02E2E16AE552E16EA6D09ED8FD0E26
:1011E000DB5005E0AED8730EE926000E04D0A9D876
:1011F000670EE926000EF1D88BD8020EE926000E04
:10120000EA22FB0EDBCFEEFFFC0EDBCFEDFF80D83A
:10121000EE52FA0EDBCFEFFF400E7AD8E850EF1611
:10122000880E76D8E850EF12FD0EDB5005E089D825
:10123000730EE926000E04D084D8670EE926000E4E
:10124000EA22EF74DECF0BF0DDCF0CF00BC0F3FF22
:101250000CC0F4FF020EE15C02E2E16AE552E16ECD
:1012600063D0D9CFE6FFE1CFD9FF010EF36EFC0EBC
:10127000DB5004E0D890F336E806FCE1F31C0B6E7B
:10128000FD0EDBCFE9FFFE0EDBCFEAFF0B50EF16C2
:101290004BD06D6A696A0001606B120000016051F9
:1012A0000EE16D6A696ABCD8D08EA28AA08AF28EDD
:1012B0006DB602D06D86FCD70001010E606F120082
:1012C00065C0E9FF66C0EAFFEE52080EEF6E65C02A
:1012D000E9FF66C0EAFF020EE926000EEA221200CC
:1012E000E66E680EE66E0F0EE66EBBDFE552E55267
:1012F000E552120073C0E9FF74C0EAFF1200E66E07
:10130000E66A59EC11F00B6E060EE15E0B5012000E
:10131000DECFE9FFDDCFEAFF1200D9CFE6FFE1CF54
:10132000D9FF020EE1261200E552E7CFD9FF1200E5
:10133000600EEE6E040EED6E65C0E9FF66C0EAFF5A
:101340001200FE0EEA6ADB34FE0BEA36E96E12008A
:1013500063C0E9FF64C0EAFF120064510F0BE96E3D
:10136000EA6AD890E936EA361200FD0EDB50E8242E
:101370000D6EFE0EDB50040DF3500D241200040E12
:10138000E66EE66AE66A710EE66E0F0EE66EF1EC48
:1013900011F00B6E050EE15E0B501200000EE66EB2
:1013A000E66AE66EE66A1200E66E8DC0E9FF8EC060
:1013B000EAFF8D2B000E8E23E552E750EF6EDF061D
:1013C000010E1200D9CFE6FFE1CFD9FFE65212009D
:1013D000680EEE6E040EED6E1200EA22EECFDEFF16
:1013E000EDCFDDFF12000C220BC0DEFF0CC0DDFFD5
:1013F0001200EA6A680FE96E040EEA22EF50E66E08
:101400001200F7220900F5CF81F00A00F5CF82F033
:101410001200FE0EDBCFE6FF52DEE552E55212006F
:10142000160E6F6E9F0E6B6E7B0E696E1200010EB4
:10143000E66EE66A000EE66EE66A12006251F66E2D
:10144000F76AD890F636F7361200D9CFE9FFDACF2F
:10145000EAFFEE50ED10120073C4B4F072C4B3F0A2
:1014600071C4B2F070C4B1F077C4B8F076C4B7F00C
:1014700075C4B6F074C4B5F00001CD6BCBC0CCF030
:10148000120004016051600BE842E842E842E84281
:10149000E842020801E012006151010A13E0030A68
:1014A00011E0010A0FE0070A0DE0010A0BE0030A50
:1014B00009E00E0A07E0180A05E0010A03E0E10A64
:1014C00001E0120061C4CBF066C489F067C48AF001
:1014D0000001700E866F040E876F580E8B6F140E0E
:1014E0008C6F888F12000001D06B1A0EE66E020E10
:1014F000E66EA1EC08F0E552E5521C0EE66E050E14
:10150000E66EA1EC08F0E552E55292DA0001BF6BFD
:10151000C06B1200D9CFE6FFE1CFD9FFE652A09A07
:101520000001BF51C01102E1000E08D0BFC0E9FFA9
:10153000C0C0EAFFEF50800B01E0010E00094BE153
:101540000001D051010A04E0030A45E1D06B43D009
:101550000001400ED880B955000EBA5504E2400E85
:101560000B6E0C6A04D0B9C00BF0BAC00CF00B5073
:10157000DF6EDFCFE6FF400EE66E050EE66E05D0AD
:10158000BCC0FAFF0001BB51F96EFADFE552E5522B
:10159000E552DF500B6E0C6AE8500001B95F0C5049
:1015A000BA5BB951BA1103E10001020ED06FDFCF6F
:1015B000E6FF400EE66E050EE66E010EE66E020ECA
:1015C000E66EEEEC08F00B6E050EE15E0B50F3CF0D
:1015D000BFF0F4CFC0F0A08AE55263D2200E000124
:1015E000605D04E36D50020B01E194DF0001CC511A
:1015F000F00A25E0E10A21E0010A1DE0180A19E0DD
:101600000E0A15E0030A11E0010A0DE0070A09E0DD
:10161000010A05E0030A01E0120040EF0CF058EF68
:101620000CF0F0EF0BF0E5EF0BF0E0EF0BF0EAEF72
:101630000BF02BEF0BF030EF0BF037EF0BF03EEF32
:101640000BF0CBD9FD0EDBCFE9FFFE0EDBCFEAFFBF
:10165000010EEF6E26D20001420EBB6F160EDFD1D7
:10166000AAEC0DF08EEC0DF00001CC691200AAEC92
:101670000DF098EC0DF00001CC691200D9CFE6FF17
:10168000E1CFD9FF020EE126DE6ADD6AD9CFE9FF9C
:10169000DACFEAFFEE06000EED5AEECF0BF0EDCFFB
:1016A0000CF00B500C1001E0F1D76D96D9CFE9FF8B
:1016B000DACFEAFFEE06000EED5AEECF0BF0EDCFDB
:1016C0000CF00B500C1001E0F1D7D9CFE9FFDACFC5
:1016D000EAFFEE06000EED5AEECF0BF0EDCF0CF068
:1016E0000B500C1001E0F1D7D9CFE9FFDACFEAFFB8
:1016F000EE06000EED5AEECF0BF0EDCF0CF00B50D6
:101700000C1001E0F1D7D9CFE9FFDACFEAFFEE06FE
:10171000000EED5AEECF0BF0EDCF0CF00B500C108D
:1017200001E0F1D7FF00020EE15C02E2E16AE5525E
:10173000E16EE552E7CFD9FF12004FD9FD0EDBCFA6
:10174000E9FFFE0EDBCFEAFFCEC0EFFF010E5BD953
:10175000CFC0EFFFA6D141D9A4D1D9CFE6FFE1CFC9
:10176000D9FFFC0EDBCFE6FFE66AA60EE66E000EA2
:10177000E66EFD0EDBCFE6FFFE0EDBCFE6FFC6EC2E
:1017800011F00B6E060EE15E0B50010E3CD9EF50CE
:101790008A080FE0010E37D9EF50AA080AE0020EBE
:1017A00032D9EF508A0805E0020E2DD9EF50AA0871
:1017B00004E10001070ED16F02D00001D16B71D19D
:1017C00000013A0EBB6F170E2AD1AAEC0DF00001F2
:1017D000CC69120041D90001560EBB6F170E1FD104
:1017E000A1EC0DF062D961D900015A0EBB6F170E42
:1017F00016D1D9CFE6FFE1CFD9FFE652FC0E74D95E
:10180000E7CFDBFFDB503AE00001AE5104E163D9E2
:10181000ABEC0FF034D9AE51F36EFC0EDBCFF4FF1E
:10182000F350F45C03E2FC0EDB5001D0AE51DF6EEE
:10183000DFCFE6FFFD0EDBCFE6FFFE0EDBCFE6FFE0
:10184000D3EC0FF0E552E552E552040EDF02F350FF
:101850000B6E0C6AD950FD0FE96EFF0EDA20EA6EAE
:10186000F350EE260C50ED22DF500001AE5FFC0E6F
:10187000DBCFE7FFDF50E75EFC0EC2D7E55211D1A8
:101880000001CE6BCF6B0001AE6B1AD903E00001F3
:1018900032D9FEE10001F20EBB6F170EBC6FB5C06E
:1018A000B9F0B6C0BAF00001010ED06FCC691200D9
:1018B000D9CFE6FFE1CFD9FF040EE126000EDE6EA0
:1018C000050EDD6E0001CD5110E1C6D8F9D803E058
:1018D000000111D9FEE10001840EAE6FAF6BB06B59
:1018E00037EC10F00001010ECD6F0001BD51BE11AB
:1018F00002E1000E08D0BDC0E9FFBEC0EAFFEF5014
:10190000800B01E0010E000961E1BDC0E9FFBEC02E
:10191000EAFFEE52020EEFCFDBFFE6D8E7CFDBFFA8
:10192000020EDB503CE0020EDBCF0BF0AE51D88054
:101930000B5402E2AE5102D0020EDB50E76E030EF2
:10194000E7CFDBFFDBCFE6FFDECFE6FFDDCFE6FF55
:101950003BEC10F0E552E552E552030EDB50040D6E
:10196000F350DE26000EDD22020EDBCFE7FF030E72
:10197000DB50E75E020EE7CFDBFF030EDB5000011A
:10198000AE5FAE51CDE1A7D849EC10F078D837EC76
:1019900010F0100E0001AF27020EB023C1D748D8B7
:1019A000AFC00BF0B0C00CF00D6A0E6A0B50000116
:1019B000B5190CE10C50B61909E10D50B71906E143
:1019C0000E50B81903E102E10001CC69040EE15C9C
:1019D00002E2E16AE552E16E64D0D9CFE6FFE1CFE1
:1019E000D9FFFC0EDBCFE6FFE66AE66AFD0EDBCF31
:1019F000E6FFFE0EDBCFE6FFF1EC11F00B6E050EFD
:101A0000E15E0B501200E76EFD0EDBCFE9FFFE0E2C
:101A1000DBCFEAFFE750E926000EEA221200BC6F96
:101A2000040EB96FBA6B0001010ED06FCC691200C1
:101A3000400EE66E000EE66E050EE66EE66A050ED8
:101A4000E66EEEEC08F00B6E050EE15E0B50F3CF88
:101A5000BDF0F4CFBEF01200B1C0E6FFB2C0E6FFA9
:101A6000B3C0E6FFB4C0E6FFDFEC0FF0E552E5528D
:101A7000E552E552F3CFCEF0F4CFCFF01200E552AD
:101A8000E552E552E552F3500001CE13F450CF1366
:101A90000001AA2B000EAB23AC23AD23840EAE6F46
:101AA0001200E552E7CFD9FF1200A60EE66E000E37
:101AB000E66EE66A93EC0EF0E552E552E55212004E
:101AC000050E1F0BB1C0AAF0B2C0ABF0B3C0ACF0B2
:101AD000B4C0ADF01200AAC0E6FFABC0E6FFACC0D8
:101AE000E6FFADC0E6FF1200DBCFE7FFD890E7329C
:101AF000D890E7321200D890AA37AB37AC37AD3761
:101B0000E80612008A828A888A808A868A8E939E54
:101B10009392939093989396939C1200B7D9B6D9C9
:101B2000B5D98A9EE66A5EEC12F0E5528A8E120002
:101B30008A888A908A92E66A5EEC12F0E5528A827E
:101B400012008A90C2D98A988A92BFD98A808A82E2
:101B500065EF0FF08A888A92B8D98A908A8212003B
:101B6000AED9DF6AFE0EDBA002D08A8C01D08A9C3F
:101B70008A868150040B02E0010E01D0000EAAD922
:101B8000DBA202D08A8C01D08A9C8A868150040B09
:101B900002E0020E01D0000E9DD9DBA402D08A8C97
:101BA00001D08A9C8A868150040B02E0040E01D089
:101BB000000E90D9DBA602D08A8C01D08A9C8A863E
:101BC0008150040B02E0080E01D0000E83D9DBA87F
:101BD00002D08A8C01D08A9C8A868150040B02E054
:101BE000100E01D0000E76D9DBAA02D08A8C01D06B
:101BF0008A9C8A868150040B02E0200E01D0000EE0
:101C000069D9DBAC02D08A8C01D08A9C8A8681504B
:101C1000040B02E0400E01D0000E5CD9DBAE02D016
:101C20008A8C01D08A9C8A868150040B02E0800E47
:101C300001D0000EDF128A96DF50E55223D1D9CFB2
:101C4000E6FFE1CFD9FFFE0EDBA002D08A8C01D0E7
:101C50008A9C8A868A96DBA202D08A8C01D08A9CD2
:101C60008A868A96DBA402D08A8C01D08A9C8A86D6
:101C70008A96DBA602D08A8C01D08A9C8A868A96B4
:101C8000DBA802D08A8C01D08A9C8A868A96DBAA3D
:101C900002D08A8C01D08A9C8A868A96DBAC02D0DC
:101CA0008A8C01D08A9C8A868A96DBAE02D08A8C86
:101CB00001D08A9C8A868A96E5D08A9CF7D856EF0E
:101CC0000FF0FDD8DF6A8A9C8A868150040B02E0FF
:101CD000010E01D0000ED0D802E0020E01D0000E9D
:101CE000CBD802E0040E01D0000EC6D802E0080EE8
:101CF00001D0000EC1D802E0100E01D0000EBCD8F9
:101D000002E0200E01D0000EB7D802E0400E01D054
:101D1000000EB2D802E0800E01D0000EDF128A96CB
:101D2000DF50E552AFD0D9CFE6FFE1CFD9FF88D859
:101D3000E66E7ED801E3DB2AE552E750EF6EC1DFA5
:101D4000E66E76D801E3DB2AE552E750EF6EB9DFA5
:101D5000E66E6ED801E3DB2AE552E750EF6EB1DFA5
:101D6000E66E66D801E3DB2AE552E750EF6E8A881B
:101D700089D0D9CFE6FFE1CFD9FF020EE12660D8A6
:101D8000DE6EDD6A9EDF0B6E0C6E0B6AD9CFE9FF4B
:101D9000DACFEAFF0B50EE120C50ED128A88DECF3C
:101DA0000BF0DDCF0CF00BC0F3FF0CC0F4FF020E04
:101DB000E15C02E2E16AE552E16E64D080D840D88D
:101DC000DF6E8A88DF50E5525DD048D831D801E314
:101DD000DB2A67D82DD801E3DB2A63D829D801E3B1
:101DE000DB2A5FD825D801E3DB2A5BD88A884AD072
:101DF000D9CFE6FFE1CFD9FFE150FA0FE66EFF0E33
:101E0000DA20E66EFE0EDBCFE6FFDFDFE552E552BD
:101E1000E55238D023D862D850DF8A8833D01ED814
:101E2000FD0EDBCFE6FF0BDFE55258D88A882AD0BB
:101E3000FC0EDBCFE9FFDB2AFD0EDBCFEAFF120051
:101E40008A98FE0EDB50040DF3500109E66EF7DEB2
:101E5000E552E668F4DEE55261EF0EF0D9CFE6FF19
:101E6000E1CFD9FF8A98FE0EDB50040DF350020932
:101E7000E66EE5DEE5521200DF128A968A86815010
:101E8000040B1200E552E7CFD9FF12008A9EE66AE2
:101E90005EEC12F0E5528A8EE66A5EEC12F0E552D4
:101EA0001200EF50E66ECBDEE55212008A868A966B
:101EB0008A868A968A868A968A868A961200D9CFD8
:101EC000E6FFE1CFD9FFE6521200E66A47EC12F0D6
:101ED000E5521200DF128A96FE0E1200EEDEEDDEF3
:101EE0005DEF0EF025D9040EE66EDEEC0EF0E55245
:101EF000010B02E1010E0DD0FD0EDBCF0BF0DB0676
:101F0000FE0EDBCF0CF001E2DB060B500C10EBE118
:101F1000000E13D1040EE66EB9EC0EF0E55212007D
:101F200007D9040EE126D9CFE6FFDACFE6FFE66E49
:101F300093EC0EF0E552E552E552D9CFE6FFDACF49
:101F4000E6FF040EE66E2DD9040EE15C02E2E16AC2
:101F5000E552E16EF2D0ECD808D9E2DFDCD8090E08
:101F60001F0B02E0FBD8FEE1C5D8030EB4D805E193
:101F7000110EF36E800EF46E0FD0CCDFF3CFDEFFC8
:101F8000F4CFDDFF0C0E22D9DECF0BF0DDCF0CF04D
:101F90000BC0F3FF0CC0F4FF040EE15C02E2E16A47
:101FA000E552E16ECAD0C4D80AD908E0080E0ED9AD
:101FB000E6D893EC0EF0E552C4D8F6D7BED0B8D828
:101FC000060EE1260001D15120E0D1C00BF00C6AD1
:101FD0000D6A0E6AD950FB0FE96EFF0EDA20EA6E29
:101FE000EE500B16EE500C16EE500D16EE500E166F
:101FF0000BC0DEFF0CC0DDFFD9CFE9FFDACFEAFF6F
:10200000EE50ED1002E08CDF2AD08ADFD0D893ECBE
:102010000EF0E552E552E552020EDB86C8D8C1D873
:102020007AD80E0E1F0B02E099D8FEE163D8E66A5B
:10203000100EE66E57DFE552E552000902E1010E8F
:102040000AD0A6D8550E47D802E1020E04D0050EDC
:1020500042D805E1030EF36E800EF46E01D05ADF14
:10206000060EE15C02E2E16AE552E16E66D058DFFD
:102070000C0EE6EF10F05CD8A2D80AE080D891D818
:10208000010EE66E080EE66E0FEC0FF05AD8F4D78C
:1020900054D04ED86AD83FD8090E1F0B02E05ED844
:1020A000FEE128D8550EE66E080EE66E0FEC0FF036
:1020B000E552E5526DD8040E0ED805E1210EF36EFF
:1020C000800EF46E01D026DF040EE15C02E2E16ACC
:1020D000E552E16E32D0E66E080EE66E0FEC0FF0C0
:1020E000E552E552E66A100EE66EFCDEE552E55278
:1020F000000912000BC0E6FF0CC0E6FF0DC0E6FFB2
:102100000EC0E6FF0C0EE66EF8EC0EF00F6E050E3C
:10211000E15E0F501200FB0EDBCF0BF0FC0EDBCFAD
:102120000CF0FD0EDBCF0DF0FE0EDBCF0EF012003B
:10213000D9CFE6FFE1CFD9FF1200E552E7CFD9FFB3
:102140001200E552E552D950FD0FE96EFF0EDA207C
:10215000EA6E040EEE26000EED221200D8900B3629
:102160000C360D360E36E8061200040EE126020E7D
:10217000DB6A100EF36E030EF3CFDBFF1200FD0ED1
:10218000DBCFE6FFFE0EDBCFE6FF100EE66E1200A1
:10219000AA0EE66E080EE66E0FEC0FF0E552E55261
:1021A0001200E5EC0EF0E552E552E5521200D9506E
:1021B000020FE66E000EDA20E66EE66A1200FC0EF2
:1021C000DBCFF3FFDB06F35000091200E66E0AECEA
:1021D0000FF0E5521200DACFE4FFE2CFDAFFE9CFE9
:1021E000E4FFEACFE4FFF6CFE4FFF7CFE4FFF5CF5B
:1021F000E4FFF3CFE4FFF4CFE4FFFACFE4FF00EE17
:1022000000F00B0EE80403E3EECFE4FFFBD700EE93
:102210000BF0050EE80403E3EECFE4FFFBD7E65234
:1022200057EC04F0E55200EE0FF0050EE80403E36E
:10223000E5CFEDFFFBD700EE0AF00B0EE80403E359
:10224000E5CFEDFFFBD7E5CFFAFFE5CFF4FFE5CF14
:10225000F3FFE5CFF5FFE5CFF7FFE5CFF6FFE5CFDD
:10226000EAFFE5CFE9FFE5CFDAFF1100D8CFE4FFC1
:10227000E0CFE4FFE46EDACFE4FFE652E552E5CFCB
:10228000DAFFE550E5CFE0FFE5CFD8FF10000F0EF5
:10229000C11282EC0DF01CEC04F04EEC09F003D8F6
:1022A000EEEC0AF0FCD782A402D04EEF09F049EF21
:1022B00009F0D9CFE6FFE1CFD9FFFD0EDBCF06F065
:1022C000FE0EDBCF07F0170E061801E1075008E0FD
:1022D000150E061807E1075005E173EC0AF002D06D
:1022E00041EC0AF0010EE552E7CFD9FF12001E0EB5
:1022F000F66E080EF76E000EF86E00010900F5503C
:10230000C66F0900F550C76F03E1C66701D03DD025
:102310000900F550C16F0900F550C26F0900F55072
:10232000C36F09000900F550E96E0900F550EA6E27
:10233000090009000900F550C46F0900F550C56F88
:1023400009000900F6CFC8F0F7CFC9F0F8CFCAF0FE
:10235000C1C0F6FFC2C0F7FFC3C0F8FF0001C453FD
:1023600002E1C55307E00900F550EE6EC407F8E23C
:10237000C507F9D7C8C0F6FFC9C0F7FFCAC0F8FF44
:102380000001C607000EC75BBFD71200D9CFE6FF1A
:10239000DACFE6FFFA0EE3CFD9FFFB0EE3CFDAFF89
:1023A000FC0EE3CFE9FFFD0EE3CFEAFFE9CFF3FF39
:1023B000EACFF4FFF80EE35003E1F90EE35008E032
:1023C000F80EE30602E2F90EE306DECFEEFFF2D7E7
:1023D000FF0EE3CFDAFFE552FF0EE3CFD9FFE55260
:1023E0001200FE0EE3CFE9FFFF0EE3CFEAFFE9CFD5
:1023F000F3FFEACFF4FFFB0EE35003E1FC0EE350E2
:1024000009E0FB0EE30602E2FC0EE306FD0EE350DC
:10241000EE6EF1D7120012010002FF000008FFFF6C
:10242000040000010102030109022000010100C0B3
:10243000320904000002FF0000000705820240008C
:102440000007050502400000040309040C035000C6
:1024500043005500530042001A034D0065006D0013
:102460006F00720079004100630063006500730033
:102470007300120344004500410044004300300053
:1024800044004500282448244C2458247224FF0E7C
:10249000E350116EEF0E01D0F30EE76EE72E4EEF14
:1024A00012F00C0E106EE76AE72E54EF12F0102EA9
:1024B00053EF12F0112E4CEF12F01200FF0EE3500A
:1024C000116E480E01D04C0EE76EE72EFED7E76A7C
:1024D000E72EFED7112EF7D700001200000EF36E84
:1024E00000EE00F0040E01D81200EA6002D0EE6A9D
:1024F000FCD7F350E9601200EE6AFCD713EE00F04F
:1025000023EE00F0F86A0A9C77EC11F003EC04F07B
:1025100047EC11F0FBD71200FFFFFFFFFFFFFFFFAB
:10252000FFFFFFFFFFFFFFFFFFFFFFFFFFFFFFFFBB
:10253000FFFFFFFFFFFFFFFFFFFFFFFFFFFFFFFFAB
:10254000FFFFFFFFFFFFFFFFFFFFFFFFFFFFFFFF9B
:10255000FFFFFFFFFFFFFFFFFFFFFFFFFFFFFFFF8B
:105DC00011D08BD8F950FA45F926000024D031D0F3
:105DD00033D056D060D069D031D02CD0FA6B98D85F
:105DE00097D8EFD7E0CFFDF30301D8CFFEF3FF6FD5
:105DF000E9CFFCF3EACFFBF3FACFF5F3FBCFF4F3F3
:105E0000D450C80B1209D46EFC66DBD7FC2AFD6A9D
:105E1000FE6AFF6AD6D77CD8030EFA6F79D8010ED6
:105E2000FA6F76D8040EFA6F73D8010EFA6F70D835
:105E3000C8D7D498F69103D0D498F681F68168D863
:105E40004CD8FAC3E9FF49D8FAC3EAFF46D8FAC3E7
:105E5000F9F343D8FAC3F8F3F967F82BF6B104D095
:105E6000EECFFAF355D803D038D8FAC3EEFFF92FA6
:105E7000F5D7F853D8B4A5D7F82FF0D7D488A1D741
:105E800047D8FDCFFAF344D8FECFFAF341D8FFCF7D
:105E9000FAF33ED896D73CD8970EF96F090EF86FF3
:105EA000F92F01D0F82FFCD702D032D8D48AFCC306
:105EB000E9FFFBC3EAFFFF51FEC3D8FFFDC3E0FFCC
:105EC000F4C3FBFFF5C3FAFFD480D498E100550E6C
:105ED000A76EAA0EA76EA6821200D450E8B6FDD710
:105EE000D484D450E8A6FDD7D494100EE82CFED765
:105EF000080EF76FD484FA47FA9100D0D450E8B670
:105F0000FA81D494000000D0F72FF4D7D494120073
:105F1000D450E8B6FDD7D484D450E8A6FDD7D494A5
:105F200000D0D492100EE82CFED7080ED48400D0F6
:105F3000FABFD486FAAFD49600D0D494000000D033
:105F4000FA47E82CF3D7D49400D0D4821200FFFF94
:105F5000FFFFFFFFFFFFFFFFFFFFFFFFFFFFFFFF51
:105F6000FFFFFFFFFFFFFFFFFFFFFFFFFFFFFFFF41
:105F7000FFFFFFFFFFFFFFFFFFFFFFFFFFFFFFFF31
:105F8000FFFFFFFFFFFFFFFFFFFFFFFFFFFFFFFF21
:0200000400F00A
:020000040030CA
:0E000000220E3F1E0081810004C007E0074071
:020000040020DA
:08000000FFFFFFFFFFFFFFFF00
:00000001FF
