:020000040000FA
:0600000026EF15F01200CE
:0600080004EF04F01200F9
:060018000CEF04F01200E1
:0608000026EF15F01200C6
:06080800F4EF11F01200F4
:06081800FDEF11F01200DB
:06102A0001006A2A00002B
:08103000DC00000008000000D4
:08103800D9CFE6FFE1CFD9FF9B
:10104000E652A09A6A6A686A706A010EE66EE66AFB
:10105000E66A710EE66E0F0EE66EFCEC14F0146E8E
:10106000050EE15E1450160E6F6E9F0E6B6E7B0EBA
:10107000696EDF6ADF50146E156A080E145C000E8C
:10108000155810E2DF50040DF3CFE9FFF4CFEAFF6B
:10109000000EE926040EEA22EE6AEE6AEE6AEE6AB5
:1010A000DF2AE8D76D8C6E6A6D986D9C68A607D0B4
:1010B00068960001B66BBB6BBC6BBD6BF7D70001CC
:1010C000010ECE6FCF6FD06BD16BC46BDF6A020E97
:1010D000DF5C26E2EA6ADF34FE0BEA36E96EAD0E2B
:1010E000E926000EEA22EE6AED6AEA6ADF34FE0BB8
:1010F000EA36E96EA90EE926000EEA22EE6AED6AEA
:10110000DF50EA6AC80FE96E000EEA22EF6ADF508C
:10111000EA6ACA0FE96E000EEA22EF6ADF2AD7D721
:101120000001080EAD6F040EAE6F160E706E040156
:10113000200E026F040E036F080E016F840E006F05
:101140000001A36BA26BE552E552E7CFD9FF120075
:10115000D9CFE6FFE1CFD9FFE6520001A25116E157
:1011600006D06D6A696A0001A26BA19AB9D06D6A56
:10117000696A160E6F6E9F0E6B6E7B0E696E6DB692
:1011800002D06D86FCD70001010EA26FA20508E116
:101190006DBA06D0686A696A69806988020EA26FB2
:1011A0006850040B05E06950040B02E06894CBD84A
:1011B0006DA202D0A19A94D06850010B08E069504A
:1011C000010B05E039DF0001040EA26F6890685042
:1011D000100B05E06950100B02E0A0D8689868ACCD
:1011E00019D069AC0FD0010EE66EE66A000EE66E0D
:1011F000E66A730EE66EE66A48EC13F0146E060EAD
:10120000E15E1450689C0001CC5101E0CC07CC5148
:1012100001E177DB6850200B04E06950200B01E00E
:1012200064D86850020B13E06950020B10E0010E05
:10123000E66EE66A000EE66EE66AE6687F0EE66E29
:1012400048EC13F0146E060EE15E14506A6A040E48
:101250000001E76EA219E8AE02D0E73402D0E750F1
:10126000A25D02E2A19A3CD069A639D0DF6A040EE1
:10127000DF5C35E268A630D06CCFC5F00001C55107
:10128000780BE842E842E842C66F6896C5B508D0D8
:10129000C651EA6ACA0FE96E000EEA22EF7007D063
:1012A000C651EA6AC80FE96E000EEA22EF70C65115
:1012B00002E160D810D0000EE66EE66AC50EE66E5A
:1012C000000EE66E720EE66EE66A48EC13F0146EDF
:1012D000060EE15E145001D002D0DF2AC8D7A19AD1
:1012E000E552E552E7CFD9FF120070A015D0A5C096
:1012F000E9FFA6C0EAFFEF5080080DE1ADC0E9FFAD
:10130000AEC0EAFFEF50840806E1A5C0E9FFA6C021
:10131000EAFF8C0EEF6E7090689A120069846898EC
:101320006D820001010EC46F000EE66EE66AE66E85
:10133000E66A750EE66EE66A48EC13F0146E060E69
:10134000E15E145012000001C46B000EE66EE66A06
:10135000E66EE66A740EE66EE66A48EC13F0146E0A
:10136000060EE15E14506D92699468A402D06894F0
:10137000FCD71200D9CFE6FFE1CFD9FFE65200013A
:101380002D0ECC6FFD0EC51553E17E0EC515E84040
:101390007F0B040DF3CFA5F0F4CFA6F0000EA52728
:1013A000040EA623A5C0A7F0A6C0A8F0A775A5C0E7
:1013B000E9FFA6C0EAFFEF503C0BE842E8420D0807
:1013C00035E1DF6A080EDF5C23E2A5C0E9FFA6C0B5
:1013D000EAFF020EE926000EEA22EE50EFCFEAFF06
:1013E000E96EEF50E66EDF50EA6A200FE96E040EF8
:1013F000EA22E552E750EF6EA5C0E9FFA6C0EAFF7A
:10140000020EE926000EEA22EE2AEF22DF2ADAD7C0
:10141000A5C0E9FFA6C0EAFF020EE926000EEA22F7
:10142000200EEE6E040EED6E0DD801D03AD805D028
:10143000FD0EC515040801E15AD8E552E552E7CF83
:10144000D9FF12000001B16BCD6BD06BD16BC76BB4
:10145000B26BADC0E9FFAEC0EAFFEF9EAD75ADC0A7
:10146000E9FFAEC0EAFFEF9EAD75A7C0E9FFA8C0D7
:10147000EAFFEF9EB66BB76BB86BBB6BBC6BBD6B1B
:1014800094D8000EE66EE66AE66EE66A030EE66E35
:10149000E66A48EC13F0146E060EE15E14502EEF6F
:1014A0000EF0020E0001B25D03E1F4EC0EF01ED06E
:1014B000B26BC7511AE1A7C0E9FFA8C0EAFFEE521C
:1014C000080EEF6EA7C0E9FFA8C0EAFF020EE926EA
:1014D000000EEA22200EEE6E040EED6EA7C0E9FFAC
:1014E000A8C0EAFF8C0EEF6E01D0C76B1200D9CFF7
:1014F000E6FFE1CFD9FFE652ADC0E9FFAEC0EAFF9B
:10150000EF50400B01E0010EDF6E0001AD75080EDB
:10151000A25D09E122C46EFF6E5003E0100EA26FBF
:1015200002D0040EA26FB20529E1ADC0E9FFAEC042
:10153000EAFF020EE926000EEA22280EEE6E040EE5
:10154000ED6E8FEC0EF0020E0001B15D07E1ADC053
:10155000E9FFAEC0EAFF840EEF6E0FD0DF5007E167
:10156000ADC0E9FFAEC0EAFFC80EEF6E06D0ADC059
:10157000E9FFAEC0EAFF880EEF6E12D0BBAF0FD00E
:10158000BE51BF11C01109E007D0C0C0FBFFBFC0F2
:10159000FAFF0001BE51F96EF8DF0001BB9FB26B8C
:1015A000E552E552E7CFD9FF120004012051600B4C
:1015B000E842E842E842E842E842000901E059D046
:1015C00021510C0A55E00B0A44E00C0A36E0010AEE
:1015D00027E00B0A23E0020A21E0030A1DE0080AC3
:1015E00011E0010A0CE00F0A08E0030A01E040D014
:1015F0000001B68F080EA26F3CD014DA3AD097ECF7
:101600000FF037D00001A30EB36F000EB46FB68198
:10161000010EB76FB68F2DD0B7DA2BD02BD829D0CB
:1016200024510001B36FB46BA40EB327000EB42392
:10163000B681010EB76FB68F1CD00001B68F0401C2
:101640002451EA6AA40FE96E000EEA2222C4EFFFD9
:1016500010D0000EE66EE66AE66EE66A020EE66EF0
:10166000E66A48EC13F0146E060EE15E145001D0E9
:1016700000D01200D9CFE6FFE1CFD9FF050EE12659
:101680000401220510E120511F0B00090CE10001AB
:10169000B68F030E0401215D04E10001010EC36F4A
:1016A00002D00001C36B0401225101E020D120517E
:1016B0001F0B020801E01BD124510F0B000901E1AF
:1016C00016D124510F0B010801E211D1200E0001A7
:1016D000A25D01E00CD1B68F040124BF1AD02451C1
:1016E0000F0BE96EEA6AD890E936EA36A90EE926C8
:1016F000000EEA22EECFDEFFEDCFDDFF24510F0B0F
:10170000EA6ACA0FE96E000EEA22020EEFCFDBFF93
:1017100019D024510F0BE96EEA6AD890E936EA36FF
:10172000AD0EE926000EEA22EECFDEFFEDCFDDFFA3
:1017300024510F0BEA6AC80FE96E000EEA22020E6E
:10174000EFCFDBFFD950020FE96EDACFEAFFEF509F
:10175000010B03E1000EDF9401D0DF8424BF10D021
:1017600024510F0BE96EEA6AD890E936EA36A90EE1
:10177000E926000EEA22DECFEEFFDDCFEDFF0FD02F
:1017800024510F0BE96EEA6AD890E936EA36AD0EBD
:10179000E926000EEA22DECFEEFFDDCFEDFF030EDD
:1017A000215D23E1DECFE9FFDDCFEAFFEF50800BC3
:1017B00013E024BF09D024510F0BEA6ACA0FE96E67
:1017C000000EEA22EF8208D024510F0BEA6AC80FFC
:1017D000E96E000EEA22EF82840E146EDECFE9FF7E
:1017E000DDCFEAFF1450EF1282D0DF74DECFE9FFC5
:1017F000DDCFEAFFEF50800B1BE0DECFE9FFDDCF4E
:10180000EAFFEF9EDECFE9FFDDCFEAFFEF8C020EAD
:10181000E66EE66ADECFE6FFDDCFE6FF050EE66E9A
:10182000E66A48EC13F0146E060EE15E145005D023
:10183000DECFE9FFDDCFEAFFEF8CDF74D950020F76
:10184000E96EDACFEAFFEF50020B07E1DECFE9FFE6
:10185000DDCFEAFFEF50800B2DE0040124BF09D05B
:1018600024510F0BEA6ACA0FE96E000EEA22EF92CA
:1018700008D024510F0BEA6AC80FE96E000EEA2265
:10188000EF923B0E146EDECFE9FFDDCFEAFF14507E
:10189000EF16020EE66EE66ADECFE6FFDDCFE6FF6C
:1018A000050EE66EE66A48EC13F0146E060EE15E75
:1018B000145008D03B0E146EDECFE9FFDDCFEAFFF7
:1018C0001450EF16040124510F0B156A700F146E9B
:1018D0000F0E1522030E14C0DBFF040E15C0DBFF34
:1018E000030EDBCFE9FF040EDBCFEAFFEF90050E1E
:1018F000E15C02E2E16AE552E16EE552E7CFD9FF31
:1019000012000001CE514DE1010ECE6FCF5149E1E1
:10191000010ECF6F020EB25D0DE1ADC0E9FFAEC0AA
:10192000EAFFEE52EF6AADC0E9FFAEC0EAFFC80EB3
:10193000EF6E37D0B20535E1C76BA5C0E9FFA6C091
:10194000EAFFEE52080EEF6EA5C0E9FFA6C0EAFF5F
:10195000020EE926000EEA22200EEE6E040EED6E57
:10196000A5C0E9FFA6C0EAFF840EEF6E010EC76FA7
:10197000A7C0E9FFA8C0EAFFEE52080EEF6EA7C0AD
:10198000E9FFA8C0EAFF020EE926000EEA22200EB7
:10199000EE6E040EED6EA7C0E9FFA8C0EAFF800E50
:1019A000EF6E12000001D06BD16B020EB25D1AE136
:1019B000A7C0E9FFA8C0EAFFEE52080EEF6EA7C06D
:1019C000E9FFA8C0EAFF020EE926000EEA22280E6F
:1019D000EE6E040EED6EA7C0E9FFA8C0EAFFC80EC8
:1019E000EF6E1FD0B7510401265D0001B85104010C
:1019F000275904E226C4B7F027C4B8F090D9ADC087
:101A0000E9FFAEC0EAFF020EE926000EEA22280E28
:101A1000EE6E040EED6EADC0E9FFAEC0EAFFC80E7B
:101A2000EF6E1200800E0401205D01E0ACD00001D9
:101A3000C00EB66F04012351030A61E0010A10E0F1
:101A4000030A03E00001B66B9ED00001080EB36FDD
:101A5000280EB46F000EB56F120EB76FB86B93D02F
:101A6000B90E146E280E156E000E166E22C417F0F5
:101A7000186A196A030E0C6E0D6A0E6A17C007F019
:101A800018C008F019C009F0B3EC14F004C017F046
:101A900005C018F006C019F014501724F36E155045
:101AA0001820F46E16501920F86EF4CFF7FFF3CF1C
:101AB000F6FF0900F5CFB3F00900F5CFB4F0080048
:101AC000F5CFB5F0B3C0F6FFB4C0F7FFB5C0F8FF6F
:101AD000020EF626000EF722F8220800F5CFB7F026
:101AE000B3C0F6FFB4C0F7FFB5C0F8FF030EF6268B
:101AF000000EF722F8220800F5CFB8F044D0030E0C
:101B0000225D3EE2BC0E146E280E156E000E166E9F
:101B100022C417F0186A196A030E0C6E0D6A0E6A59
:101B200017C007F018C008F019C009F0B3EC14F0A2
:101B300004C017F005C018F006C019F0145017249F
:101B4000F36E15501820F46E16501920F86EF4CF6D
:101B5000F7FFF3CFF6FF0900F5CFB3F00900F5CF9B
:101B6000B4F00800F5CFB5F0B3C0F6FFB4C0F7FF8E
:101B7000B5C0F8FF0800F5500001B76FB86B02D090
:101B80000001B66B00D01200D9CFE6FFE1CFD9FF3C
:101B9000020EE1260401286B296B20511F0B020A5B
:101BA00014E0030A0FE0010A01E044D00001B68FFF
:101BB00080A402D0040128810001C30502E10401D0
:101BC000288338D00001B68F35D00001B68F0401CC
:101BD00024BF10D024510F0BE96EEA6AD890E93681
:101BE000EA36A90EE926000EEA22EECFDEFFEDCF9F
:101BF000DDFF0FD024510F0BE96EEA6AD890E93669
:101C0000EA36AD0EE926000EEA22EECFDEFFEDCF7A
:101C1000DDFFDECFE9FFDDCFEAFFEF50800B09E00B
:101C2000DECFE9FFDDCFEAFFEF50040B02E0010E4B
:101C3000286F00D00001B6AF07D0280EB36F040E96
:101C4000B46FB681020EB76F020EE15C02E2E16A88
:101C5000E552E16EE552E7CFD9FF12006D98000121
:101C6000B6BF2BD0BBAF09D0020EB26FD15101E18C
:101C700099DE0001CF6BCE6B1FD0A7C0E9FFA8C0D3
:101C8000EAFFEE52080EEF6EA7C0E9FFA8C0EAFF18
:101C9000020EE926000EEA22200EEE6E040EED6E14
:101CA000A7C0E9FFA8C0EAFF8C0EEF6EADC0E9FF48
:101CB000AEC0EAFF840EEF6E31D0040120AF0DD02C
:101CC0000001010EB26FD05101E16CDE0001CF6B5B
:101CD000CE6BCD5101E115DE21D00001020EB26FB5
:101CE000A7C0E9FFA8C0EAFFEE52080EEF6EA7C03A
:101CF000E9FFA8C0EAFF020EE926000EEA22200E44
:101D0000EE6E040EED6EA7C0E9FFA8C0EAFF840ED8
:101D1000EF6ECF6BCE6BCD5101E1F3DD1200D9CF69
:101D2000E6FFE1CFD9FFE652080EDF6E0001B75D96
:101D3000000EB8590BE2B7C0DFFFB15103E1010E4D
:101D4000B16F04D0B10502E1020EB16FDF50146E25
:101D5000156A1450B75DB76F1550B859B86FADC05C
:101D6000E9FFAEC0EAFFEE52DFCFEFFF280EC16FF2
:101D7000040EC26FB6B11CD0DF5019E0B3C0F6FF3D
:101D8000B32BB4C0F7FF000EB423B5C0F8FFB523E2
:101D90000800F550E66EC1C0E9FFC2C0EAFFC12BE2
:101DA000000EC223E552E750EF6EDF06E5D717D0ED
:101DB000DF5015E0B3C0E9FFB4C0EAFFB32B000E5B
:101DC000B423EF50E66EC1C0E9FFC2C0EAFFC12BE9
:101DD000000EC223E552E750EF6EDF06E9D7E55269
:101DE000E552E7CFD9FF1200D9CFE6FFE1CFD9FF07
:101DF000020EE126A5C0E9FFA6C0EAFFEE52EFCF32
:101E0000DFFFDFCF14F014500001BC5D000EBD59A0
:101E100002E2BCC0DFFFDF50146E156A1450BC5DD7
:101E2000BC6F1550BD59BD6F010EDB6ADF50F36EFC
:101E3000010EDBCFF4FFF350F45C16E2010EDB5031
:101E4000EA6A280FE96E040EEA22EF50E66EB9C086
:101E5000E9FFBAC0EAFFB92B000EBA23E552E750FA
:101E6000EF6E010EDB2AE2D7000ED880BC55000EC3
:101E7000BD5528E2A7C0E9FFA8C0EAFFEE52080E50
:101E8000EF6EA7C0E9FFA8C0EAFF020EE926000E28
:101E9000EA22280EEE6E040EED6EA5C0E9FFA6C084
:101EA000EAFFEF50400B07E1A7C0E9FFA8C0EAFF37
:101EB000C80EEF6E06D0A7C0E9FFA8C0EAFF880EE3
:101EC000EF6E2BD0A7C0E9FFA8C0EAFFEE52080EC4
:101ED000EF6EA7C0E9FFA8C0EAFF020EE926000ED8
:101EE000EA22200EEE6E040EED6EA7C0E9FFA8C038
:101EF000EAFF840EEF6EBE51BF11C01109E007D09A
:101F0000C0C0FBFFBFC0FAFF0001BE51F96EF8DF91
:101F10000001BB9FCD5101E1F4DC020EE15C02E265
:101F2000E16AE552E16EE552E7CFD9FF1200D9CF61
:101F3000E6FFE1CFD9FFE6520001B68F010EE66E53
:101F4000E66AE66A710EE66E0F0EE66EFCEC14F0C1
:101F5000146E050EE15E1450DF6ADF50146E156AD0
:101F6000080E145C000E155810E2DF50040DF3CF7C
:101F7000E9FFF4CFEAFF000EE926040EEA22EE6A3A
:101F8000EE6AEE6AEE6ADF2AE8D76D8CDF6A020E2F
:101F9000DF5C10E2DF50EA6AC80FE96E000EEA2249
:101FA000EF6ADF50EA6ACA0FE96E000EEA22EF6AB2
:101FB000DF2AEDD7010EE66EE66AE66AA40EE66E4B
:101FC000000EE66EFCEC14F0146E050EE15E14508B
:101FD0006D9C0001080EAD6F040EAE6F000EA56F74
:101FE000040EA66FA5C0A7F0A6C0A8F022C4A3F057
:101FF000A35103E1100EA26F13D0010EE66EE66A44
:10200000A30EE66E000EE66E010EE66EE66A48EC82
:1020100013F0146E060EE15E14500001200EA26F44
:10202000E552E552E7CFD9FF1200D9CFE6FFE1CF65
:10203000D9FF020EE126000EDE6E040EDD6EFD0EEF
:10204000DB50E824166EFE0EDB50040DF350162410
:10205000040DF3CF14F0F4CF15F0D9CFE9FFDACFA8
:10206000EAFF1450EE261550ED22DECFE9FFDDCF5A
:10207000EAFFEF9EFD0EDB500FE1FE0EEA6ADB3455
:10208000FE0BEA36E96EA90EE926000EEA22DECF43
:10209000EEFFDDCFEDFF0ED0FE0EEA6ADB34FE0B65
:1020A000EA36E96EAD0EE926000EEA22DECFEEFF3B
:1020B000DDCFEDFFDECFE9FFDDCFEAFFEF9CDECF26
:1020C000E9FFDDCFEAFF040EE926000EEA22EF8CDD
:1020D000020EE15C02E2E16AE552E16EE552E7CF11
:1020E000D9FF1200D9CFE6FFE1CFD9FF020EE126DA
:1020F000FD0EDBA407D0E66AFE0EDBCFE6FF95DF20
:10210000E552E552FD0EDBA208D0010EE66EFE0E92
:10211000DBCFE6FF8ADFE552E552FE0EDB50156AA3
:10212000700F146E0F0E152214C0DEFF15C0DDFFF8
:10213000DECFE9FFDDCFEAFFFD0EDBCFEFFF020EC2
:10214000E15C02E2E16AE552E16EE552E7CFD9FFD8
:102150001200D9CFE6FFE1CFD9FF020EE126FE0E35
:10216000DB5020E1A7C0E9FFA8C0EAFFEE52080E4D
:10217000EF6EA7C0E9FFA8C0EAFF020EE926000E35
:10218000EA22200EEE6E040EED6EA7C0E9FFA8C095
:10219000EAFF8C0EEF6EADC0E9FFAEC0EAFF840E21
:1021A000EF6E3DD0FD0EDB50E824166EFE0EDB50C8
:1021B000040DF3501624040DF3CF14F0F4CF15F0F2
:1021C000000E1426040E152214C0DEFF15C0DDFF1C
:1021D000840E146EDECFE9FFDDCFEAFF1450EF125C
:1021E000FD0EDB50E824166EFE0EDB50040DF3509E
:1021F0001624010F040DF3CF14F0F4CF15F0000EE8
:102200001426040E152214C0DEFF15C0DDFF840E57
:10221000146EDECFE9FFDDCFEAFF1450EF12020E9D
:10222000E15C02E2E16AE552E16EE552E7CFD9FFF7
:102230001200D9CFE6FFE1CFD9FF020EE126FD0E55
:10224000DB500FE0FE0EEA6ADB34FE0BEA36E96E85
:10225000AD0EE926000EEA22EECFDEFFEDCFDDFF68
:102260000ED0FE0EEA6ADB34FE0BEA36E96EA90EEA
:10227000E926000EEA22EECFDEFFEDCFDDFFD9CF5B
:10228000E9FFDACFEAFFEE50ED1003E1F36AF46AFA
:1022900049D0DECFE9FFDDCFEAFF020EE926000ECE
:1022A000EA22FB0EDBCFEEFFFC0EDBCFEDFFDECF35
:1022B000E9FFDDCFEAFFEE52FA0EDBCFEFFF400E73
:1022C000146EDECFE9FFDDCFEAFF1450EF16880E63
:1022D000146EDECFE9FFDDCFEAFF1450EF12FD0EE2
:1022E000DB500CE0FE0EEA6ADB34FE0BEA36E96EE8
:1022F000AD0EE926000EEA22EF740BD0FE0EEA6A5C
:10230000DB34FE0BEA36E96EA90EE926000EEA225E
:10231000EF74DECF14F0DDCF15F014C0F3FF15C05D
:10232000F4FF00D0020EE15C02E2E16AE552E16EE8
:10233000E552E7CFD9FF1200D9CFE6FFE1CFD9FFB1
:102340006DA84ED0FE0EEA6ADB34FE0BEA36E96E6B
:10235000AD0EE926000EEA22EE50EFCFEAFFE96E5D
:10236000400EEE16EE6AEE6AEE6AFE0EEA6ADB34A4
:10237000FE0BEA36E96EAD0EE926000EEA22EE50BB
:10238000EFCFEAFFE96EEE7CFE0EEA6ADB34FE0B6D
:10239000EA36E96EAD0EE926000EEA22EF74400E31
:1023A000146EFE0EEA6ADB34FE0BEA36E96EAD0E01
:1023B000E926000EEA22EE50EFCFEAFFE96E145054
:1023C000EF16FE0EEA6ADB34FE0BEA36E96EAD0E5E
:1023D000E926000EEA22EE50EFCFEAFFE96EEF7C2D
:0823E000E552E7CFD9FF12001E
:0823E800DACFE4FFE2CFDAFFD7
:1023F000E652E552E5CFDAFF1100D8CFE4FFE0CF97
:10240000E4FFE46EDACFE4FFE2CFDAFFE652E55212
:10241000E5CFDAFFE550E5CFE0FFE5CFD8FF1000CC
:1024200022D88B948A928A92A8EC08F08250400DB0
:10243000F35080100001E26FE351E25D10E03D0EC9
:10244000DC5D0DE28A82E2C0E3F0020EDC25EA6A7E
:10245000400FE96E050EEA22E2C0EFFFDC2B65D8E3
:1024600018D8E1D712000F0EC16EC26A3F0E926EED
:10247000936ACB0E946E806A816A400E826E92845B
:1024800002D81CEF08F00001DD6BDE6BDF6BE06B48
:1024900012008250020B16E08250010B13E08050B4
:1024A000200B10E18050100B0DE08050080B0AE16A
:1024B0008050040B07E18050020B04E18050010BB7
:1024C00001E18B848250020B16E08250010B13E075
:1024D0008050200B10E08050100B0DE18050080B55
:1024E0000AE08050040B07E08050020B04E08050AB
:1024F000010B01E08B848250020B16E08250010B2D
:1025000013E08050200B10E08050100B0DE1805044
:10251000080B0AE18050040B07E18050020B04E035
:102520008050010B01E18B941200200E0001E76E38
:10253000A219E8AE02D0E73402D0E750A25D03E36F
:102540006D50020B01E05ED00001DD51DE1102E1B1
:10255000000E08D0DDC0E9FFDEC0EAFFEF50800BBF
:1025600001E0010E00094EE105010051FA0A0DE0FB
:10257000780A09E0030A05E0010A01E02FD08B7414
:102580002ED08B842CD08B942AD05A0E406FDCC076
:1025900041F50001DF51E01102E1000E08D0DFC07B
:1025A000E9FFE0C0EAFFEF50800B01E0010E0009F7
:1025B00013E1400EE66E400EE66E050EE66E010E6D
:1025C000E66EE66E19EC11F0146E050EE15E145025
:1025D000F3CFDFF0F4CFE0F00001DC6B00D0400E71
:1025E000E66E000EE66E050EE66EE66A010EE66E1B
:1025F00019EC11F0146E050EE15E1450F3CFDDF00E
:10260000F4CFDEF01200120012001200120091EF5F
:1026100013F012001E0EE66E010EE66E72EC10F064
:10262000E552E552400EE66E000EE66E050EE66ED1
:10263000E66A010EE66E19EC11F0146E050EE15E0D
:102640001450F3CFDDF0F4CFDEF012000001C3052B
:102650001EE10001C4051BE1D7DF6D920001C46BD0
:102660000001100EA06F0E0EA16FA007000EA15B5F
:10267000A051A111FAE16D84080EA06F070EA16FA1
:10268000A007000EA15BA051A111FAE16D94120008
:10269000D9CFE6FFE1CFD9FFFD0EDBCF08F0FE0E6C
:1026A000DBCF09F0E868081802E17F0E091831E075
:1026B000030E081801E109502AE0020E081801E192
:1026C000095023E0010E081801E109501CE0740EC6
:1026D000081801E1095015E0750E081801E10950CC
:1026E0000EE0730E081801E1095007E0720E081899
:1026F00001E1095001E00FD00ED087DF0CD083DF5D
:102700000AD082DF08D086DF06D083DF04D07FDFE7
:1027100002D07CDF00D0010E00D0E552E7CFD9FF18
:022720001200A5
:0E272200040120511F0B010801E06CD024516E
:1027300001E069D0060E215D29E12351230A25E03D
:10274000010A13E0030A01E021D00001A3050CE116
:1027500000012C0EB36F280EB46F000EB56F090E7A
:10276000B76FB86BC00EB66F11D00001A3050CE1B6
:1027700000019D0EB36F280EB46F000EB56F1C0ED6
:10278000B76FB86BC00EB66F01D000D004012051F6
:10279000600BE842E842E842E842E842010801E012
:1027A00032D021510B0A29E0080A1CE0090A14E082
:1027B000080A07E00B0A04E0080A01E024D023D04D
:1027C00022D00001E40EB36F000EB46F010EB76F9C
:1027D000B86BC10EB66F17D00001800EB66F23C460
:1027E000E4F011D00001E50EB36F000EB46F010EDE
:1027F000B76FB86B810EB66F06D00001800EB66F52
:0828000022C4E5F000D0120033
:082808001201000200000008AB
:10281000D8045A0002000102030109022900010143
:1028200000C0320904000002030000000921110168
:102830000001221C00070581034000010705010378
:10284000400001040309041E03540079005F004E98
:10285000006500740020002600200061006D006506
:102860000065006C00260350006F007300740020A8
:102870000053006E0069006600660065007200206B
:1028800000560032002E0032006100120350005347
:10289000005F00560032002E00320061000600FF8B
:1028A0000901A1011901294015012540750895402C
:1028B0008100190129409100C01A280043280047CF
:0828C00028006528008B2800A8
:0828C8002A0EF66E100EF76EE9
:1028D000000EF86E00010900F550D76F0900F550A1
:1028E000D86F03E1D76701D03DD00900F550D26F12
:1028F0000900F550D36F0900F550D46F09000900A5
:10290000F550E96E0900F550EA6E0900090009006A
:10291000F550D56F0900F550D66F09000900F6CFC4
:10292000D9F0F7CFDAF0F8CFDBF0D2C0F6FFD3C0A2
:10293000F7FFD4C0F8FF0001D55302E1D65307E0FA
:102940000900F550EE6ED507F8E2D607F9D7D9C0E1
:10295000F6FFDAC0F7FFDBC0F8FF0001D707000E73
:06296000D85BBFD7120096
:0A29660009C013F008C012F007C00A
:1029700011F007500C02F4CF05F0F3CF04F008502B
:102980000D02F4CF07F0F3CF06F00C02F35005264A
:10299000F4500622E86A072211500D02F350052672
:1029A000F4500622E86A072209500C02F35006266A
:1029B000F450072209500D02086AE86A0822F35011
:1029C0000726F450082211500E02F3500626F45048
:1029D0000722096AE86A0822092212500E02F350FF
:1029E0000726F4500822E86A092213500E02F35019
:0829F0000826F4500922000C36
:0829F800FE0EE3CFE9FFFF0E24
:102A0000E3CFEAFFE9CFF3FFEACFF4FFFB0EE35099
:102A100003E1FC0EE35009E0FB0EE30602E2FC0ECC
:0C2A2000E306FD0EE350EE6EF1D712004D
:042A2C00000EF36E37
:102A300000EE00F0080E01D81200EA6002D0EE6A43
:0C2A4000FCD7F350E9601200EE6AFCD7EE
:042A4C0013EE00F095
:102A500023EE00F0F86A019C64EC14F034EC15F0FD
:082A600010EC12F0FBD712008C
:022A680012005A
:062A6A0000000000000165
:022A700000FA6A
:020000040030CA
:0100000024DB
:010001000EF0
:010002003FBE
:010003001EDE
:0100050001F9
:010006008178
:010008000FE8
:01000900C036
:01000A000FE6
:01000B00E014
:01000C000FE4
:01000D0040B2
:00000001FF
