:020000041000EA
:1000000000B5324B212058609868022188439860DF
:10001000D860186158612E4B002199600221596106
:100020000121F02299502B49196001219960352056
:1000300000F044F80222904214D00621196600F024
:1000400034F8196E01211966002018661A6600F04E
:100050002CF8196E196E196E052000F02FF8012189
:100060000842F9D1002199601B49196000215960AB
:100070001A491B48016001219960EB211966A021F2
:10008000196600F012F800219960164914480160C1
:100090000121996001BC002800D000471248134993
:1000A000086003C880F30888084703B5996A0420EC
:1000B0000142FBD001200142F8D103BD02B5186610
:1000C0001866FFF7F2FF186E186E02BD00000240BE
:1000D000000000180000070000035F00212200005C
:1000E000F4000018222000A00001001008ED00E03C
:1000F00000000000000000000000000074B24E7A12
:1001000000200420F7010010C3010010C5010010F9
:10011000C1010010C1010010C1010010C101001097
:10012000C1010010C1010010C1010010C701001081
:10013000C1010010C1010010C9010010CB01001065
:10014000CD010010CD010010CD010010CD01001037
:10015000CD010010CD010010CD010010CD01001027
:10016000CD010010CD010010CD010010CD01001017
:10017000CD010010CD010010CD010010CD01001007
:10018000CD010010CD010010CD010010CD010010F7
:10019000CD010010CD010010CD010010CD010010E7
:1001A000CD010010CD010010CD010010CD010010D7
:1001B000CD010010CD010010CD010010CD010010C7
:1001C00000BE00BE00BE00BE00BE00BE00F04BF888
:1001D000103800BEF2EB8871E49D0010089E0010FC
:1001E0003402001090A31AE700202149086006C8D5
:1001F00081F3088810471F48006800282FD10DA4FC
:100200000ECC002902D000F012F8F9E71A491B4A77
:10021000002000E001C19142FCD1194988471949E9
:1002200088471949884700BEFDE701C901C29A42C3
:10023000FBD37047089E0010C00000206C0800200F
:10024000B4A500100000042000000420B4A5001094
:1002500000100420001004200000000070470B482C
:1002600005F016F90047EFF30580C0B270470000B3
:1002700008ED00E0000000D0700800206C9B00201A
:10028000E134001029090010D13500105756000044
:1002900006005250ABB36053489C00100600525009
:1002A000861C030220930010060052505422A29D87
:1002B000589C001005005250DE65F468B4A500108B
:1002C000F8B5C0460448054B10B5834203D0044B33
:1002D000002B00D0984710BD6C0800206C0800204F
:1002E0000000000006480749091A8B10C90FC918F9
:1002F00010B5491003D0044B002B00D0984710BD17
:100300006C0800206C0800200000000010B5074CAD
:100310002378002B09D1FFF7D5FF054B002B02D026
:10032000044800E000BF0123237010BD70090020C5
:1003300000000000F8910010054B10B5002B03D011
:100340000449054800E000BFFFF7CCFF10BDC046E0
:100350000000000074090020F8910010F0B50020A2
:1003600083B007F0E7FF264B1860264B1C78002C63
:1003700017D08125AD00A84211D3234C234E012272
:100380003168200001F05CFB211F0190086000280B
:1003900020D12A0007F0B2FF33680133336003B085
:1003A000F0BD8526B600B042F9D3194D194B174F51
:1003B000E9182A00386800F033FC174B0190E9185F
:1003C000086000280FD1320007F098FF3B68013326
:1003D0003B60E4E70422002001A907F08FFF002220
:1003E0000E4B1A70DBE701000D4806F0A9F9042254
:1003F000002001A907F082FF084B1C70CFE7C04620
:10040000108F00206F980020108D00204C98002045
:10041000FC8C002000FEFFFFFCFDFFFF6998002020
:10042000F891001010B500F0D1FB00F0EDFB0100D9
:10043000014806F085F910BD1892001010B500F0C3
:10044000B5FB024806F0D4F810BDC0463892001043
:1004500010B500F0ABFB024806F0CAF810BDC0466C
:100460004C92001010B500F0B1FB00F0CDFB010084
:10047000014806F065F910BD6492001010B5CF4C2C
:10048000A54402F017FD00292FD0FA220023920084
:1004900005F096F8CA4A1368C31A312B0CD91060BC
:1004A000D0218020C74A090613788004002B21D16F
:1004B000886101214B401370002007F085FE06A9DA
:1004C0000400002007F0CEFE02AB1B7C032B13D0F0
:1004D000A53B5A1E93410F225B4293431533A3421F
:1004E0000DD98A239B009D4410BDFA21890005F097
:1004F00025F8CFE74861DCE7B34BA342F1D80522EA
:10050000002004A907F06EFE0528EAD102AB1B7A91
:10051000002B3FD0012B00D1CAE0022B00D1EBE031
:10052000032B00D122E1042B47D0A02B00D185E082
:10053000A12B76D0A22B00D199E0A32B00D1C9E04A
:10054000A42B61D0A52B00D197E0A62B00D1CDE044
:10055000A72B00D1F2E0A82B7ED0FE2B00D1AAE180
:10056000502B46D0512B00D1EEE0522B1CD0532BF8
:1005700000D14CE1542B00D163E1552B00D16AE14D
:10058000562B00D14CE1572B00D179E1002007F028
:1005900077FEA6E7042203330693002006A907F09E
:1005A000ADFE02AB1B7AC0E706A801F087FD102262
:1005B00006A9002007F0A2FEE8E7049B02AA019327
:1005C000117B1B0A09061943804806F0B9F800237D
:1005D00001217F4A13707F4A11707F4A1360049B88
:1005E0001A0A019302AB1B7B1B0613437B4A136061
:1005F000D7E77B4C2378002B00D1FBE001222100C0
:10060000002007F07BFEC1E700F0FCFD002302AAFA
:1006100013740020012206A907F070FE02AB1B7ABA
:1006200099E700F073FD002302AA13740122002051
:1006300006A907F063FE02AB1B7A81E700F026FDF6
:100640000123584002AB18740122002006A907F0CC
:1006500055FE02AB1B7A6BE700F068FD002302AA8F
:10066000137406A90122002007F048FE8EE700F06F
:100670006BFD02AB01221874D9E71022002006A9F5
:1006800007F0B0FD102800D02BE702AA107B049BD6
:1006900000061B0A184306A900F0CCFD0023042223
:1006A000002003A9039307F029FE02AB1B7A52E74F
:1006B0004C4806F045F800F0A7FA0422069006A977
:1006C000002007F01BFE0699474806F039F802ABF8
:1006D0001B7A2AE702AA107B049B00061B0A184318
:1006E00006A900F05FFD80229200A0E7049B180A93
:1006F00080B200F02FFD89E7049B02AA0193117BD1
:100700001B0A09061943394806F01AF8049B02AA85
:100710000193107B1B0A0006184386AA06A900F065
:100720007FFA0422039003A9002007F0E7FD039B52
:10073000002B00D035E7842292002EE7049B180A94
:1007400080B200F01BFD61E7152001F0C5FED0234B
:1007500080221B0692035A629A6100F033FF042242
:10076000069006A9002007F0C9FD0FE78424049B2A
:1007700002AA0193117B1B0A09061943A4001C4815
:1007800005F0DEFF2200002006A907F02BFDA042A5
:1007900000D0A6E6049B02AA0193107B1B0A000668
:1007A000184386AA06A900F0A7FA0422039003A919
:1007B000002007F0A3FD02AB1B7AB6E6D8FDFFFFD1
:1007C000449800206C98002015020000D49200107C
:1007D0006F980020699800204C98002048980020CD
:1007E0006A980020889200109C920010A492001039
:1007F000BC920010082001F06FFED02380221B065F
:1008000052009A625B68DB05DB0F2370F6E606A8F0
:1008100001F05CFC102206A9002007F06FFDB5E690
:10082000284A553B1370284A13700022274B1A6040
:10083000049B1A0A02AB1B7B1B061343244A13605A
:10084000A4E606A801F04AFC802206A99200002036
:1008500007F054FD9AE602AA117B049B09061B0AC5
:100860001943012206A801F0EBF80422039003A922
:10087000002007F043FD039B002B00D086E6E3E752
:100880008024A4002200002006A907F0ABFCA042AF
:1008900000D026E602AA049B117B1B0A0906194315
:1008A000012206A801F0C6FB0422039003A9002040
:1008B00007F024FD6AE6074804F0EAFD0021030082
:1008C000080098476F980020699800204C980020F5
:1008D000489800205542000010B502F0EBFA0029BC
:1008E00017D0FA220023920004F06AFE0C4A136823
:1008F000C31A312B0CD91060D0218020094A090677
:1009000013788004002B09D1886101214B401370BA
:1009100010BDFA21890004F011FEE7E74861F4E711
:10092000449800206C980020F0B50F2087B003F0A9
:100930003DFA214805AB04AA03A901F0B5FC002843
:1009400003D11D491D4802F045FE059A04990398FC
:1009500001F06EFC052003F043F8002203001100B3
:100960000090062002F054FE05F0F6FE192001F07A
:10097000B3FDD023802200271B0692045A6200F0A8
:10098000FBF807F0F7FE0E4C0E4E0F4D06F0AEFCD6
:100990002378002BFAD033682A68934209D3277052
:1009A00006F0A4FC2378002BF0D033682A68934229
:1009B000F5D2FFF7D3FCE9E7100F0400EC9200102A
:1009C000699800204C980020489800200048704703
:1009D0004C930010004870476093001070B50028D9
:1009E00025D0032830D8194B8000C658300008F0B5
:1009F0007BFBC0B2041C1F2814D8E4B2002820D00E
:100A00000023134DAA1CF15C01331180D9B20232CC
:100A10008C42F8D8C023013464009B001C4328009A
:100A20002C8070BD1F24E4B20028E9D109E0C12464
:100A3000074D064B02221968A81C05F07DFCA40096
:100A4000EDE7044C024DEAE70020EAE758070020F2
:100A5000FC8900200203000010B51149114808F07C
:100A6000ABFA0121102001F0D5FC00220121102059
:100A700001F0E8FC112001F02FFD0121122001F00E
:100A8000C9FC0121132001F0C5FC112001F024FD57
:100A9000D02380221B0692025A615A6210BDC046C2
:100AA000003FAB0100C0034010B5024808F0FEFA59
:100AB00010BDC04600C00340F0B5012385B06A46B2
:100AC0008000154D1843C0B22B5CD0261370FF2355
:100AD00080275370002302AC3606BF0253809380F8
:100AE00069462200B76106330C4808F06DFB776158
:100AF000A378EB5CA370E378EB5CE3702379EB5CA9
:100B000023716379EB5C63710A236B4458881A88FC
:100B10000004104305B0F0BDA493001000C00340D2
:100B200070B5022682B08000FF2230436E46104B23
:100B3000C0B2185C0C0A307010000840185C0D0C34
:100B4000144070702A40185D8025D024090E9A5CEC
:100B50005B5C2406AD02B070F27033710522694609
:100B6000A561044808F028FB656102B070BDC0466D
:100B7000A493001000C0034010B5142001F0ACFC99
:100B8000D024802324065B0363611520636201F097
:100B9000A3FC80239B0363611120636201F09CFC32
:100BA00080239B026361636210BDC04670B5FFF78E
:100BB0007BFFD024802380252406AD035B03A36143
:100BC0003220A56102F088F8656170BDF8B5D024C7
:100BD00080278025802624067F03AD02B603A76107
:100BE000322002F079F8A5613220A66102F074F893
:100BF00067613220666102F06FF83220656102F0B1
:100C00006BF8FFF729FFF8BD10B5044C20680028E9
:100C100000D010BDFFF750FF2060FAE7A09200203F
:100C200070B50500042016000C00FFF745FF010019
:100C30000420FFF775FF0C206902FFF771FF082001
:100C40000321FFF76DFF0420FFF736FFC3071ED512
:100C500000210C20FFF764FF80239B00E518002192
:100C60000820FFF75DFF1020FFF726FF01C4A54213
:100C7000F5D13400103400210820FFF751FF102077
:100C8000FFF71AFF01C6B442F5D1002070BD02483B
:100C900005F056FDDCE7C046A494001010B5040032
:100CA0000420FFF709FF01000420FFF739FF0020AF
:100CB000FFF702FF082101430020FFF731FF0C205E
:100CC0006102FFF72DFFAA210820FFF729FF552118
:100CD0000820FFF725FF08200521FFF721FF04204A
:100CE000FFF7EAFEC30701D5002010BD014805F05B
:100CF00027FDF9E7A4940010F8B5404D07002868D7
:100D00000C001600002865D0032342142021134252
:100D10000DD000111840022868D00338431E9841B6
:100D200080239B009C464142354801406144380085
:100D300004F004FC002904D13800FFF7AFFF051EC2
:100D400046D10420FFF7B8FE01000420FFF7E8FEBB
:100D500000210C20FFF7E4FE80239B00E51802CC65
:100D60001020FFF7DDFE01210820FFF7D9FEA54284
:100D7000F5D13400103402CE1020FFF7D1FE01214E
:100D80000820FFF7CDFEB442F5D10420FFF794FE12
:100D9000C30723D50C207902FFF7C2FE0420FFF71A
:100DA0008BFEC30725D555210820FFF7B9FEAA21E0
:100DB0000820FFF7B5FE04210820FFF7B1FE04204C
:100DC000FFF77AFE012305001D4018420AD00025D6
:100DD0002800F8BDFFF770FE286095E7094805F088
:100DE000AFFCD7E7074805F0ABFCF1E780214900ED
:100DF0009DE7044805F0A4FCD5E7C046A09200207A
:100E000020FEFFFFA4940010F0B54E46454657461D
:100E1000DE46E0B5150087B01F1C10AB04CB814641
:100E20001E78904612AB13AA12781B780C00019220
:100E300001604560C660002B00D0C3E0714920000E
:100E400007F060FF4B469860052002F0C9FD05F0F1
:100E5000EFF96D4905F0D1F9391C05F0CEF90822FA
:100E60004B4691469B68071C99444A46DB01120396
:100E70001343664A13400393159B654A1A40802327
:100E8000DB051343169AD2031343624A1340149AA4
:100E9000920213438022520313430593002E00D085
:100EA00087E043465A06F8239B051A40E0231B03BC
:100EB0001A434346F8211B0549040B401343802283
:100EC00052021343381C049305F0DAF986B200206D
:100ED000002E0ED0300005F0ABF9011C381C05F0D7
:100EE00086F98721C90505F09CF905F0C9F9C0B25A
:100EF000000236040643029601263200149B370096
:100F00009A4001339A46159B51469F4033008B40CF
:100F100017431F433B002900200007F07FFF3300E9
:100F2000169A2900934020003A009B463B4307F065
:100F3000B7FF394B1598E7187B1E9F4106373900DC
:100F400001F068FA3900169801F064FA3900149833
:100F500001F060FA3900504601F05CFA5046019900
:100F600001F088FA2200802338329B0113435A464D
:100F700029001A6020004A4602AB07F0D5FF43461D
:100F80001F22AE40023B1A406B005B192349DB0075
:100F9000E3181143D833196021490A431A602368C2
:100FA0001E43266007B03CBC90469946A246AB461D
:100FB000F0BD43465A06F8239B051A4080239B0246
:100FC0001A4376E71749200007F09CFE4B469860CD
:100FD000052002F005FD05F02BF90B4905F00DF990
:100FE000391C05F00AF94B469A68071C13000933AF
:100FF000D1011B030B4305490B400393082399467A
:10100000914439E7B89400100024744AFFFFFF9F11
:10101000FF7FF0FFFF83FFFF0000E0AF20E0000054
:1010200040E00000D49400100C2300B589B0069372
:1010300003330593023B04930C3B03930293019308
:1010400007330093FE230022034904489B05FFF762
:10105000DBFE09B000BDC04600003050749800208F
:1010600010B5034B03499A68186807F0BDFE10BD20
:1010700074980020F094001010B502000B000100DD
:10108000014808F081F810BD7498002070B584B054
:10109000FFF7CAFF1A4B01A81B78012103704025F6
:1010A000FFF7EAFF02AC022120002580FFF7E4FFF2
:1010B00023781D42F7D040260425022120002680F7
:1010C000FFF7DAFF23781D42F7D10E4B20001A6894
:1010D000052122601B792371FFF7CEFF6378002082
:1010E000032B02D1A378EF2B01D004B070BDE378BD
:1010F000202BFAD12279044B01301A70F5E7C04653
:101100000C950010189500106898002000B5064B4B
:1011100083B01B7801A801210370FFF7ADFFFFF733
:101120009FFF03B000BDC0461095001000B5054BF1
:1011300083B01B7801A801210370FFF79DFF03B066
:1011400000BDC04614950010014B18787047C0468A
:101150006898002000B5030083B06946064A5BBA70
:10116000128901A802809AB2120A4B718A71032176
:10117000FFF782FF03B000BD1895001000B5030013
:1011800083B06946064A5BBA928901A802809AB286
:10119000120A4B718A710321FFF76EFF03B000BD85
:1011A0001895001070B5144B144C1B68A54480268C
:1011B00000936B460400B6000D0032000021581D5C
:1011C00005F0B4F86B46640420BA020A9A70020271
:1011D0005870120E000EDA70187109496846FFF750
:1011E0004BFF6B4632002800591D05F0A5F88223FD
:1011F0009B009D4470BDC04628950010F8FDFFFF80
:101200000502000070B5932382B06A465B0002219C
:10121000684613804026FFF72FFF012501AC02210D
:1012200020002680FFF728FF23781D42F7D102B067
:1012300070BDC04630B5040009201C4B87B09B69C7
:101240000D000F2200216844019305F06FF86A46F3
:10125000240323BA190A917119025371090E1B0E46
:10126000D17113722900102202A805F065F814212B
:1012700001A8FFF701FF402501246B4602216846C3
:101280001D80FFF7F9FE6B461B781C42F5D1462501
:1012900020246B46022168461D80FFF7EDFE6B4659
:1012A0005B781C42F5D007B030BDC04618970010DF
:1012B000024B034A1361034A1360704731980800D8
:1012C000C0000050D0000050F0B5DE4657464E46F4
:1012D00045468024E0B58B4B93468FB01A68A40432
:1012E000894B03E0013B002B00D1CDE0566826423C
:1012F000F8D0EC24854B03E0013B002B00D1ECE05F
:101300001659022EF8D10C0CA4460C0AA146402412
:101310000443A04645467E4C0B0E675D65465F4024
:10132000E75D6F404D46FFB2E75D6F401D040795D6
:10133000FF25AA464D4653461D402B00079DFFB290
:101340001D432B0045462D062B4365462D062D0CCF
:101350002B430125E75D4F40FFB2E75D09062F43B0
:101360003F0439433F2707401068B0431060694885
:101370005061536151610F2F03D86749BB00CB58AF
:101380009F46062301220592049203920022012126
:101390000292019200920B2009AA07F01DFF00287B
:1013A0002ED10C9B0D9AD90752080A4312BA0D92FE
:1013B0000B9A5B08D1070B431BBA0C930A9B52088C
:1013C000D9070A4312BA0B92099A5B08D1070B435B
:1013D00052081BBA12BA0A9309920A2F1ED8082F74
:1013E00003D8012F5CD0022F1AD15B46002B07D007
:1013F00002AB1D219C4610225846614404F09CFF1C
:10140000002004E00221002013680B4313600FB09A
:101410003CBC90469946A246AB46F0BD292F3FD032
:10142000D2B2BA425CD1202102AB5A7FE35D5A406E
:1014300002ABA25C9B7F534002AAE35CD27F5A407E
:1014400002AB5B18A25C1B785340E15C01232122B4
:10145000194302AB9B181A78914250D15B46002B7E
:10146000CED002AB9C461D2161444A780B78120213
:101470001A438B7800201B041A43CB781B061343B6
:101480005A461BBA1360C2E7EC330121D2582348F5
:1014900005F056F900BE01204042B8E7112371E77C
:1014A000D3B23F2B22D05B46002B10D002AB9C4620
:1014B0001D2161444A780B7812021A438B781B0471
:1014C0001A43CB781B0613435A461BBA13601448C1
:1014D00005F08EF80220404299E70120404296E74D
:1014E000104805F085F802AB1F7F9CE7120A213BEC
:1014F0001A42D8D15B46002BB3D1002087E70A48B7
:1015000002F068F86807002041420F003F420F00D8
:10151000509800102F000300EC9700104497001023
:10152000D4970010B8970010BC97001080211F4B73
:1015300010B51B681E4AC90402E0013A002A29D0EE
:1015400058680842F9D082201A4A400002E0013A65
:10155000002A27D019580229F9D1174A80209A6108
:10156000164AC0049A61E022D2029A61104A02E04F
:10157000013A002A0ED059680142F9D082200D4A62
:10158000400002E0013A002A0CD019580229F9D192
:10159000002009E00532FF3202219A58084805F080
:1015A000CFF800BE0120404210BDC04668070020B1
:1015B00041420F003F420F0080E00700A0200700DB
:1015C00044970010F0B5DE46454657464E46E0B516
:1015D00007218DB0082000F01DFF0121082000F038
:1015E0005BFF0321082000F067FF0721072000F0C0
:1015F00011FF0721062000F00DFF01220021082025
:1016000000F020FF00220121072000F01BFF002234
:101610000121062000F016FF904D2B78002B00D101
:1016200009E18F4B8F4C1A688F4B9B468023C02556
:101630005B0299460093531CD1011B030B438B495A
:101640002D030B4001938A4B0021206803936B46C6
:10165000029507F069FC5B461B688026F8279A46CE
:101660000023760210227F0208A904A80896099791
:101670000B930A9504F060FE5246514608320F3132
:101680000B03D2011A4390464A460492424604A9EB
:10169000059208A81022069504F04EFE4A460892CC
:1016A000424608A90992684610220A9504F044FEB1
:1016B000C022704B92020292039301216B46524664
:1016C000206807F031FC5A4612680023904608A9AA
:1016D000102204A8089609970B930A9504F02CFE93
:1016E000414646460F310B0349460836F6011E4374
:1016F0001022049108A804A90596069504F01CFE82
:10170000494610220891684608A909960A9504F0EE
:1017100013FEC022584B92020292039302216B46A1
:101720004246206807F000FCC8222068534B8425FD
:1017300083501832835018328350E0230268DB0054
:10174000134303600022F0236D00C250EE3B43516F
:10175000BF33FF3300211A0007F0A2FB484B226879
:1017600080265351D025B6002D06092000F0B4FE86
:101770006E623220AE6101F0AFFA32206E6101F08C
:10178000ABFA23683F4A00205A61012252425A6153
:101790005A613D4AC0255A6119683C4A2D060A43E0
:1017A0001A6000210022FFF78FFD0120384908AAA6
:1017B000FFF78AFD089B1B0E1B06AB42F5D10021EB
:1017C000344A0220FFF780FD08AA00210320FFF71A
:1017D0007BFDFF21089B304D1A0E1B0C2F4E2B70EA
:1017E00009041B040B401106327019432C4A0920CE
:1017F000FFF76AFD31782B7809061B04194308AA04
:101800000720FFF761FDFFF791FE8022C8212368C2
:10181000D2025A5018315A5018315A50E022002042
:101820001968D2000A431A600DB03CBC9046994634
:10183000A246AB46F0BD0B4C1A49206807F062FA8D
:10184000094B1949186020689B4607F05BFA044B66
:101850000200186001232B70E8E6C046669800205D
:10186000188F0020680700201C8F0020FFFFFF9FBB
:1018700000200020E7801304C60013040000630169
:1018800001E000004F0003000000FFFF0707000019
:101890000080FF40849800206E9800206D98002002
:1018A000949800205C99001050990010F0B5DE4625
:1018B0004E4645465746E0B5036806008B46150080
:1018C00083B0002B04D003009A680833002AFBD1B0
:1018D00082274D4B7F001C689846E359022B0AD0A3
:1018E0004A4B9A46E159504604F02AFF43461C6889
:1018F000E359022BF6D12200454B28321A60002210
:101900005A609A60434AA0201A61434B434A1E60C2
:101910005A6002229A60424A86211A618027D023A7
:1019200001221B06C005C900BF005A6147509A61D9
:10193000002D60D03B4A3C4B94463C4A053F9146C3
:10194000F422120290469A4600203949394AFF3F54
:1019500008E0604618600120013059609A600C333D
:10196000854228D066461E600028F5D14E46E059D3
:10197000304046463043E05159609A600C33012DA7
:10198000E7D152462C4B18341A6003225C609A60EF
:101990002A4ADA605946112001AAFFF795FC00286F
:1019A00002D1019BD80FC00703B03CBC90469946BA
:1019B000A246AB46F0BD51466B005B191E4A9B0028
:1019C0009B1018341160546093601C4BD360012D40
:1019D000E0D0002229001720FFF776FC0028E3D191
:1019E000594601AA1230FFF76FFC0028DCD1019B99
:1019F000D80FC007D8E7104B0B4A18341A600F4AAB
:101A00005C609D60DA60E4E7680700202C980010B5
:101A100080020050294867004002005098020050A0
:101A2000F9CC1F000F100900AC9600207F00FEFFCC
:101A30007040070002000700000200501940050036
:101A4000F8B5CE464746264B89469C4680B5002AC7
:101A500013D056020400861901278020214D8021D1
:101A6000890088461C6044449D605860DF600435EE
:101A70001033A642F3D11301634400204946186095
:101A800058606046FFF712FF002824D1164BA021B2
:101A90001F6884239B0099460D3BFF3B9C46802397
:101AA00094248022A425DB049846C905A40052048E
:101AB000AD000B591342FCD14B591342F9D14B469F
:101AC000CB581342F5D16346FB58022BF1D1464661
:101AD0007B683342EDD00CBC90469946F8BDC046B9
:101AE00048900020488F002068070020F0B54E463F
:101AF000DE4657464546E0B587B0161E0290EE4AD0
:101B0000059100D168E25307711EDB0F052900D84B
:101B100070E2002B00D15BE21000E84902C0012115
:101B2000844688460024F71AE4489B00E3497D0870
:101B3000D318013403C3A542FBD101233900404629
:101B400099438B0063440C188F4215D0DB49601C0D
:101B50001960864210D9A01C596086420CD9E01C3D
:101B60009960864208D9201DD960864204D905347F
:101B70001961A64200D95961B30019000493E0230A
:101B8000DB025350072E00D937E2CD4CCD4FCE4B60
:101B9000E760CE4F0193BC46E761CD4F1B682762DB
:101BA0006746E762802719000125CA48B846A7633F
:101BB000C94F814603932060029BC848E763C84F22
:101BC00018316060A56022616161A5616162A562F2
:101BD0002363616320646164A564E764012E00D11E
:101BE00065E14F462765B74F9A46E765171D27669B
:101BF0006746E766B64F606527676746E7678027F1
:101C0000BF00BB46DA4447465346E3518423E150C4
:101C10000433E750B04F0433E7500433E05004334B
:101C2000E150AF4F0433E5500433A5656166A56606
:101C30006167A567E750022E00D138E14F460433B3
:101C4000E7500433E0509F4F0433E5500433E7502E
:101C5000A43B9B4693445F46A833E7506746043352
:101C6000E1500433E5500433E750994F0433E75013
:101C700067460433E1500433E5500433E75004333E
:101C80009B468023DB009A465B46029F5744E75001
:101C900047460433E1500433E7508F4F0433E75095
:101CA0000433E0500433E1508D4F0433E5500433E6
:101CB000E750032E00D1FAE04F460433E7500433D7
:101CC000E050804F0433E5500433E750F03B9B462F
:101CD00093445F46F433E75067460433E1500433DE
:101CE000E5500433E7507A4F0433E7506746043336
:101CF000E1500433E5500433E75004339B46C023DE
:101D0000DB009A465B46029F5744E7504746043340
:101D1000E1500433E750704F0433E7500433E05090
:101D20000433E1506E4F0433E5500433E750042E82
:101D300000D1BCE04F460433E7500433E050614F1C
:101D40000433E5500433E7503D3BFF3B9B4693444F
:101D50005F464133FF33E75067460433E1500433B5
:101D6000E5500433E7505A4F0433E75067460433D5
:101D7000E1500433E5500433E75004339B4680239D
:101D80001B019A465B46029F5744E750474604337F
:101D9000E1500433E750504F0433E7500433E05030
:101DA0000433E1504E4F0433E5500433E750052E21
:101DB0007DD04F460433E7500433E050414F0433A5
:101DC000E5500433E750893BFF3B9B4693445F4615
:101DD0008D33FF33E75067460433E1500433E55059
:101DE0000433E7503A4F0433E75067460433E15079
:101DF0000433E5500433E75004339B46A0231B0112
:101E00009A465B46029F5744E75047460433E150E9
:101E10000433E750304F0433E7500433E0500433C9
:101E2000E1502F4F0433E5500433E750072E3ED1E5
:101E30004F460433E7500433E050224F0433E5505B
:101E40000433E750D53BFF3B9A4692445746D9337B
:101E5000FF33E75067460433E1500433E550043361
:101E6000E7501B4F0433E75067460433E150043317
:101E7000E5500433E750C023029F1B01B9469C463E
:101E80008423E1444F469B00E75047460433E1502A
:101E90000433E750104F0433E7500433E0508920F7
:101EA000800021500E4F04302550043027500498F4
:101EB00080190001201815E0AC9600203F100300A7
:101EC0004890002009C81F00680700201948050035
:101ED0006C070020A49800201948C5003804005061
:101EE00015480500049D039BAC4662440260012234
:101EF0008260434A8225C2600022416002614261E1
:101F00006D005A59022A0CD03E4A019F90465959F9
:101F1000404604F015FC3B685A59022AF7D1039356
:101F20000197E0228221039BD202019F9A6149001E
:101F30005A58022AFCD100220197012E43D03100C9
:101F40001720FFF7C1F9002806D007B03CBC904627
:101F50009946A246AB46F0BD002205991930FFF71D
:101F6000B3F90028F1D104218025019B2D041A68C2
:101F7000A0271368FF058B431360234B234E1D607E
:101F80005525234BFD5080239B009C466546214BE5
:101F90001D60214DEB681E40204B33432B61204BCD
:101FA00066461C601F4C5D60996086251C61D023CD
:101FB00001241B06ED005C617E519C6113688B431C
:101FC0000B431360C1E705991820FFF77DF9C8E7B7
:101FD000002194468846A5E5E023DB021360124BFE
:101FE000124C01931B68200003931833190000233F
:101FF000049377E700241300A8E50D4801F0EAFAFE
:10200000194805002C98001090220050FF87FFFF10
:1020100034040000342400508002005000482000A6
:102020004002005039CD1F00680700204890002072
:1020300038980010F0B5D6464F464646C0B582B037
:10204000FFF754FD071E29D1194BA02598461A68A1
:10205000184B94269A46184B80249946ED05B600F5
:102060006404AB592342FCD1A4239B00EB582342C8
:10207000F7D182235B00D358022BF2D15346197853
:102080004B461B7809061B0419430D2001AAFFF7D4
:102090001BF9019BDB041B0F072B06D0380002B095
:1020A0001CBC90469946A246F0BD43461A68D8E744
:1020B000680700206D9800206E98002010B510224F
:1020C000014904F039F910BD8498002010B51022A0
:1020D000014904F031F910BD94980020F0B5802337
:1020E000CE464746424E80B57360424B83B0B360E4
:1020F0000123F3600023306033617361002804D052
:1021000033009A680833002AFBD182243A4D6400D8
:102110002B681A59022A08D0384F1959380004F090
:102120000FFB2B681A59022AF7D11900344A2831BB
:1021300011600021516091603249A0241161324A3E
:102140003249166051600221916031498620116147
:102150008026D02201211206C000B600E40551619C
:102160002650FC2091612B4E2B4A2C4932601A5884
:102170001140F42212020A431A50294A183372609D
:10218000284A0021B260284AF438166053600323BD
:102190009360264BD36001AAFFF796F8002822D15E
:1021A00084239B0099460D3BFF3B9C4680232100E6
:1021B000802294242F68DB04A4259846A4005204AE
:1021C000AD000B591342FCD14B591342F9D14B4688
:1021D000CB581342F5D16346FB58022BF1D146464A
:1021E0007B683342EDD003B00CBC90469946F0BDFD
:1021F00048900020488F0020680700202C9800108D
:1022000080020050294867004002005098020050A8
:10221000F9CC1F00AC9600200F1009007F00FEFFD4
:10222000704007000200070000020050194005003E
:10223000F0B583B005000E00140000F0F3F900289B
:1022400001D003B0F0BD154F01223B0001210097E2
:10225000053001F0DDF933002A0000940121104817
:1022600001F052FD21002800714303F067F90400DA
:102270000C4B002200930221042001F0C9F9230035
:10228000002201210094052001F0C2F93B00022246
:1022900000210097062001F0BBF9D2E7006CDC02B8
:1022A00000800240001BB700F0B5DE4657464E46A0
:1022B0004546E0B5070083B004209B46009101929B
:1022C00001F08EFBFA21890003F038F932238246AF
:1022D000FF33994686005644B6014C4B4C4AF318DE
:1022E000072493420BD901235B429C465346E144A9
:1022F000F61A4B46002BF0D100205AE001242100B1
:102300003000614303F01AF9874259D0631E9846A2
:10231000012CE8D01D0065433000290003F00EF9C0
:10232000874251D0A31E9846022CE7D02D1B2900CE
:10233000300003F003F9874249D0E31E9846032C8E
:102340004BD02D1B2900300003F0F8F8874246D00F
:10235000231F9846042C48D02D1B2900300003F081
:10236000EDF8874243D0631F9846052C45D02D1BBE
:102370002900300003F0E2F8874240D0062C42D01A
:102380003000E91F03F0DAF806248742B7D10029AC
:10239000B5D101230724984673019B1B9B009E190E
:1023A000009BF6001E60019B42461C605B460120BC
:1023B0001A6003B03CBC90469946A246AB46F0BDBD
:1023C0000029A3D1A046E7E70029ABD1E4E7002923
:1023D000E2D0E31E9846032CB3D102248FE70029F4
:1023E000DAD0231F9846042CB6D1032487E70029AE
:1023F000D2D0631F9846052CB9D104247FE7002969
:10240000CAD0062CBCD1052479E7C04680E5F9FF87
:10241000804F1200094A830094464022634410B55D
:102420001C68C0006240C024144080225201134343
:102430001C60034B9C466044416010BD04C00140D9
:10244000004001400A4B80009C4604236044002960
:1024500001D00C230821002A00D10B000268534050
:102460000C221A4080235B01184302607047C0466B
:1024700004C00140074BC0009C4660440368090249
:102480005940C0239B00194080235B011843016021
:102490007047C04604400140064B80009C466044A3
:1024A00003684B400121194080235B011843016000
:1024B0007047C04604C00140064B80009C46604403
:1024C0000368090159403023194080235B011843F8
:1024D0000160704704C001400123D02283401206EE
:1024E00093629361094A83009446402263441968C9
:1024F000C0004A40C021114080225201134319609C
:10250000034B9C46052360444360704704C0014070
:1025100000400140EFF3108072B6034A1368002BAD
:10252000FCD0BFF35F8F70472C0100D0BFF35F8FEB
:102530000022024B1A6080F3108870472C0100D0F3
:10254000F8B5EFF3108772B60E4E3368002BFCD04F
:10255000BFF35F8FCB08C4180725A446C45C0123D2
:102560000D40AB4018002040234208D1624623436F
:102570001370BFF35F8F306087F31088F8BD1000D1
:1025800001F028F82C0100D0F8B5CE4647468C461D
:1025900080B5EFF3108872B6214D2C68002CFCD06A
:1025A000BFF35F8F9A422CD8D4080721055D061926
:1025B000012411408C402C421FD007218946063946
:1025C00009E0D408055D06194C460F001440A740E9
:1025D0003C002F4211D001329342F2D201204042FE
:1025E000BFF35F8F00220E4B1A6088F3108800281B
:1025F0000FDB0CBC90469946F8BD2C43100034709C
:10260000EEE7BFF35F8F00232B6088F31088012073
:1026100040426346002BECD0089800F0DBFFC04638
:102620002C0100D0024B18688007C00F7047C046CD
:1026300000C006400021044B044ABFF35F8F02C371
:102640009342FAD17047C046000100D0800100D00B
:10265000044A1078431CDBB2172B00D910231370E7
:102660007047C0467007002000B5054B83B00100DD
:10267000009318221F230348FFF786FF03B000BD15
:102680008C990010148F0020F8B5040006200D006E
:1026900001F0A6F9002845D02B4B2C49E3185A42EB
:1026A00053418022D20394465B421340284A63443C
:1026B0001360284A136018008A689043FBD1224BAC
:1026C0008021E3185A425341234A5B004900062007
:1026D000995201F085F92900C00002F02FFFC309CB
:1026E00021D140270122260080256262A3620023B7
:1026F0002C36AD0135432B60062001F071F939000D
:10270000800002F01BFF6023E26A53406E221A40F1
:1027100080235B0133431A60104B236310232B602B
:102720000D3BA364F8BD0E4A934203D900230D4F1D
:102730000D4AD8E77F221040013040089F011A005F
:102740003F180300CFE7C0460080FCBF00C0004038
:1027500000E0004000F00040A898002001030000C5
:10276000FEFF0000C0FF3F00FFFF000083680B4832
:1027700010B5844661446244090112019A1859183F
:1027800054684B6801209C4201D802D00020C0B29E
:1027900010BD12680B689A42F9D8F7E7FFFFFF0FE8
:1027A0000A4B1968EFF3108072B60A68002AFCD051
:1027B000BFF35F8F1B68BFF35F8F00221A6080F347
:1027C000108840BF002000217047C046409800207C
:1027D000F8B557464E464546DE46E0B5434D814680
:1027E0008A466A68EFF3108872B61368002BFCD033
:1027F000BFF35F8F2E68B47B002C3ED06700336838
:102800003F19033FDA195378B373002B00D1F373E8
:102810000023937053701370A968354A8C4649465B
:10282000A218120162441160514651603149D360CF
:1028300091603268D219937053701370737B9B460A
:10284000002B35D022001900B068736898473268B1
:10285000002820D05B4658465B005B44D719033BF9
:10286000B870D118D35C002B00D07B705B460C7025
:1028700073735C451DD0002626E06B68BFF35F8F45
:102880001C6088F31088012040423CBC9046994669
:10289000A246AB46F8BD5B465B005B44033BD318E6
:1028A0009C70D119D25D002A00D05A705B460B7023
:1028B00074734A465346287D00F05CFB061EDAD04E
:1028C0002100286800F0CEFDEB686A681B19013B07
:1028D0001B78BFF35F8F0021116088F31088002000
:1028E000002ED2D118022043CFE7C0467407002043
:1028F000FFFFFF0FA1270010F8B5574645464E468B
:10290000DE46E0B599460CAB19780DAB1B78050097
:1029100090469A460768002912D1BE7B002E45D00A
:1029200074003B68A419033C1B195A783100BA7330
:10293000002A00D1FA7300229A705A701A7003E0CC
:102940000E004C006418033C2C4B00229C46AB68E4
:1029500061449C464346090161440B604B464B6011
:102960000A9B8B600B9BCB603B681B199A705A705B
:102970001A707B7B9B46002B2CD032005946B868DE
:102980007B6898473A68002817D05B4658465B003A
:102990005B441419033BA070D118D35C002B00D00A
:1029A00063705B460E707B73B34514D030003CBC43
:1029B00090469946A246AB46F8BD5B465B005B4439
:1029C000033BD3189E701119125D002A00D05A7073
:1029D0005B460B707E7342464B46287D00F0CAFA78
:1029E000041E06D05346002B03D13100286800F0A6
:1029F00039FD0E9B002BD9D01C70D7E7FFFFFF0FCE
:102A0000F0B5DE464E46574645460023E0B58DB04C
:102A10000A936B4B8200D3580B90994600239B4638
:102A20004B46079300F046FA079C06000F006268C9
:102A3000EFF3108572B61368002BFCD022000794C8
:102A4000BFF35F8F2468637B9946002B67D0926841
:102A50005C4B90464B441B01984443461A685B68A4
:102A600010001900801BB94100295FDD0B9800F0B0
:102A700081FA00230026984600279A46079C63683F
:102A8000BFF35F8F5A461A6085F310885346002BB8
:102A900008D10028C6D10DB03CBC90469946A2464C
:102AA000AB46F0BD0A9B414618024B461843D0473F
:102AB000089009916268EFF3108572B61368002BD5
:102AC000FCD00794BFF35F8F0899099A002A48DB6E
:102AD000114303D0079B1B69002B5DD1079B1B682B
:102AE000DA7B002A07D051008A1819688C464946BB
:102AF0006244033A51704A46DA734B46079A013BE7
:102B0000D168CA5C0132CA545B46079A13615368A4
:102B1000BFF35F8F5A461A6085F3108882E700235F
:102B20000026984600279A460020A7E7002901D1F1
:102B300000289BD10021200000F0F6FB43461E68D0
:102B40005F689B68079A9A464346DB689846D36855
:102B50004B44013B1B780A931B0203431361002083
:102B60008CE72369002BB9D033003C005B1A9441F9
:102B70001A002300A74219D89F421BD0594604913E
:102B8000012103914946029141460191514607981E
:102B90000091FFF7B1FEB7E700F08CF9089A099BA6
:102BA00006000F0092197B419942E5D90122524259
:102BB000D317E3E79642E1D901225242D317DDE76A
:102BC0002C980020FFFFFF0F10B5124C6368002BFC
:102BD00004D00A21104800F05FFA10BD23000F4A0C
:102BE0001021206800F0BEFA032000F057F90320FE
:102BF00000F032FA03200A4900F076F9FFF728FDC9
:102C0000084B9C46032360442375074B800060609B
:102C1000DC60DEE774070020409800206D2700107C
:102C2000012A0010400000342C980020F0B5040068
:102C30000D0006267642F717C64636196F4100B5D5
:102C40008F4213D810D000F035F932003B00121A31
:102C50008B41002B14DC002B37D02900200000F022
:102C600033F904BC9046F0BD8642ECD9002600271B
:102C700000F020F932003B00121A8B41002BEADDF4
:102C800030003900FFF7A4FD0028E6DB002398465A
:102C9000BC460F4A0F4F7B6A9C4504D8B96A8E42E6
:102CA000DBD99C45D9D11168EFF3108072B60B685F
:102CB000002BFCD0BFF35F8F1368BFF35F8F4146DB
:102CC000196080F3108820BFE5E7002AC5D0D7E758
:102CD000409800200040054070B5060000F0EAF87A
:102CE000FA2204000D00002330000021920003F0BE
:102CF00061FA001969418D4205D802D0FFF796FFAD
:102D000070BD8442FAD901204042C117F6E7C0469F
:102D1000F8B5CE46474680B506000C00FFF758FDD3
:102D200000280CDC2D4B0020596A8C4203D89B6A8A
:102D30000130B34245D30CBC90469946F8BD20BF44
:102D4000274D6A68EFF3108772B61368002BFCD02A
:102D5000BFF35F8F2B68C1B29C465B7B8B4235D043
:102D6000FF2303405A0091466246126899449046F8
:102D70004A464244033A9278002A1DD0EA68000A83
:102D800090464344013B1B78C0B2834221D06B681C
:102D9000BFF35F8F00221A6087F310880F4A00206C
:102DA000536A9C42C7D8926A0130B242C3D2E41A35
:102DB000601E8441E0B2BEE72B699842E7D12A61E8
:102DC000E5E7641A601E8441E0B2B4E7FF230340E4
:102DD000D4E7604600F046FBD9E7C0460040054016
:102DE00074070020F0B5D6464F464646C0B5EFF30F
:102DF00005833F22134018001038EFF3108C72B691
:102E0000204D2A68002AFCD0BFF35F8F01221100F9
:102E100081401D4C884661631C4917000E788A4624
:102E20003100C1400F400A4215D019498200646A3E
:102E300051588C4219D3174BD25843469E435346A0
:102E40001E70BFF35F8F00232B608CF31088002A65
:102E500006D0904704E0BFF35F8F2F608CF310889B
:102E60001CBC90469946A246F0BD0B4A9B0090467A
:102E700043441A681A60BFF35F8F00232B608CF302
:102E80001088EDE7280100D0004005407098002030
:102E900050980020E88A0020D03F054010B501007E
:102EA000024A0348FFF74CFB10BDC046A89900102A
:102EB00067980020034B596A0A00986A596A8A4247
:102EC000FAD1704700400540064A536A9942FCD83F
:102ED00007D1044B02E05A6A914202D19A6A8242B7
:102EE000F9D370470040054070B504000D00EFF3C2
:102EF000108672B61A4A1368002BFCD0BFF35F8F9E
:102F0000002D1BD0200000F083FD164981420AD01D
:102F1000200000F085FD0121200000F067FD012365
:102F2000A340114A1360114BA400E550BFF35F8F1B
:102F300000220B4B1A6086F3108870BD0B4BA20069
:102F4000D5500122A2400A4920000B7893430B7010
:102F5000044900F08FFD0021200000F047FDE5E767
:102F6000280100D0E52D001038600540E88A0020D7
:102F700070980020F0B54F46D6464646C0B50700CB
:102F8000304C616A0D00A66A616AA942FAD18B428F
:102F900008D805D001201CBC90469946A246F0BD39
:102FA000B242F7D9EFF3108972B6274801680029B9
:102FB000FCD0BFF35F8F01252449BD408C460978C2
:102FC000204C0E002E438846F1B28A466146504698
:102FD0000870391D1E48890065630A51B9000B50FD
:102FE000216A0020294219D0616A0800A66A616A34
:102FF0008142FAD18B4219D801D1B24216D8C245CA
:103000001DD0104B1F201D625D6301230740BB4094
:10301000104A1E381360634642461A70BFF35F8F32
:103020000022094B1A6089F31088B4E70020BFF32F
:103030005F8F0022044B1A6089F31088ABE70120F0
:10304000ECE7C04600400540280100D07098002001
:103050005098002080E200E010B5EFF3108472B6C3
:103060000A490B68002BFCD0BFF35F8F012383401C
:10307000074A0848136202789A430270BFF35F8FD1
:1030800000230B6084F3108810BDC046280100D0D7
:103090000040054070980020024B9C466144890026
:1030A000016070474000003410B50400FFF7D0FA0B
:1030B00001002000FFF7F0FFFF232371BFF35F8FB4
:1030C00010BDC04610B50400FFF7C2FA0100200091
:1030D000FFF7E2FFFF23A380BFF35F8F10BDC04661
:1030E00010B504000120FFF7BFFA034BC3189B0083
:1030F0002360BFF35F8F10BD4000003470B5050042
:103100000E001400002924D0002A24D080686B68A7
:103110009847296800280ED063001B197200033BF2
:103120009219CB18033A9E7088188A5C002A14D131
:10313000047030000EE073009B196200033B12190B
:10314000CB18033A9C7088188A5C002A00D05A7009
:103150000670200070BD0800FCE75A700470300053
:10316000F8E7C04630B583600023CCB24373013327
:10317000047342608373C4730D000068012C06D988
:10318000421C0133DBB2137003329C42F9D1FF21A0
:1031900029404B005918002340180338437030BDB4
:1031A000F8B5CE46474606000C0080B5002907D08A
:1031B0004D0003686D18033D5A195778002F04D14C
:1031C00020000CBC90469946F8BD7900C919033916
:1031D0008846434459788946002159705170736874
:1031E0003A002100806898473368002814D042468E
:1031F0009A18947059195B5D002B00D053700F70B2
:10320000270049463000FFF7CBFF390002003000AD
:10321000FFF774FF0400D3E7424641465D19AF70E3
:103220009A185B5C002B00D06B701470E9E7C04605
:10323000F0B557464546DE464E46E0B50D006B00FC
:1032400001685B19DF1E0400C85D83B00192CA19D2
:1032500000284CD043001B18033BCB185E78B446C3
:10326000002E16D1019E002E3ED0E67B002E04D00B
:1032700073009B19CB18033B5D70E57300282FD1B9
:103280000023537003B03CBC90469946A246AB461F
:10329000F0BD72006244033A89184A7890460022D1
:1032A0004A7091465A70010032002000FFF726FF55
:1032B00043468246002B07D05B0021684344033B12
:1032C000CB185A78002A16D1424651462000FFF703
:1032D00015FF2168019BCA19002BC6D10028CFD049
:1032E00043001B18033BCB1800219970C8E7019BD2
:1032F000002BBAD1C4E75000801803380918487869
:10330000834648464870587041462000FFF7F6FE55
:10331000594680462000FFF743FF41460200200047
:10332000FFF7ECFE8046CFE7F0B54E464546DE4659
:103330005746E0B5467B040075000068AD19033DB3
:1033400083B00191415D421900294ED04B005B18BA
:10335000033BC3185F78BC46002F18D1019D002D98
:1033600040D0E57B002D04D06B005B19C318033BF4
:103370005E70E673002931D1002330005370617311
:1033800003B03CBC90469946A246AB46F0BD7A00DD
:103390006244033A80184278934600224270914674
:1033A0005A7020003A00FFF7A9FE5B468046002BCA
:1033B00007D05B0021685B44033BCB185A78002A96
:1033C00017D15A4641462000FFF798FE019B0100A5
:1033D00020684219002BC4D10029CDD04B005B18C6
:1033E000033BC31800209870C6E7019B002BB8D19F
:1033F000C2E75000801803380918487882464846CA
:103400004870587059462000FFF778FE53468346AF
:10341000002B07D05B0021685344033BCB185A783C
:10342000002A06D1594652462000FFF767FE834620
:10343000C7E7500080180338091848464F7848708D
:10344000587051462000FFF759FE39008146200090
:10345000FFF7A6FE494602002000FFF74FFE824616
:10346000E0E7C04670B5040000292CD0437B8B42B6
:103470002ED0056848004018033828188278002AA2
:1034800021D053009B18033BEA5CEE188A4202D11C
:103490001BE0002A08D053009B18033BEB185A7816
:1034A0008A42F6D142785A70002301228370437019
:1034B0002000FFF7BDFE617B02002000FFF71EFE2B
:1034C0006073012000E0002070BD43783370EBE7AB
:1034D00001221900FFF7ACFE60730120F4E7C0463B
:1034E0002C4B2D4A70B51A602C4A2D4B2D491A6071
:1034F00010008B689843FBD12B4C2C4B9C4209D27B
:10350000013B1D1BAD080135AD002D1908CC9847B6
:10351000AC42FBD100F006F9254A214B1A60214A42
:103520009368DB018033FBD14022224B224C234D98
:103530009A675A671A67DA66AC4208D22368200095
:10354000002B21D00834FFF7BDFDAC42F6D31C4C54
:103550001C4DA168C022280002F0EEFEA560FFF716
:1035600069F800F0BFFBFFF72FFB174C174B9C428D
:1035700009D2013B1D1BAD080135AD002D1908CC4A
:103580009847A542FBD170BD0834FFF78DFDAC42D2
:10359000D4D3DCE700E00040BFCDFBFEFE7F3C0063
:1035A00000F0004000C000405808002068080020DB
:1035B000FFFFFF0100F001405008002058080020E4
:1035C00000ED00E000000020680800206C080020EA
:1035D00000BEFDE70FB400B5084883B003F008F85B
:1035E000049B002B07D005A91800019101F02AFFC8
:1035F000034802F0FDFF00BEFDE7C046CC99001075
:10360000A092001010B50148FFF7E4FFDC9900100C
:10361000F0B54546DE4657464E46E0B583B00192CA
:103620000C9A050088469A4200D974E01A0E934617
:103630001E023000002359460C9A01F0C1FF374B9F
:103640006C009C466419A4006444636807008342CC
:1036500000D260602B1FDBB29946012B35D9C02305
:1036600080229B01234312011A602D4BAD00595952
:103670009A46002905D0586901F060FF01300138F1
:10368000FDD1019A236852015340E0221A40802361
:103690005B0123431A604A46012A2FD980238022E6
:1036A0009B01234312011A60300000233A0059465F
:1036B000676001F085FF53465851012003B03CBCC0
:1036C00090469946A246AB46F0BD4346012BC6D173
:1036D000C02303229B0123431A60023AA3681A42C3
:1036E000FCD0019A236852015A40E0231A408023FB
:1036F0005B0123431A600A4AAD00924642462168A4
:10370000514003220A401A60012243469A40A368AE
:103710001A42FCD0C2E70020D0E7C046008000403B
:10372000208F002030B50C2083B000F04DFBFEF759
:1037300079FF00280ED0944B944A1A605A609A6020
:10374000DA601A615A619A61DA611A62904A5A62C1
:1037500003B030BD8F4CA06700F03EFB01228E4BC2
:103760001A60636C012BFCD103228C4B1A60894ACE
:10377000936B012BFCD102240121894A894805332E
:10378000009400F0C1FA0523874A0121874800947C
:1037900000F0BAFA864B5A68FF2A02D880225200FB
:1037A0005A608022784C7D4B21691201804D1A604D
:1037B000002905D0606901F0C1FE01300138FDD15A
:1037C000E0217B4B02201A681140802252012A43DB
:1037D00011601968484003210140116004219A6872
:1037E0001142FCD08022802192012A4309011160FC
:1037F000802252005A606F4B23616F4B5968FF293A
:1038000000D85A6003226C48634B01211A60020001
:1038100093681942FCD0E02513681D4080235B01AA
:1038200003431D6012684A400321114019600221C0
:10383000614A93681942FCD0802380219B01034395
:103840000901196080215D4B4900516063615C4B47
:103850005A68FF2A00D8596080225A4BE169120148
:10386000574D1A60002905D0606901F067FE0130EC
:103870000138FDD1E02252490B681A4080235B01D8
:103880002B431A60802380229B012B4312011A6074
:1038900080223E4B52004A60E3614B4B5968FF293E
:1038A00000D85A608022494B216A1201464D1A60A5
:1038B000002905D0606901F041FE01300138FDD1D9
:1038C000E02241490B681A4080235B012B431A60B8
:1038D000802380229B012B4312011A6080238022C7
:1038E0005B004B60294BD2022362394B59689142ED
:1038F00000D25A608022374B616A1201344D1A603F
:10390000002905D0606901F019FE01300138FDD1B0
:10391000E0222F490B681A4080235B012B431A6079
:10392000802380229B012B4312011A608023DB023B
:103930004B60174B6362284B5A68FF2A02D88022DB
:1039400052005A608022254BA1691201224D1A6053
:10395000002905D0606901F0F1FD01300138FDD189
:10396000E0221D490B681A4080235B012B431A603B
:10397000802380229B012B4312011A6080235B006D
:103980004B600E4BA361E3E6208F0020006CDC024D
:103990001BB70000008000403CB0004030B0004049
:1039A000002F68590080024000389C1C00C0024073
:1039B00030800040001BB7003C8000404059730736
:1039C0005480004054B000406080004060B000402F
:1039D0006C8000406CB000404880004048B000401F
:1039E000014B8000C0587047208F00200123834086
:1039F000002904D0034A1360034A13607047034A46
:103A00001360FBE780E200E000E100E080E100E01D
:103A1000024B10309B688000C058704700ED00E0FA
:103A200070B50D00EFF3108672B60F4A1368002BC5
:103A3000FCD0BFF35F8F0D4B10309B6884001B5987
:103A40000B4A934203D09D4201D0FFF7DBFD074BA9
:103A50009B681D51BFF35F8FBFF35F8F0022024B46
:103A60001A6086F3108870BD240100D000ED00E0DC
:103A7000CD010010F0B5DE4657464E464546E0B54E
:103A80000C0083B0EFF3108A72B65B4A1368002B08
:103A9000FCD0BFF35F8F1022914681444A46574BBA
:103AA00096009B689D59564B98469D4205D0A5426D
:103AB00016D0544FEB1B2F2B14D9504B9B689D51A4
:103AC000BFF35F8FBFF35F8F00224B4B1A608AF307
:103AD000108803B03CBC90469946A246AB46F0BD68
:103AE0001D00EAE7012383409B465A46464B1B686C
:103AF0001A4000925A46454B1A60BFF35F8FFCF79D
:103B0000B2FB0190002803D0814501D0FFF77AFD78
:103B100001232A009A4313003D49DB1B5B415943B3
:103B2000090D93689C4208D15BE043001B189B0081
:103B3000FB189868A04211D01A00062010560028E1
:103B4000F3DA009B002B05D05A46324B1A602E4BFD
:103B50001A60B2E75A462D4B1A60AEE70620185697
:103B6000002822DB4200111889007C188846A168D1
:103B70009960E179D971062161569971A1797F29FE
:103B80001FD8A488F91A6405241544440919E024AF
:103B90000905490D24022143998012181E4B9200F9
:103BA000BF181A781870BA71CBE7019800280BD1AA
:103BB000FF30907119489080174A107811709871F1
:103BC000BFE7BD210902E7E7154A1649D21A083AAC
:103BD0005002400D01439980134952080A43DA808C
:103BE000AFE70620105613000028BBDA019A002A1E
:103BF000EAD14546E0E7C046240100D000ED00E0F0
:103C0000CD0100109C07002000E100E080E100E011
:103C1000AAAA000080E200E06B98002000BDFFFF30
:103C2000D607002000F0FFFF00F8FFFFF8B50125E0
:103C300004000543FCF717FB0300EFF3108672B690
:103C400021490A68002AFCD0BFF35F8F1F4A200079
:103C50001F49801A40414143090D1E489B00876857
:103C600049B2FF58AF421CD00623D3568B421CD01A
:103C70001223D3568B4222D01E23D3568B4220D000
:103C80002A23D35603208B4210D0134B1A78197075
:103C9000A271BFF35F8F00220B4B1A6086F310886E
:103CA000F8BD82680D48D050EFE7002043001B1894
:103CB0009B00D218FF239371094B9380E5E7012005
:103CC000F4E70220F2E7C046240100D09C07002060
:103CD000AAAA000000ED00E06B980020CD010010C2
:103CE00000BDFFFF054B064A1360064A1360536090
:103CF0009360D360136153619361704780808080CB
:103D000000E400E004E400E0F8B504000C20170033
:103D10001D000E0001F012FC4101091A8B01591A15
:103D2000C90009188901380001F008FC069A2B0423
:103D3000120313432268002A21DB184AA2185142B9
:103D40004A41802149018C4652420A40144962444A
:103D50000A6014490A60144917008D68AF43FBD10B
:103D6000C021221D8901114321222660A0600A6022
:103D70002268002AFCDAE36008230B60F8BD3F22CA
:103D800021680A40B242D8D1A2681205120D8242BF
:103D9000D3D1E268002BD0D1F0E7C0460040FDBF90
:103DA00000E0004000F0004000C00040044B000173
:103DB0001B685840F0231840024B18607047C046FB
:103DC00000400640005006408023024A9B00034307
:103DD000D362704700800540AA23064A1B01136086
:103DE0002F230549D360054B19605368002BFCDA7B
:103DF0007047C0460040024000B0FA000060024038
:103E00007047C046F8B557464E46DE464546E0B5D3
:103E10001F000A9B05009B460D9B0E009146924693
:103E20009B0718D10B9B0C9A934214D213000B9A48
:103E3000B8469B1A4B444C460F0006001D0022005A
:103E40004346013439002020B047AC42F7D1AA469E
:103E500035003E0047460B9B002B38D09A441C008F
:103E6000D04653461A1B5B46013C185D31003B00AF
:103E7000A847002CF5D10D9B9B0721D543464A4608
:103E80009C1A0C9BA3421BD93A009A464F46914676
:103E9000E2194B46310020200134A8475445F7D39E
:103EA00043460C99DB1B0133B9460022994203D3E8
:103EB00043464A1E4A44D21A434690460133984428
:103EC00040463CBC90469946A246AB46F8BDD0461B
:103ED000D1E7C046F0B54F464646D646C0B584B099
:103EE00098460EAB1B78129F994694460D9C109BEA
:103EF000119EBA0725D4002E69D19C4200D3C2E09E
:103F000001223A4092461F2C00D9BBE00C9A551E64
:103F1000302201E0202C03D001342A55A342F9D8E5
:103F20005246002A0DD0B4420BD21F2C62D80C9AF4
:103F3000551E302201E0202C5CD001342A55B442B9
:103F4000F9D1FA0635D57A055DD4002C57D10F9BEF
:103F5000102B00D17CE00F9B022B00D18DE0302391
:103F60000C9A012413704B46002B27D02D230C9A5A
:103F7000135501340C9B6246009303974346029607
:103F80000194FFF73FFF04B01CBC90469946A2463F
:103F9000F0BDBB0663D4202CECD00C9B1A19013465
:103FA00078231370202CE5D030220C9B1B191A703B
:103FB0000134202CDED04B46002BD7D17B0735D4E3
:103FC0003B07D7D520230C9A13550134D2E70122A1
:103FD00015003D40AA463A4220D04A46002A2AD13E
:103FE0000C323A4227D19C429DD21F2C00D88DE73B
:103FF000202E19D92024FA06BCD57A0503D4A34271
:104000001BD0A64219D00F9B102BC2D0022BC9D1B6
:10401000202CAFD00C9B1B19013440E09C4200D3F4
:104020008FE71F2C00D871E720248AE72B230C9AF6
:10403000135501349EE7013ED5E7631E012C00D1E4
:1040400085E70F9A102A20D0022A25D01C00ABE762
:10405000BB060DD478230C9A01241370A4E7202CFE
:1040600000D187E758220C9B1B191A70013499E77D
:1040700058230C9A0124137096E70C9A603301249C
:10408000137091E7202400265BE7023CBA06E9D4CE
:104090000C9A12191C0083E70C9A92465344622230
:1040A0001A707FE710B5002800D110BD02F04EFA5B
:1040B000FBE7C0460B0010B5002802D049681B681A
:1040C000984710BDF0B5DE46574645464E46E0B52A
:1040D0009BB09B46249B0A909846259B0B910C9283
:1040E0004046424619009A4601F0F9FC002800D0EB
:1040F000E8E00122404651467F4B524201F0EAFC83
:10410000002800D0DEE00122404651467B4B52425F
:1041100001F0CAFC002800D0D4E000220023404671
:10412000514601F0C1FC002800D0CAE15346C14607
:1041300009938023289ADB001A400E92289A1A428B
:1041400001D1062326934C46099B234300D0D9E096
:10415000289B002600271B0500D4AEE100230D9309
:10416000269B19000D9B994200DCB0E1C81A431E42
:1041700026938023289ADB001A43002300252892E7
:104180000D93279B0024AB4200D95C1B0223289A85
:104190001A400E92289A134203D06B426B415B4245
:1041A0001C400D9B002B07D04846099932003B006C
:1041B00001F019FC81460991002200234046514636
:1041C00001F072FC002805D0802000068446099981
:1041D00061440991289A4A4B0A9E13404A46049327
:1041E000269B0B990293099B039400920193300044
:1041F0005B460C9A884600F0A1F90400002D72D0AD
:10420000289B220098061F23C017984341465B460F
:104210006530B0470D9B671CDA179C18DB0F98467A
:104220006B1E99460025544001E0202D13D00AAAA8
:1042300094461F23200063440A2101355E1901F0D2
:104240007DF93031317020000A2101F077F9260024
:104250000400092EE9D8052306934B460593002355
:1042600004930A33039343463A000A9E0B9F02933A
:1042700012AB009339005B4630000195FFF72AFE30
:104280000E9B0400002B2ED00C9B279AC51AAA4225
:1042900029D93C00814698461700434621005A1907
:1042A00020205B460135B047AF42F6D84C460C990A
:1042B0002798631A01330022984200D30AE101349F
:1042C000141910E0289B42460493279B0B990393F3
:1042D000269B0A9802935346009201935B460C9AE0
:1042E00000F02CF9040020001BB03CBC904699461D
:1042F000A246AB46F0BDC046FFFFEF7FFFFFEFFFDA
:10430000FFF7FFFF764B099D9C466800400D604417
:1043100001F0F8FB734A744B01F083FB734A744B52
:1043200001F058FB2B03734A1B0B1A4306000F00C6
:10433000714B110048460022099501F042FB6F4A7B
:104340006F4B01F06EFB02000B003000390001F0F2
:1043500041FB01F0EFFB0D9001F0D4FB694A6A4B81
:1043600004000D0001F05DFB0022684B01F032FB00
:1043700001F0E0FB664A0600664B2000290001F0D0
:1043800050FB040030000D000F9601F0BBFB624AA9
:10439000624B01F046FB02000B002000290001F0F7
:1043A00010FB02000B0006000F0001F03AFB320088
:1043B00004000D003B003000390001F00BFB00222F
:1043C00010901191564B2000290001F00CFB0022A7
:1043D000544B01F0FFFA02000B002000290001F00D
:1043E00002FB0022504B01F0F5FA02000B00200006
:1043F000290001F0F8FA0D00802132003B00040092
:10440000C905002001F0DDFA02000B0020002900A0
:1044100001F0E0FA02000B001098119901F0E3FAA4
:104420000022344B01F0D6FA404A0F9B9446634475
:1044300000221B0501F0F5FA06000F0002000B0038
:104440004846099901F030FB00280AD00D9B300046
:10445000013B39000D930022324B01F0C4FA0600F3
:104460000F00C6250D99330063318D42AD41289967
:104470006D420435090500D483E63B4300D16FE665
:10448000099C484621002A4A2A4B01F01BFB0028C0
:1044900008D0002248462100274B01F005FB0028E8
:1044A00000D05DE6269B002B00D16AE60E9B5A1ECB
:1044B0009341269AD31A269363E6002304250D938D
:1044C0005FE680231B065344C146099331E600236F
:1044D00026934EE60A008446013A6244121BEEE639
:1044E00001FCFFFFFB799F501344D33FB3C8608B9F
:1044F000288AC63F0000F03F0000F83F61436F6329
:10450000A787D23F71A379094F930A400000E03F8B
:104510001655B5BBB16B0240EF39FAFE422EE63FAD
:1045200000002C400000244000001840FF03000061
:104530002D431CEBE2361A3F80842E41F0B54E46E7
:10454000DE4657464546E0B597B09946209E219FE6
:10455000229B8346984607910C923B003200300024
:10456000390001F0BCFA002800D0C1E1012230007E
:104570003900CA4B524201F097FA002800D0E0E01F
:10458000012230003900C64B524201F0A3FA002844
:1045900000D0B6E0002230003900C24B01F09AFA98
:1045A000002800D098E0002230003900BE4B01F016
:1045B0007BFA002800D08FE0002200233000390071
:1045C00001F072FA002800D0B0E000230D93249B84
:1045D0005B0501D40623984608AB9C4617220024AD
:1045E00030234146624404E0013413550139202C44
:1045F00001D00929F8D888463000390001F09AFA2C
:104600004346DA00A94B05009B181A685B680892BC
:10461000099301F077FA02000B003000390001F035
:10462000D0F9089A099B01F0FCF90A900B9101F06E
:10463000A5FA824601F062FA02000B000A980B9973
:1046400001F0BFF900229A4B0A900B9101F042FA57
:10465000002800D1C0E001239C46E244504601F00E
:104660004DFA02000B000898099901F023FA00287E
:1046700002D000239A4601354346002B69D008AB8F
:1046800017269C4608956644554614E001235B4274
:1046900043440A2128009A4600F050FF013430318B
:1046A0003719397028000A2100F048FF092D00D879
:1046B000D5E0D0460500202CE8D10323249A1340EE
:1046C000012B00D100E10EAB9846249B019403938B
:1046D000239B029343461EE0249B58460493239B4E
:1046E00000960197039343460C9A029307994B4611
:1046F000FFF7E8FC17B03CBC90469946A246AB4693
:10470000F0BD249B5B070ED403226A4B24990192CF
:10471000039123990291009358464B460C9A0799AE
:10472000FFF770FBE6E70422634BEFE73B00320044
:104730000020002101F045F9012306000F000D9330
:1047400045E7249B0393239B0293042301935B4B34
:10475000E1E7280001F0D6F902000B003000390033
:1047600001F02FF9524B002206000F0001F09CF9D6
:104770000EAB984600280AD10022300039004C4B7D
:1047800001F0A8F9002802D1EB0700D50135202C53
:1047900032D008AA94461723280063440A21013422
:1047A0001E1900F0A3FE3031280031700A2100F0FC
:1047B0009DFE051EEBD10323249A1340012B00D14B
:1047C00091E01F2C00D980E70D9B002B3BD02D23BF
:1047D00042461355013478E700220A980B99344B6E
:1047E00001F062F9002800D046E75346002B67D15C
:1047F00001239C46E2443FE70323249A1340012B04
:1048000000D062E7239B002B00D15EE70D9B002BBD
:1048100003D1249A0C33134202D0239B013B2393F0
:10482000239B9C42CDD208AB9C4617223023624486
:104830001F2C06D82399013413558C42C1D0202C4B
:10484000F8D1202441E7249B5B0721D4249B1B073C
:1048500000D43AE7202342461355013435E7574642
:10486000089D202C37D0220030214046002F08D050
:104870000132B154202A43D0D3431B191B18002BFB
:10488000F6D10EAB98462E234146541C8B547EE73E
:104890002B2342461355013417E7C046FFFFEFFFB5
:1048A000FFFFEF7F65CDCD4165CDCDC1E09B001011
:1048B0000000E03FE8990010EC990010F899001012
:1048C000DB0700D4D8E693E7239B002B00D1FAE660
:1048D0000EAB98469AE70323249A1340012B00D08D
:1048E000F1E60EAB9846239B002B00D169E78DE7DC
:1048F000249B0393239B029303230193064B0AE714
:104900000323249A20241340012B00D0DBE6239BB1
:104910002024002BDCD1D6E6F4990010F0B5DE4659
:104920004E4657464546E0B59FB01C00289B93462F
:104930000993CF4ACF4B894608901A60002900D1CD
:1049400016E2002320789A46002800D118E22600BB
:104950001D004C460AE02A006F1C5B46089D2100A2
:10496000A8473D000136307800287AD02528F2D1BA
:1049700010239A46083B9946043B9846023B002187
:104980009C46721C107816000300203BDBB2102BF3
:1049900003D8B94F9B00FB589F460300303B092BBF
:1049A0003CD900230A932A2800D171E000239846BD
:1049B0002E2847D00300683BDBB2122B1FD8AF4A2A
:1049C0009B00D3589F46012301321943DAE763461F
:1049D00001321943D6E7434601321943D2E7534621
:1049E00001321943CEE74B4601321943CAE77078CA
:1049F0006C2800D1BFE280235B001943013603001D
:104A0000253BDBB2532BA6D89D4A9B00D3589F462B
:104A100080235B00707819430136F0E7002703001C
:104A2000B800C01901364000C018337830381A0079
:104A3000303A0700092AF3D90A9018000023984653
:104A40002E28B7D180237078DB0019430300303B58
:104A5000721C092B00D895E12A2800D1A6E1160086
:104A6000A8E7A146AA462C00D34503D801235B4200
:104A70005B449A465B46524649460020089DA8473B
:104A800020001FB03CBC90469946A246AB46F0BD04
:104A9000099B40CB0A96002E03DB50780993561CE5
:104AA00084E72838014370420A9009935078561CD5
:104AB0007CE7782800D1D4E1582800D168E26F283B
:104AC00000D152E3622800D1D8E110230A009A43B2
:104AD0000B92692801D000F0A2FC0A230C934B052D
:104AE00000D4D5E101230B9A9A430B92692800D197
:104AF000CEE1642800D1CBE10B9A802311009B000A
:104B000019408A461A4200D032E3802311005B002C
:104B1000194089461A4201D000F002FC13005B06DE
:104B200000D510E30B9B1B0601D400F06EFC099B23
:104B300004CB1204120C924609935346002B00D06A
:104B400064E30B9A1033110099430B91520500D482
:104B50005CE3002399460B9B06930A9B059343460F
:104B600004930C9B03930023DEE27078682800D145
:104B700007E280230136194341E780239B007078C8
:104B8000194301363BE7462800D174E10722099B0F
:104B90000491073393430A9A190003924246029202
:104BA0000CC908980092019309912A005B462100E4
:104BB000FFF7C4FC01360500D5E6099B1A0008CAB8
:104BC0009146002B00D105E1212211438A460EA80F
:104BD00084461F216144099500220F27A4460D0039
:104BE00002E0202A0CD00B003C001C402000373093
:104BF000092C00D807380132A85419090F2BF0D816
:104C00006446099DF0E08B0700D4D1E1099B2A009E
:104C100099466B1C98464B4601CB21009946089F4C
:104C20005B46C0B2B8470A9B9C466544012B00D83E
:104C300090E2B2465E464746A846089D3A003300D9
:104C4000013721002020A8474745F7D1B3464B46FE
:104C500056463D000993013685E62A006F1C5B46E7
:104C6000089D21002520A84701363D007BE6C0466F
:104C70001D490010A4960020009A0010449A0010CC
:104C8000909A0010099B04CB994643460992002B49
:104C900000D097E013789C46002B00D1B3E30223A9
:104CA0005B425A1C099B924618000A9F0B92504483
:104CB00002E0834200D169E15A780133002AF8D139
:104CC000099A0A979B1A0B9380230A00DB001A406B
:104CD0000C92194204D00B9B434501D943460B93D8
:104CE00002231A000A400D920B4200D184E1604673
:104CF000002823D00C9B002B00D124E1A844C246FD
:104D0000099B57465B1B9846089BB2462A00260023
:104D10005C469B4609E023003100551CD8474346BA
:104D2000585D002800D13FE12A009742F3D1A34605
:104D30003D00340056460D9B002B69D00B9B0A9911
:104D4000A846994264D98C466544ED1A089B4746AB
:104D50009A46B04626005C463A00230001373100EF
:104D60002020D047AF42F7D1A346340046464FE05B
:104D7000D24B2078089300239A46002800D0E6E51D
:104D8000002471E6434606000A9F9800C0180132CD
:104D9000400080191678030030003038303B092875
:104DA000F3D93000984616000A9703E6099B0236AD
:104DB00004CB9046D2434046D21710408046099318
:104DC0003078F7E513789C46002B00D11AE3434670
:104DD000013B66E7102208009043113210438246DF
:104DE0000022490500D4F2E65346069308230593B2
:104DF00043460493102303930023029316AB0192BE
:104E000000932A005B4621000898FFF763F805002D
:104E10004B4601360993A6E5202302009A43472A10
:104E200004D180231B01194302239843452801D153
:104E3000202319430722099B0491073393430A9ABD
:104E400019000392424602920CC9089800920193FD
:104E500009912A005B462100FFF734F9013605006D
:104E600081E510230C930C230A009A430B924B0507
:104E700000D43BE636E62023194387E602230C9351
:104E80000B910B996428EED10B9B5B0500D529E6AD
:104E90000B9A802311009B0019408A461A4200D0C9
:104EA000CEE0802311005B00194089461A4200D0F1
:104EB000DBE113005B0600D51DE10B9B09991B0686
:104EC00000D499E208C91BB2D8171A18424092B20E
:104ED00009919246DA0F1292002B09D180231022F9
:104EE0000B99DB000B4091430B91002B00D012E19A
:104EF0000B9A6123920600D541230EA91F228C46EE
:104F0000DBB262440A3B57461395A2464D460C9CC1
:104F1000B1460D9316000AE03033DBB2013573550C
:104F2000A74200D21CE1202D00D119E10700210089
:104F3000380000F003FBCBB20929EDD90D9A944655
:104F40006344DBB2EAE7099B5F465B1B98460A9B1A
:104F5000B3469A462600089C2A003B003100A04731
:104F600043460135585D0028F6D1534634000A9374
:104F70005E46BB46DFE6C0239B00B078194302368D
:104F80003DE5C023B0781943023638E50A979BE621
:104F90000C230A009A4314331A4310230B920C93E8
:104FA0004B0500D4A8E59DE5A34634005646C2E66D
:104FB0000A9A012A00D82EE26B1E9F18089BB04661
:104FC000994626005C462A00230001353100202046
:104FD000C847BD42F7D1A34634004646099B3A0074
:104FE00001CB210098467D1C5B46089FC0B2B847A4
:104FF000434601360993B6E40B9A0A98531C904233
:1050000000D80AE243199B1A1F00089BB2462600EB
:105010005C469B462A002300013531002020D847FA
:10502000BD42F7D10A9BA34601330B93099B340081
:105030001B7856469C466046002800D05AE6E7E6B4
:105040000722099B07339343013294469C446246EE
:105050005F6809921A68FB171093119310981199C1
:10506000030053400E930B007B400F9394460E9A1F
:105070000F9B121A8B410E920F93FB0F62461293F5
:1050800000233A439A463DD00B9A6123920600D5FD
:1050900041230022DBB20EA90A3B8C4691460D93B8
:1050A00043461F326244139515964D460E9E0F9F40
:1050B000A14690460C9C14930FE0C046013E0010A0
:1050C0003032D2B2434601355A55BA4500D17CE15F
:1050D000202D00D17CE106000F00220000233000CB
:1050E000390000F06DFAD2B2092AE9D90D9B9C462D
:1050F0006244D2B2E6E7FF23099904C913401A00BB
:105100000991E6E60B9A1033110099430B91520571
:10511000BAD5002399460B9B06930A9B05934346F9
:1051200004930C9B0393129B02934B46019316AB83
:105130002A00009321005B460898FEF7CBFE01365B
:105140000500FFF710FCFF22099B02CB11408A46A5
:105150000993F2E44B46454609930136FFF703FCF9
:105160004E465446A946139DD5E708230C9387E67F
:105170000722099B07339343013294469C446246BD
:1051800009921A685B6810009A461300524613434E
:1051900007D10B9A1033110099430B91520500D59A
:1051A000D7E40B9A6123920600D541230022DBB29B
:1051B0000EA90A3B8C4691460D9343461F3262442A
:1051C00057461295A2464D460400B14690460C9EA5
:1051D00013930DE03032D2B2434601355A550023C5
:1051E000BB4200D1FDE0202D00D1FDE004000F0006
:1051F000320000232000390000F0E2F9D2B2092A7F
:10520000E8D90D9B9C466244D2B2E5E70B9A612334
:10521000920600D54123DBB20EA90A3B1F228C4621
:105220000D93230062445446129517004D469A464A
:10523000B1460C9E08E03033DBB201357B55B442F9
:105240000ED3202D0CD004003100200000F076F9A0
:10525000CBB20929EFD90D9A94466344DBB2ECE74F
:105260004E465446A946129D75E4099B1A0008CA89
:10527000D91713925A184A409146DA0F1292002B0E
:1052800008D1802310220B99DB000B4091430B9136
:10529000002B2BD10B9A6123920600D541230EAA35
:1052A0001F279446DBB20A3B0D9567445546099388
:1052B000A2464C46B1460C9E08E03033DBB20135C5
:1052C0007B55B4420ED3202D0CD0040031002000B9
:1052D00000F034F9CBB20929EFD9099A9446634416
:1052E000DBB2ECE74E465446AA460D9D0B9B2A00C6
:1052F00006930A9B21000593434604930C9B089850
:105300000393129B013602935346019316AB00930D
:105310005B46FEF7DFFD139B05000993FFF723FBB8
:10532000099B04CB91461293002A08D180231022B6
:105330000B99DB000B4091430B91002B2BD10B9A67
:105340006123920600D541230EAA1F279446DBB2A3
:105350000A3B0D95674455460993A2464C46B14613
:105360000C9E08E03033DBB201357B55B4420ED3DE
:10537000202D0CD004003100200000F0DFF8CBB26B
:105380000929EFD9099A94466344DBB2ECE74E460B
:105390005446AA460D9D0B9B2A0006930A9B2100AA
:1053A0000593434604930C9B0898039300230293B0
:1053B0005346019316AB00935B46FEF78BFD129BA1
:1053C000050009930136FFF7CEFAB44200D87FE614
:1053D000149B4C460E960F97A9469846159E139D12
:1053E00099E6A64200D8FEE6139B4E469846A9468B
:1053F0005446129DFFF7AFFB08C9D8171A18424050
:10540000099166E500230B935EE4099B04CB924669
:105410000993FFF792FB2F00E0E50B930BE6063BA9
:105420000C932EE500B585B0039101210290009305
:10543000034813004A4202A9FFF770FA05B000BD05
:10544000B540001010B5094A0300146884B0002C60
:1054500008D0012200910648524203A9A04701202A
:1054600004B010BD01F0C4F80020F9E7A4960020B4
:10547000A540001001480421014B1847F007002007
:10548000B1540010014B9B6818470000F007002042
:10549000142310B50100188804331B88984710BDE9
:1054A000162310B50100188802331B88984710BDD9
:1054B000F0B5C64600B5002916D014230400012516
:1054C00098461827890046184346216818883B8863
:1054D000984701C4431E984140420540A642F3D17B
:1054E000280004BC9046F0BD0125F9E7124A936FED
:1054F0009B0815D29066D166002905D0FFE7FFE72B
:10550000FFE7516F106F704704B580210906C2177D
:105510005140002800D0C84303F02EFE002104BDF6
:10552000F0B5146E556E576F166FFFF7E3FF1466F4
:10553000556657671667F0BD000000D0114A936F9B
:105540009B0813D210665166002905D0FFE7FFE7DC
:10555000FFE7516F106F704704B5002801D000209D
:10556000C04303F009FE002104BDC046F0B5146E2F
:10557000556E576F166FFFF7E5FF14665566576750
:105580001667F0BD000000D094464E4A926F920814
:10559000624601D230E0C046F0B54A4EB56F6D08A4
:1055A000FCD3346E756E776F366F00F025F8944635
:1055B000444A14665566576716676246F0BDC04692
:1055C0009446404A926F9208624601D258E0C04623
:1055D000F0B53C4EB56F6D08FCD3346E756E776FC9
:1055E000366F00F04DF89446364A14665566576794
:1055F00016676246F0BDC046002B24DB11D000299F
:105600003EDA00B5C943404200D1013100F038F81C
:10561000C943404200D10131DB43524200D1013342
:1056200000BD002AEBD1002801D1002905D00020BF
:10563000C90FC90701D1C043410800B503F094FD6B
:105640000022002300BD00B500290ADBDB435242E3
:1056500000D1013300F014F8C943404200D10131B8
:1056600000BDC943404200D10131DB43524200D169
:10567000013300F005F8DB43524200D1013300BD95
:10568000002923D1002B18D1002A0CD0BC460D4F85
:1056900038667A6600210023FFE7FFE7FFE77A6FAD
:1056A000386F67467047002801D00748010000B5F1
:1056B00003F05AFD0022002300BD02000B00002071
:1056C00000217047000000D0FFFFFFFF002B00D03B
:1056D000BFE0130C28D1002AE7D080B4114F3966FF
:1056E0007A66FFE7FFE730B4040C7B6F396F1B0469
:1056F00023433B667A66FFE7FFE7FFE7C04684B2D5
:105700007B6F3D6F1B0423433B667A66FFE7FFE731
:10571000C04600232C042D0C7A6F386F00196941A4
:10572000B0BC7047000000D0F0B594460025140EC0
:1057300001D112020835140F01D112010435940F62
:1057400001D192000235D40F01D152000135D40BA2
:105750000134254F7C66254C3C660E0C93B2FFE766
:10576000FFE7FFE73C6F6643360C7703BE467343A3
:10577000DF0B5B04C01AB941130C7343DB18C91A61
:10578000CE086643360CB64493B273431F0F1B0119
:10579000C01AB941130C73431F0B1B05C01AB94142
:1057A000860D8F023E436643360C092D24DB520AD8
:1057B0007243801A7703460A6643360C16235B1B36
:1057C000DE40DF40BF1964466643821B70460435E5
:1057D00006330100D940A840C01900D30131A242CC
:1057E00006D20023F0BD0000000000D0FFFFFFFF45
:1057F000121B0130F3D3F1E709277F1BFE406446FB
:10580000A2B27243801A00D20139220C7243130CE7
:105810001204821A99410B007046043513370100B7
:10582000F940A840801900D30131002B02D1A242D7
:105830000AD2F0BD013000D30131121BFAD2013B74
:10584000F8D1A24200D2F0BD013000D30131121BC9
:10585000F7E7F0B51C0C00D080E00CB400251C0A62
:1058600004D11B02160E3343120208351C0B04D15F
:105870001B01160F3343120104359C0B04D19B000E
:10588000960F334392000235DC0B02D192185B4134
:1058900001351C00971864410134464F7C66464C24
:1058A0003C660E0CFFE7FFE7FFE7C0463C6F664330
:1058B000360C7703BE4697B27743C01B00D201393E
:1058C000C01B00D201399FB27743C91BC91B170CFB
:1058D00077437E04FF0B801BB941CE086643360C2C
:1058E0000C2D33DBB644120B1F053A431B0B97B24A
:1058F0007743C01B00D201399FB27743C91B170CF5
:1059000077433E043F0C801BB941860D8F023E4316
:10591000664329277F1BFE400C3D7746AF40BF19E9
:1059200030BCA2B2ABB272437343801A9941220CCD
:105930007243130C1204801A994102000B000137C4
:10594000001BA941F9D2781E0021F0BD0C277F1B56
:10595000FE4077467F0BAF40FF19E0E700245D1C57
:1059600007D0144F7D663966FFE7FFE7FFE7FFE7E3
:105970003C6F95B29EB265436643401BB141150C26
:105980001E0C6543664336042F0C3E432D04401B1A
:10599000B141994204D202000B0020000021F0BD69
:1059A00001D19042F7D3801A994101349942F2D340
:1059B000F6E70000000000D0FFFFFFFF4840414035
:1059C000484018B41B4B5B68FC46019308BD04DFDC
:1059D000875C001018B4174B1B68FC46019308BD88
:1059E00000DF915C00109446134A926F920809D22E
:1059F000624618B40F4BDB68FC46019308BD0CDF10
:105A0000495F00100C4AF0B5146E556E576F166F53
:105A10006246FFF7EEFF084A146655665767166739
:105A2000F0BD18B4034B9B68FC46019308BD08DF2A
:105A3000ED5D0010AC980020000000D0FFB5504094
:105A40004240504059404B40594000E0FFB5154F8F
:105A50004C00640D03D0BC4204D10C0314D80020C8
:105A6000090D09055C00640D03D0BC4204D11C0380
:105A70000AD800221B0D1B0501264B4009D44B40C0
:105A800003D58B4200D18242FFBD9942FCD19042A6
:105A9000FFBD0B43DB1803431343F5D0C94349183B
:105AA000FFBD0000FF07000000B5FFF7CFFF8041FA
:105AB00000BDC04600B5FFF7C9FF01D9002000BDF9
:105AC000012000BD00B5FFF7B9FF01D9002000BDDE
:105AD000012000BD00B5FFF7B1FF804100BD0120EE
